{
  "abi": [
    {
      "inputs": [
        {
          "internalType": "uint256",
          "name": "_escapeBlockLowerBound",
          "type": "uint256"
        },
        {
          "internalType": "uint256",
          "name": "_escapeBlockUpperBound",
          "type": "uint256"
        }
      ],
      "stateMutability": "nonpayable",
      "type": "constructor"
    },
    {
      "inputs": [],
      "name": "ARRAY_OVERFLOW",
      "type": "error"
    },
    {
      "inputs": [
        {
          "internalType": "uint256",
          "name": "inputAssetId",
          "type": "uint256"
        }
      ],
      "name": "BRIDGE_WITH_IDENTICAL_INPUT_ASSETS",
      "type": "error"
    },
    {
      "inputs": [
        {
          "internalType": "uint256",
          "name": "outputAssetId",
          "type": "uint256"
        }
      ],
      "name": "BRIDGE_WITH_IDENTICAL_OUTPUT_ASSETS",
      "type": "error"
    },
    {
      "inputs": [],
      "name": "DEPOSIT_TOKENS_WRONG_PAYMENT_TYPE",
      "type": "error"
    },
    {
      "inputs": [],
      "name": "ENCODING_BYTE_INVALID",
      "type": "error"
    },
    {
      "inputs": [],
      "name": "INCONSISTENT_BRIDGE_CALL_DATA",
      "type": "error"
    },
    {
      "inputs": [
        {
          "internalType": "uint256",
          "name": "providedIndex",
          "type": "uint256"
        },
        {
          "internalType": "uint256",
          "name": "expectedIndex",
          "type": "uint256"
        }
      ],
      "name": "INCORRECT_DATA_START_INDEX",
      "type": "error"
    },
    {
      "inputs": [
        {
          "internalType": "bytes32",
          "name": "providedDefiInteractionHash",
          "type": "bytes32"
        },
        {
          "internalType": "bytes32",
          "name": "expectedDefiInteractionHash",
          "type": "bytes32"
        }
      ],
      "name": "INCORRECT_PREVIOUS_DEFI_INTERACTION_HASH",
      "type": "error"
    },
    {
      "inputs": [
        {
          "internalType": "bytes32",
          "name": "oldStateHash",
          "type": "bytes32"
        },
        {
          "internalType": "bytes32",
          "name": "newStateHash",
          "type": "bytes32"
        }
      ],
      "name": "INCORRECT_STATE_HASH",
      "type": "error"
    },
    {
      "inputs": [],
      "name": "INSUFFICIENT_DEPOSIT",
      "type": "error"
    },
    {
      "inputs": [],
      "name": "INSUFFICIENT_ETH_PAYMENT",
      "type": "error"
    },
    {
      "inputs": [],
      "name": "INSUFFICIENT_TOKEN_APPROVAL",
      "type": "error"
    },
    {
      "inputs": [],
      "name": "INVALID_ASSET_ADDRESS",
      "type": "error"
    },
    {
      "inputs": [],
      "name": "INVALID_ASSET_ID",
      "type": "error"
    },
    {
      "inputs": [],
      "name": "INVALID_BRIDGE_ADDRESS",
      "type": "error"
    },
    {
      "inputs": [],
      "name": "INVALID_BRIDGE_CALL_DATA",
      "type": "error"
    },
    {
      "inputs": [],
      "name": "INVALID_LINKED_BRIDGE_ADDRESS",
      "type": "error"
    },
    {
      "inputs": [],
      "name": "INVALID_LINKED_TOKEN_ADDRESS",
      "type": "error"
    },
    {
      "inputs": [],
      "name": "INVALID_PROVIDER",
      "type": "error"
    },
    {
      "inputs": [],
      "name": "INVALID_ROLLUP_TOPOLOGY",
      "type": "error"
    },
    {
      "inputs": [],
      "name": "INVALID_SIGNATURE",
      "type": "error"
    },
    {
      "inputs": [],
      "name": "LOCKED_NO_REENTER",
      "type": "error"
    },
    {
      "inputs": [],
      "name": "MSG_VALUE_WRONG_AMOUNT",
      "type": "error"
    },
    {
      "inputs": [
        {
          "internalType": "uint256",
          "name": "outputValue",
          "type": "uint256"
        }
      ],
      "name": "NONZERO_OUTPUT_VALUE_ON_NOT_USED_ASSET",
      "type": "error"
    },
    {
      "inputs": [],
      "name": "NOT_PAUSED",
      "type": "error"
    },
    {
      "inputs": [],
      "name": "PAUSED",
      "type": "error"
    },
    {
      "inputs": [],
      "name": "PROOF_VERIFICATION_FAILED",
      "type": "error"
    },
    {
      "inputs": [
        {
          "internalType": "uint256",
          "name": "",
          "type": "uint256"
        },
        {
          "internalType": "uint256",
          "name": "",
          "type": "uint256"
        }
      ],
      "name": "PUBLIC_INPUTS_HASH_VERIFICATION_FAILED",
      "type": "error"
    },
    {
      "inputs": [],
      "name": "SIGNATURE_ADDRESS_IS_ZERO",
      "type": "error"
    },
    {
      "inputs": [],
      "name": "SIGNATURE_RECOVERY_FAILED",
      "type": "error"
    },
    {
      "inputs": [],
      "name": "THIRD_PARTY_CONTRACTS_FLAG_NOT_SET",
      "type": "error"
    },
    {
      "inputs": [],
      "name": "WITHDRAW_TO_ZERO_ADDRESS",
      "type": "error"
    },
    {
      "inputs": [],
      "name": "ZERO_TOTAL_INPUT_VALUE",
      "type": "error"
    },
    {
      "anonymous": false,
      "inputs": [
        {
          "indexed": true,
          "internalType": "uint256",
          "name": "assetId",
          "type": "uint256"
        },
        {
          "indexed": true,
          "internalType": "address",
          "name": "assetAddress",
          "type": "address"
        },
        {
          "indexed": false,
          "internalType": "uint256",
          "name": "assetGasLimit",
          "type": "uint256"
        }
      ],
      "name": "AssetAdded",
      "type": "event"
    },
    {
      "anonymous": false,
      "inputs": [
        {
          "indexed": true,
          "internalType": "uint256",
          "name": "encodedBridgeCallData",
          "type": "uint256"
        },
        {
          "indexed": true,
          "internalType": "uint256",
          "name": "nonce",
          "type": "uint256"
        },
        {
          "indexed": false,
          "internalType": "uint256",
          "name": "totalInputValue",
          "type": "uint256"
        }
      ],
      "name": "AsyncDefiBridgeProcessed",
      "type": "event"
    },
    {
      "anonymous": false,
      "inputs": [
        {
          "indexed": true,
          "internalType": "uint256",
          "name": "bridgeAddressId",
          "type": "uint256"
        },
        {
          "indexed": true,
          "internalType": "address",
          "name": "bridgeAddress",
          "type": "address"
        },
        {
          "indexed": false,
          "internalType": "uint256",
          "name": "bridgeGasLimit",
          "type": "uint256"
        }
      ],
      "name": "BridgeAdded",
      "type": "event"
    },
    {
      "anonymous": false,
      "inputs": [
        {
          "indexed": true,
          "internalType": "uint256",
          "name": "encodedBridgeCallData",
          "type": "uint256"
        },
        {
          "indexed": true,
          "internalType": "uint256",
          "name": "nonce",
          "type": "uint256"
        },
        {
          "indexed": false,
          "internalType": "uint256",
          "name": "totalInputValue",
          "type": "uint256"
        },
        {
          "indexed": false,
          "internalType": "uint256",
          "name": "totalOutputValueA",
          "type": "uint256"
        },
        {
          "indexed": false,
          "internalType": "uint256",
          "name": "totalOutputValueB",
          "type": "uint256"
        },
        {
          "indexed": false,
          "internalType": "bool",
          "name": "result",
          "type": "bool"
        },
        {
          "indexed": false,
          "internalType": "bytes",
          "name": "errorReason",
          "type": "bytes"
        }
      ],
      "name": "DefiBridgeProcessed",
      "type": "event"
    },
    {
      "anonymous": false,
      "inputs": [
        {
          "indexed": true,
          "internalType": "uint256",
          "name": "assetId",
          "type": "uint256"
        },
        {
          "indexed": true,
          "internalType": "address",
          "name": "depositorAddress",
          "type": "address"
        },
        {
          "indexed": false,
          "internalType": "uint256",
          "name": "depositValue",
          "type": "uint256"
        }
      ],
      "name": "Deposit",
      "type": "event"
    },
    {
      "anonymous": false,
      "inputs": [
        {
          "indexed": false,
          "internalType": "uint8",
          "name": "version",
          "type": "uint8"
        }
      ],
      "name": "Initialized",
      "type": "event"
    },
    {
      "anonymous": false,
      "inputs": [
        {
          "indexed": true,
          "internalType": "uint256",
          "name": "rollupId",
          "type": "uint256"
        },
        {
          "indexed": false,
          "internalType": "uint256",
          "name": "chunk",
          "type": "uint256"
        },
        {
          "indexed": false,
          "internalType": "uint256",
          "name": "totalChunks",
          "type": "uint256"
        },
        {
          "indexed": false,
          "internalType": "address",
          "name": "sender",
          "type": "address"
        }
      ],
      "name": "OffchainData",
      "type": "event"
    },
    {
      "anonymous": false,
      "inputs": [
        {
          "indexed": false,
          "internalType": "address",
          "name": "account",
          "type": "address"
        }
      ],
      "name": "Paused",
      "type": "event"
    },
    {
      "anonymous": false,
      "inputs": [
        {
          "indexed": true,
          "internalType": "bytes32",
          "name": "role",
          "type": "bytes32"
        },
        {
          "indexed": true,
          "internalType": "bytes32",
          "name": "previousAdminRole",
          "type": "bytes32"
        },
        {
          "indexed": true,
          "internalType": "bytes32",
          "name": "newAdminRole",
          "type": "bytes32"
        }
      ],
      "name": "RoleAdminChanged",
      "type": "event"
    },
    {
      "anonymous": false,
      "inputs": [
        {
          "indexed": true,
          "internalType": "bytes32",
          "name": "role",
          "type": "bytes32"
        },
        {
          "indexed": true,
          "internalType": "address",
          "name": "account",
          "type": "address"
        },
        {
          "indexed": true,
          "internalType": "address",
          "name": "sender",
          "type": "address"
        }
      ],
      "name": "RoleGranted",
      "type": "event"
    },
    {
      "anonymous": false,
      "inputs": [
        {
          "indexed": true,
          "internalType": "bytes32",
          "name": "role",
          "type": "bytes32"
        },
        {
          "indexed": true,
          "internalType": "address",
          "name": "account",
          "type": "address"
        },
        {
          "indexed": true,
          "internalType": "address",
          "name": "sender",
          "type": "address"
        }
      ],
      "name": "RoleRevoked",
      "type": "event"
    },
    {
      "anonymous": false,
      "inputs": [
        {
          "indexed": true,
          "internalType": "uint256",
          "name": "rollupId",
          "type": "uint256"
        },
        {
          "indexed": false,
          "internalType": "bytes32[]",
          "name": "nextExpectedDefiHashes",
          "type": "bytes32[]"
        },
        {
          "indexed": false,
          "internalType": "address",
          "name": "sender",
          "type": "address"
        }
      ],
      "name": "RollupProcessed",
      "type": "event"
    },
    {
      "anonymous": false,
      "inputs": [
        {
          "indexed": true,
          "internalType": "address",
          "name": "providerAddress",
          "type": "address"
        },
        {
          "indexed": false,
          "internalType": "bool",
          "name": "valid",
          "type": "bool"
        }
      ],
      "name": "RollupProviderUpdated",
      "type": "event"
    },
    {
      "anonymous": false,
      "inputs": [
        {
          "indexed": false,
          "internalType": "address",
          "name": "account",
          "type": "address"
        }
      ],
      "name": "Unpaused",
      "type": "event"
    },
    {
      "anonymous": false,
      "inputs": [
        {
          "indexed": true,
          "internalType": "address",
          "name": "verifierAddress",
          "type": "address"
        }
      ],
      "name": "VerifierUpdated",
      "type": "event"
    },
    {
      "anonymous": false,
      "inputs": [
        {
          "indexed": false,
          "internalType": "bytes",
          "name": "errorReason",
          "type": "bytes"
        }
      ],
      "name": "WithdrawError",
      "type": "event"
    },
    {
      "inputs": [],
      "name": "DEFAULT_ADMIN_ROLE",
      "outputs": [
        {
          "internalType": "bytes32",
          "name": "",
          "type": "bytes32"
        }
      ],
      "stateMutability": "view",
      "type": "function"
    },
    {
      "inputs": [],
      "name": "EMERGENCY_ROLE",
      "outputs": [
        {
          "internalType": "bytes32",
          "name": "",
          "type": "bytes32"
        }
      ],
      "stateMutability": "view",
      "type": "function"
    },
    {
      "inputs": [],
      "name": "OWNER_ROLE",
      "outputs": [
        {
          "internalType": "bytes32",
          "name": "",
          "type": "bytes32"
        }
      ],
      "stateMutability": "view",
      "type": "function"
    },
    {
      "inputs": [],
      "name": "allowThirdPartyContracts",
      "outputs": [
        {
          "internalType": "bool",
          "name": "",
          "type": "bool"
        }
      ],
      "stateMutability": "view",
      "type": "function"
    },
    {
      "inputs": [
        {
          "internalType": "bytes32",
          "name": "_proofHash",
          "type": "bytes32"
        }
      ],
      "name": "approveProof",
      "outputs": [],
      "stateMutability": "nonpayable",
      "type": "function"
    },
    {
      "inputs": [
        {
          "internalType": "uint256",
          "name": "",
          "type": "uint256"
        }
      ],
      "name": "assetGasLimits",
      "outputs": [
        {
          "internalType": "uint256",
          "name": "",
          "type": "uint256"
        }
      ],
      "stateMutability": "view",
      "type": "function"
    },
    {
      "inputs": [
        {
          "internalType": "uint256",
          "name": "",
          "type": "uint256"
        }
      ],
      "name": "asyncDefiInteractionHashes",
      "outputs": [
        {
          "internalType": "bytes32",
          "name": "",
          "type": "bytes32"
        }
      ],
      "stateMutability": "view",
      "type": "function"
    },
    {
      "inputs": [
        {
          "internalType": "uint256",
          "name": "",
          "type": "uint256"
        }
      ],
      "name": "bridgeGasLimits",
      "outputs": [
        {
          "internalType": "uint256",
          "name": "",
          "type": "uint256"
        }
      ],
      "stateMutability": "view",
      "type": "function"
    },
    {
      "inputs": [],
      "name": "defiBridgeProxy",
      "outputs": [
        {
          "internalType": "address",
          "name": "",
          "type": "address"
        }
      ],
      "stateMutability": "view",
      "type": "function"
    },
    {
      "inputs": [
        {
          "internalType": "uint256",
          "name": "",
          "type": "uint256"
        }
      ],
      "name": "defiInteractionHashes",
      "outputs": [
        {
          "internalType": "bytes32",
          "name": "",
          "type": "bytes32"
        }
      ],
      "stateMutability": "view",
      "type": "function"
    },
    {
      "inputs": [
        {
          "internalType": "uint256",
          "name": "assetId",
          "type": "uint256"
        },
        {
          "internalType": "uint256",
          "name": "amount",
          "type": "uint256"
        },
        {
          "internalType": "address",
          "name": "owner",
          "type": "address"
        },
        {
          "internalType": "bytes32",
          "name": "proofHash",
          "type": "bytes32"
        }
      ],
      "name": "depositPendingFunds",
      "outputs": [],
      "stateMutability": "payable",
      "type": "function"
    },
    {
      "inputs": [
        {
          "internalType": "uint256",
          "name": "assetId",
          "type": "uint256"
        },
        {
          "internalType": "uint256",
          "name": "amount",
          "type": "uint256"
        },
        {
          "internalType": "address",
          "name": "depositorAddress",
          "type": "address"
        },
        {
          "internalType": "bytes32",
          "name": "proofHash",
          "type": "bytes32"
        },
        {
          "internalType": "uint256",
          "name": "deadline",
          "type": "uint256"
        },
        {
          "internalType": "uint8",
          "name": "v",
          "type": "uint8"
        },
        {
          "internalType": "bytes32",
          "name": "r",
          "type": "bytes32"
        },
        {
          "internalType": "bytes32",
          "name": "s",
          "type": "bytes32"
        }
      ],
      "name": "depositPendingFundsPermit",
      "outputs": [],
      "stateMutability": "nonpayable",
      "type": "function"
    },
    {
      "inputs": [
        {
          "internalType": "uint256",
          "name": "assetId",
          "type": "uint256"
        },
        {
          "internalType": "uint256",
          "name": "amount",
          "type": "uint256"
        },
        {
          "internalType": "address",
          "name": "depositorAddress",
          "type": "address"
        },
        {
          "internalType": "bytes32",
          "name": "proofHash",
          "type": "bytes32"
        },
        {
          "internalType": "uint256",
          "name": "nonce",
          "type": "uint256"
        },
        {
          "internalType": "uint256",
          "name": "deadline",
          "type": "uint256"
        },
        {
          "internalType": "uint8",
          "name": "v",
          "type": "uint8"
        },
        {
          "internalType": "bytes32",
          "name": "r",
          "type": "bytes32"
        },
        {
          "internalType": "bytes32",
          "name": "s",
          "type": "bytes32"
        }
      ],
      "name": "depositPendingFundsPermitNonStandard",
      "outputs": [],
      "stateMutability": "nonpayable",
      "type": "function"
    },
    {
      "inputs": [
        {
          "internalType": "address",
          "name": "",
          "type": "address"
        },
        {
          "internalType": "bytes32",
          "name": "",
          "type": "bytes32"
        }
      ],
      "name": "depositProofApprovals",
      "outputs": [
        {
          "internalType": "bool",
          "name": "",
          "type": "bool"
        }
      ],
      "stateMutability": "view",
      "type": "function"
    },
    {
      "inputs": [],
      "name": "escapeBlockLowerBound",
      "outputs": [
        {
          "internalType": "uint256",
          "name": "",
          "type": "uint256"
        }
      ],
      "stateMutability": "view",
      "type": "function"
    },
    {
      "inputs": [],
      "name": "escapeBlockUpperBound",
      "outputs": [
        {
          "internalType": "uint256",
          "name": "",
          "type": "uint256"
        }
      ],
      "stateMutability": "view",
      "type": "function"
    },
    {
      "inputs": [
        {
          "internalType": "uint256",
          "name": "",
          "type": "uint256"
        }
      ],
      "name": "ethPayments",
      "outputs": [
        {
          "internalType": "uint256",
          "name": "",
          "type": "uint256"
        }
      ],
      "stateMutability": "view",
      "type": "function"
    },
    {
      "inputs": [],
      "name": "getAsyncDefiInteractionHashes",
      "outputs": [
        {
          "internalType": "bytes32[]",
          "name": "res",
          "type": "bytes32[]"
        }
      ],
      "stateMutability": "view",
      "type": "function"
    },
    {
      "inputs": [],
      "name": "getAsyncDefiInteractionHashesLength",
      "outputs": [
        {
          "internalType": "uint256",
          "name": "res",
          "type": "uint256"
        }
      ],
      "stateMutability": "view",
      "type": "function"
    },
    {
      "inputs": [
        {
          "internalType": "uint256",
          "name": "bridgeAddressId",
          "type": "uint256"
        }
      ],
      "name": "getBridgeGasLimit",
      "outputs": [
        {
          "internalType": "uint256",
          "name": "",
          "type": "uint256"
        }
      ],
      "stateMutability": "view",
      "type": "function"
    },
    {
      "inputs": [],
      "name": "getDataSize",
      "outputs": [
        {
          "internalType": "uint256",
          "name": "dataSize",
          "type": "uint256"
        }
      ],
      "stateMutability": "view",
      "type": "function"
    },
    {
      "inputs": [],
      "name": "getDefiInteractionHashes",
      "outputs": [
        {
          "internalType": "bytes32[]",
          "name": "res",
          "type": "bytes32[]"
        }
      ],
      "stateMutability": "view",
      "type": "function"
    },
    {
      "inputs": [],
      "name": "getDefiInteractionHashesLength",
      "outputs": [
        {
          "internalType": "uint256",
          "name": "res",
          "type": "uint256"
        }
      ],
      "stateMutability": "view",
      "type": "function"
    },
    {
      "inputs": [],
      "name": "getEscapeHatchStatus",
      "outputs": [
        {
          "internalType": "bool",
          "name": "",
          "type": "bool"
        },
        {
          "internalType": "uint256",
          "name": "",
          "type": "uint256"
        }
      ],
      "stateMutability": "view",
      "type": "function"
    },
    {
      "inputs": [],
      "name": "getImplementationVersion",
      "outputs": [
        {
          "internalType": "uint8",
          "name": "version",
          "type": "uint8"
        }
      ],
      "stateMutability": "view",
      "type": "function"
    },
    {
      "inputs": [],
      "name": "getPendingDefiInteractionHashesLength",
      "outputs": [
        {
          "internalType": "uint256",
          "name": "res",
          "type": "uint256"
        }
      ],
      "stateMutability": "view",
      "type": "function"
    },
    {
      "inputs": [
        {
          "internalType": "bytes32",
          "name": "role",
          "type": "bytes32"
        }
      ],
      "name": "getRoleAdmin",
      "outputs": [
        {
          "internalType": "bytes32",
          "name": "",
          "type": "bytes32"
        }
      ],
      "stateMutability": "view",
      "type": "function"
    },
    {
      "inputs": [
        {
          "internalType": "uint256",
          "name": "assetId",
          "type": "uint256"
        }
      ],
      "name": "getSupportedAsset",
      "outputs": [
        {
          "internalType": "address",
          "name": "",
          "type": "address"
        }
      ],
      "stateMutability": "view",
      "type": "function"
    },
    {
      "inputs": [],
      "name": "getSupportedAssets",
      "outputs": [
        {
          "internalType": "address[]",
          "name": "",
          "type": "address[]"
        },
        {
          "internalType": "uint256[]",
          "name": "",
          "type": "uint256[]"
        }
      ],
      "stateMutability": "view",
      "type": "function"
    },
    {
      "inputs": [],
      "name": "getSupportedAssetsLength",
      "outputs": [
        {
          "internalType": "uint256",
          "name": "res",
          "type": "uint256"
        }
      ],
      "stateMutability": "view",
      "type": "function"
    },
    {
      "inputs": [
        {
          "internalType": "uint256",
          "name": "bridgeAddressId",
          "type": "uint256"
        }
      ],
      "name": "getSupportedBridge",
      "outputs": [
        {
          "internalType": "address",
          "name": "",
          "type": "address"
        }
      ],
      "stateMutability": "view",
      "type": "function"
    },
    {
      "inputs": [],
      "name": "getSupportedBridges",
      "outputs": [
        {
          "internalType": "address[]",
          "name": "",
          "type": "address[]"
        },
        {
          "internalType": "uint256[]",
          "name": "",
          "type": "uint256[]"
        }
      ],
      "stateMutability": "view",
      "type": "function"
    },
    {
      "inputs": [],
      "name": "getSupportedBridgesLength",
      "outputs": [
        {
          "internalType": "uint256",
          "name": "res",
          "type": "uint256"
        }
      ],
      "stateMutability": "view",
      "type": "function"
    },
    {
      "inputs": [
        {
          "internalType": "bytes32",
          "name": "role",
          "type": "bytes32"
        },
        {
          "internalType": "address",
          "name": "account",
          "type": "address"
        }
      ],
      "name": "grantRole",
      "outputs": [],
      "stateMutability": "nonpayable",
      "type": "function"
    },
    {
      "inputs": [
        {
          "internalType": "bytes32",
          "name": "role",
          "type": "bytes32"
        },
        {
          "internalType": "address",
          "name": "account",
          "type": "address"
        }
      ],
      "name": "hasRole",
      "outputs": [
        {
          "internalType": "bool",
          "name": "",
          "type": "bool"
        }
      ],
      "stateMutability": "view",
      "type": "function"
    },
    {
      "inputs": [
        {
          "internalType": "address",
          "name": "_verifierAddress",
          "type": "address"
        },
        {
          "internalType": "address",
          "name": "_defiBridgeProxy",
          "type": "address"
        },
        {
          "internalType": "address",
          "name": "_contractOwner",
          "type": "address"
        },
        {
          "internalType": "bytes32",
          "name": "_initDataRoot",
          "type": "bytes32"
        },
        {
          "internalType": "bytes32",
          "name": "_initNullRoot",
          "type": "bytes32"
        },
        {
          "internalType": "bytes32",
          "name": "_initRootRoot",
          "type": "bytes32"
        },
        {
          "internalType": "uint32",
          "name": "_initDatasize",
          "type": "uint32"
        },
        {
          "internalType": "bool",
          "name": "_allowThirdPartyContracts",
          "type": "bool"
        }
      ],
      "name": "initialize",
      "outputs": [],
      "stateMutability": "nonpayable",
      "type": "function"
    },
    {
      "inputs": [
        {
          "internalType": "uint256",
          "name": "rollupId",
          "type": "uint256"
        },
        {
          "internalType": "uint256",
          "name": "chunk",
          "type": "uint256"
        },
        {
          "internalType": "uint256",
          "name": "totalChunks",
          "type": "uint256"
        },
        {
          "internalType": "bytes",
          "name": "",
          "type": "bytes"
        }
      ],
      "name": "offchainData",
      "outputs": [],
      "stateMutability": "nonpayable",
      "type": "function"
    },
    {
      "inputs": [],
      "name": "pause",
      "outputs": [],
      "stateMutability": "nonpayable",
      "type": "function"
    },
    {
      "inputs": [],
      "name": "paused",
      "outputs": [
        {
          "internalType": "bool",
          "name": "isPaused",
          "type": "bool"
        }
      ],
      "stateMutability": "view",
      "type": "function"
    },
    {
      "inputs": [
        {
          "internalType": "uint256",
          "name": "",
          "type": "uint256"
        }
      ],
      "name": "pendingDefiInteractions",
      "outputs": [
        {
          "internalType": "uint256",
          "name": "encodedBridgeCallData",
          "type": "uint256"
        },
        {
          "internalType": "uint256",
          "name": "totalInputValue",
          "type": "uint256"
        }
      ],
      "stateMutability": "view",
      "type": "function"
    },
    {
      "inputs": [],
      "name": "prevDefiInteractionsHash",
      "outputs": [
        {
          "internalType": "bytes32",
          "name": "",
          "type": "bytes32"
        }
      ],
      "stateMutability": "view",
      "type": "function"
    },
    {
      "inputs": [
        {
          "internalType": "uint256",
          "name": "interactionNonce",
          "type": "uint256"
        }
      ],
      "name": "processAsyncDefiInteraction",
      "outputs": [
        {
          "internalType": "bool",
          "name": "",
          "type": "bool"
        }
      ],
      "stateMutability": "nonpayable",
      "type": "function"
    },
    {
      "inputs": [
        {
          "internalType": "bytes",
          "name": "",
          "type": "bytes"
        },
        {
          "internalType": "bytes",
          "name": "signatures",
          "type": "bytes"
        }
      ],
      "name": "processRollup",
      "outputs": [],
      "stateMutability": "nonpayable",
      "type": "function"
    },
    {
      "inputs": [
        {
          "internalType": "uint256",
          "name": "interactionNonce",
          "type": "uint256"
        }
      ],
      "name": "receiveEthFromBridge",
      "outputs": [],
      "stateMutability": "payable",
      "type": "function"
    },
    {
      "inputs": [
        {
          "internalType": "bytes32",
          "name": "role",
          "type": "bytes32"
        },
        {
          "internalType": "address",
          "name": "account",
          "type": "address"
        }
      ],
      "name": "renounceRole",
      "outputs": [],
      "stateMutability": "nonpayable",
      "type": "function"
    },
    {
      "inputs": [
        {
          "internalType": "bytes32",
          "name": "role",
          "type": "bytes32"
        },
        {
          "internalType": "address",
          "name": "account",
          "type": "address"
        }
      ],
      "name": "revokeRole",
      "outputs": [],
      "stateMutability": "nonpayable",
      "type": "function"
    },
    {
      "inputs": [
        {
          "internalType": "address",
          "name": "",
          "type": "address"
        }
      ],
      "name": "rollupProviders",
      "outputs": [
        {
          "internalType": "bool",
          "name": "",
          "type": "bool"
        }
      ],
      "stateMutability": "view",
      "type": "function"
    },
    {
      "inputs": [],
      "name": "rollupStateHash",
      "outputs": [
        {
          "internalType": "bytes32",
          "name": "",
          "type": "bytes32"
        }
      ],
      "stateMutability": "view",
      "type": "function"
    },
    {
      "inputs": [
        {
          "internalType": "bool",
          "name": "_flag",
          "type": "bool"
        }
      ],
      "name": "setAllowThirdPartyContracts",
      "outputs": [],
      "stateMutability": "nonpayable",
      "type": "function"
    },
    {
      "inputs": [
        {
          "internalType": "address",
          "name": "defiBridgeProxyAddress",
          "type": "address"
        }
      ],
      "name": "setDefiBridgeProxy",
      "outputs": [],
      "stateMutability": "nonpayable",
      "type": "function"
    },
    {
      "inputs": [
        {
          "internalType": "address",
          "name": "providerAddress",
          "type": "address"
        },
        {
          "internalType": "bool",
          "name": "valid",
          "type": "bool"
        }
      ],
      "name": "setRollupProvider",
      "outputs": [],
      "stateMutability": "nonpayable",
      "type": "function"
    },
    {
      "inputs": [
        {
          "internalType": "address",
          "name": "linkedToken",
          "type": "address"
        },
        {
          "internalType": "uint256",
          "name": "gasLimit",
          "type": "uint256"
        }
      ],
      "name": "setSupportedAsset",
      "outputs": [],
      "stateMutability": "nonpayable",
      "type": "function"
    },
    {
      "inputs": [
        {
          "internalType": "address",
          "name": "linkedBridge",
          "type": "address"
        },
        {
          "internalType": "uint256",
          "name": "gasLimit",
          "type": "uint256"
        }
      ],
      "name": "setSupportedBridge",
      "outputs": [],
      "stateMutability": "nonpayable",
      "type": "function"
    },
    {
      "inputs": [
        {
          "internalType": "address",
          "name": "_verifierAddress",
          "type": "address"
        }
      ],
      "name": "setVerifier",
      "outputs": [],
      "stateMutability": "nonpayable",
      "type": "function"
    },
    {
      "inputs": [
        {
          "internalType": "bytes4",
          "name": "interfaceId",
          "type": "bytes4"
        }
      ],
      "name": "supportsInterface",
      "outputs": [
        {
          "internalType": "bool",
          "name": "",
          "type": "bool"
        }
      ],
      "stateMutability": "view",
      "type": "function"
    },
    {
      "inputs": [],
      "name": "unpause",
      "outputs": [],
      "stateMutability": "nonpayable",
      "type": "function"
    },
    {
      "inputs": [
        {
          "internalType": "uint256",
          "name": "",
          "type": "uint256"
        },
        {
          "internalType": "address",
          "name": "",
          "type": "address"
        }
      ],
      "name": "userPendingDeposits",
      "outputs": [
        {
          "internalType": "uint256",
          "name": "",
          "type": "uint256"
        }
      ],
      "stateMutability": "view",
      "type": "function"
    },
    {
      "inputs": [],
      "name": "verifier",
      "outputs": [
        {
          "internalType": "address",
          "name": "verifierAddress",
          "type": "address"
        }
      ],
      "stateMutability": "view",
      "type": "function"
    }
  ],
  "bytecode": {
    "object": "0x60c06040523480156200001157600080fd5b5060405162005aa838038062005aa8833981016040819052620000349162000121565b6200003e62000060565b6002805460ff60e81b1916600160e81b17905560809190915260a05262000146565b600054610100900460ff1615620000cd5760405162461bcd60e51b815260206004820152602760248201527f496e697469616c697a61626c653a20636f6e747261637420697320696e697469604482015266616c697a696e6760c81b606482015260840160405180910390fd5b60005460ff908116146200011f576000805460ff191660ff9081179091556040519081527f7f26b83ff96e1f2b6a682f133852f6798a09c465da95921460cefb38474024989060200160405180910390a15b565b600080604083850312156200013557600080fd5b505080516020909101519092909150565b60805160a05161591262000196600039600081816109fc01528181612298015281816122ce015281816122f901526123290152600081816108fe01528181612274015261235401526159126000f3fe6080604052600436106103815760003560e01c80638afceb39116101d1578063d547741f11610102578063e58378bb116100a0578063f5bcde9a1161006f578063f5bcde9a14610b6a578063f6a40e9714610b7f578063f81cccbe14610b9f578063fb0ce18514610bbf57600080fd5b8063e58378bb14610abc578063e9271bd314610af0578063f21c69bb14610b10578063f25b39df14610b3d57600080fd5b8063dcefed85116100dc578063dcefed8514610a3a578063e0d16c3214610a67578063e393635514610a87578063e5406dbf14610aa757600080fd5b8063d547741f146109ca578063d8ba3637146109ea578063db1533aa14610a1e57600080fd5b8063a8d1eae71161016f578063be71f8a411610149578063be71f8a41461093c578063c0fd22b714610968578063caa345531461097d578063cd12bf621461099d57600080fd5b8063a8d1eae7146108d7578063b045009c146108ec578063bc327e401461092057600080fd5b8063999e3614116101ab578063999e361414610854578063a217fddf14610875578063a2b096e41461088a578063a33dc5e7146108aa57600080fd5b80638afceb39146107a557806391d14854146107ee57806391dfe78f1461083457600080fd5b80633b880652116102b6578063781e0432116102545780637ff48afb116102235780637ff48afb1461073d5780638188f468146107505780638456cb59146107705780638666c0a91461078557600080fd5b8063781e0432146106b25780637ba3e7ae146106ed5780637baf7118146107035780637d036b271461071f57600080fd5b80635437988d116102905780635437988d146106235780635ad1def3146106435780635c975abb1461067357806360a8b18a1461069257600080fd5b80633b880652146105cc5780633f4ba83a146105ee5780634354021e1461060357600080fd5b806320825443116103235780632b7ac3f3116102fd5780632b7ac3f3146105365780632f2ff15d1461055457806336568abe1461057457806336ce0a921461059457600080fd5b806320825443146104b157806320df4359146104d1578063248a9ca31461050557600080fd5b806305d1fe4c1161035f57806305d1fe4c1461041a5780630ceee68c1461043d57806312a53623146104755780631ab9c6031461049b57600080fd5b806301ffc9a71461038657806302f6ccd4146103bb57806303561119146103ed575b600080fd5b34801561039257600080fd5b506103a66103a13660046150e5565b610bdf565b60405190151581526020015b60405180910390f35b3480156103c757600080fd5b5060025460d081901c6103ff90811660c09290921c16015b6040519081526020016103b2565b3480156103f957600080fd5b506103df610408366004615127565b600e6020526000908152604090205481565b34801561042657600080fd5b5061042f610c78565b6040516103b2929190615140565b34801561044957600080fd5b50600a5461045d906001600160a01b031681565b6040516001600160a01b0390911681526020016103b2565b610499610483366004615127565b6000908152600d60205260409020805434019055565b005b3480156104a757600080fd5b506103df60095481565b3480156104bd57600080fd5b506104996104cc36600461520d565b610d7f565b3480156104dd57600080fd5b506103df7fbf233dd2aafeb4d50879c4aa5c81e96d92f6e6945c906a58f9f2d1c1631b4b2681565b34801561051157600080fd5b506103df610520366004615127565b6000908152600160208190526040909120015490565b34801561054257600080fd5b506002546001600160a01b031661045d565b34801561056057600080fd5b5061049961056f366004615285565b610df3565b34801561058057600080fd5b5061049961058f366004615285565b610e1e565b3480156105a057600080fd5b506103df6105af366004615285565b600760209081526000928352604080842090915290825290205481565b3480156105d857600080fd5b506105e1610eaf565b6040516103b291906152ec565b3480156105fa57600080fd5b50610499610f12565b34801561060f57600080fd5b5061049961061e366004615310565b61102f565b34801561062f57600080fd5b5061049961063e366004615387565b611192565b34801561064f57600080fd5b506103a661065e366004615387565b600b6020526000908152604090205460ff1681565b34801561067f57600080fd5b50600254600160e81b900460ff166103a6565b34801561069e57600080fd5b5061045d6106ad366004615127565b61127f565b3480156106be57600080fd5b506103a66106cd3660046153a2565b600860209081526000928352604080842090915290825290205460ff1681565b3480156106f957600080fd5b506103df60105481565b34801561070f57600080fd5b5060025460c01c6103ff166103df565b34801561072b57600080fd5b5060025460a01c63ffffffff166103df565b61049961074b3660046153cc565b611320565b34801561075c57600080fd5b506103a661076b366004615127565b611536565b34801561077c57600080fd5b50610499611dac565b34801561079157600080fd5b506104996107a03660046153a2565b611eb7565b3480156107b157600080fd5b506107d96107c0366004615127565b600c602052600090815260409020805460019091015482565b604080519283526020830191909152016103b2565b3480156107fa57600080fd5b506103a6610809366004615285565b60009182526001602090815260408084206001600160a01b0393909316845291905290205460ff1690565b34801561084057600080fd5b5061049961084f366004615417565b6120c7565b34801561086057600080fd5b50600a546103a690600160a01b900460ff1681565b34801561088157600080fd5b506103df600081565b34801561089657600080fd5b506104996108a536600461544e565b6121b0565b3480156108b657600080fd5b506103df6108c5366004615127565b60066020526000908152604090205481565b3480156108e357600080fd5b506004546103df565b3480156108f857600080fd5b506103df7f000000000000000000000000000000000000000000000000000000000000000081565b34801561092c57600080fd5b50604051600181526020016103b2565b34801561094857600080fd5b5061095161226d565b6040805192151583526020830191909152016103b2565b34801561097457600080fd5b506003546103df565b34801561098957600080fd5b50610499610998366004615387565b612385565b3480156109a957600080fd5b506103df6109b8366004615127565b60056020526000908152604090205481565b3480156109d657600080fd5b506104996109e5366004615285565b612438565b3480156109f657600080fd5b506103df7f000000000000000000000000000000000000000000000000000000000000000081565b348015610a2a57600080fd5b5060025460d01c6103ff166103df565b348015610a4657600080fd5b506103df610a55366004615127565b600d6020526000908152604090205481565b348015610a7357600080fd5b5061045d610a82366004615127565b61245e565b348015610a9357600080fd5b50610499610aa2366004615127565b612498565b348015610ab357600080fd5b5061042f6124e3565b348015610ac857600080fd5b506103df7fb19546dff01e856fb3f010c267a7b1c60363cf8a4664e21cc89c26224620214e81565b348015610afc57600080fd5b50610499610b0b36600461546b565b6125e8565b348015610b1c57600080fd5b506103df610b2b366004615127565b600f6020526000908152604090205481565b348015610b4957600080fd5b506103df610b58366004615127565b6000908152600f602052604090205490565b348015610b7657600080fd5b506105e1612742565b348015610b8b57600080fd5b50610499610b9a3660046154d8565b61279e565b348015610bab57600080fd5b50610499610bba366004615569565b612a2d565b348015610bcb57600080fd5b50610499610bda3660046153a2565b612b98565b60007fffffffff0000000000000000000000000000000000000000000000000000000082167f7965db0b000000000000000000000000000000000000000000000000000000001480610c7257507f01ffc9a7000000000000000000000000000000000000000000000000000000007fffffffff000000000000000000000000000000000000000000000000000000008316145b92915050565b600454606090819060008167ffffffffffffffff811115610c9b57610c9b6155d5565b604051908082528060200260200182016040528015610cc4578160200160208202803683370190505b50905060005b82811015610d1557600f6000610ce1836001615601565b815260200190815260200160002054828281518110610d0257610d02615619565b6020908102919091010152600101610cca565b5060048181805480602002602001604051908101604052809291908181526020018280548015610d6e57602002820191906000526020600020905b81546001600160a01b03168152600190910190602001808311610d50575b505050505091509350935050509091565b600254600160e81b900460ff1615610daa57604051632a6ab56360e21b815260040160405180910390fd5b60408051858152602081018590523381830152905186917fb92710e3fad9222f817fcd828bd1ce3612ad0cd1c8bd5f3a3f4b8d85c4444621919081900360600190a25050505050565b60008281526001602081905260409091200154610e0f81612d85565b610e198383612d92565b505050565b6001600160a01b0381163314610ea15760405162461bcd60e51b815260206004820152602f60248201527f416363657373436f6e74726f6c3a2063616e206f6e6c792072656e6f756e636560448201527f20726f6c657320666f722073656c66000000000000000000000000000000000060648201526084015b60405180910390fd5b610eab8282612e19565b5050565b60606000610ec7600060025460c01c6103ff16905090565b9050604051915080825260208102602001820160405260056020526020820160005b82811015610f0c5760008181526040902054825260209190910190600101610ee9565b50505090565b600254600160e81b900460ff16610f55576040517f395fbd0500000000000000000000000000000000000000000000000000000000815260040160405180910390fd5b7fb19546dff01e856fb3f010c267a7b1c60363cf8a4664e21cc89c26224620214e610f7f81612d85565b600060028054600160e01b900460ff1690811115610f9f57610f9f61562f565b14610fbd57604051631e7b117d60e01b815260040160405180910390fd5b600280547fffff0000ffffffffffffffffffffffffffffffffffffffffffffffffffffffff16600160e11b1790556040513381527f5db9ee0a495bf2e6ff9c91a7834c1ba4fdd244a5e8aa4e537bd38aeae4b073aa906020015b60405180910390a1506002805460ff60e01b19169055565b600254600160e81b900460ff161561105a57604051632a6ab56360e21b815260040160405180910390fd5b600060028054600160e01b900460ff169081111561107a5761107a61562f565b1461109857604051631e7b117d60e01b815260040160405180910390fd5b6002805460ff60e01b1916600160e11b1790556110b789888a89612e9c565b60006110c28a61127f565b6040517f8fcbaf0c0000000000000000000000000000000000000000000000000000000081526001600160a01b038a8116600483015230602483015260448201899052606482018890526001608483015260ff871660a483015260c4820186905260e4820185905291925090821690638fcbaf0c9061010401600060405180830381600087803b15801561115557600080fd5b505af1158015611169573d6000803e3d6000fd5b505050506111798189308c612f00565b50506002805460ff60e01b191690555050505050505050565b7fb19546dff01e856fb3f010c267a7b1c60363cf8a4664e21cc89c26224620214e6111bc81612d85565b600060028054600160e01b900460ff16908111156111dc576111dc61562f565b146111fa57604051631e7b117d60e01b815260040160405180910390fd5b600280546001600160a01b0384167fffffff00ffffffffffffffff00000000000000000000000000000000000000009091168117600160e11b179091556040517fd24015cc99cc1700cafca3042840a1d8ac1e3964fd2e0e37ea29c654056ee32790600090a2600280546000919060ff60e01b1916600160e01b835b02179055505050565b6000631fffffff8211156112a657604051630104ef3360e21b815260040160405180910390fd5b816112b357506000919050565b600060036112c2600185615645565b815481106112d2576112d2615619565b6000918252602090912001546001600160a01b0316905080610c72576040517ffc3be2bc00000000000000000000000000000000000000000000000000000000815260040160405180910390fd5b600254600160e81b900460ff161561134b57604051632a6ab56360e21b815260040160405180910390fd5b600060028054600160e01b900460ff169081111561136b5761136b61562f565b1461138957604051631e7b117d60e01b815260040160405180910390fd5b6002805460ff60e01b1916600160e11b179055831580156113aa5750823414155b156113e1576040517ff2be5ced00000000000000000000000000000000000000000000000000000000815260040160405180910390fd5b83158015906113ef57503415155b15611426576040517fd08ba85b00000000000000000000000000000000000000000000000000000000815260040160405180910390fd5b61143284838584612e9c565b83156115155760006114438561127f565b6040517fdd62ed3e00000000000000000000000000000000000000000000000000000000815233600482015230602482015290915084906001600160a01b0383169063dd62ed3e90604401602060405180830381865afa1580156114ab573d6000803e3d6000fd5b505050506040513d601f19601f820116820180604052508101906114cf919061565c565b1015611507576040517f7bf8af0300000000000000000000000000000000000000000000000000000000815260040160405180910390fd5b61151381333087612f00565b505b600280546000919060ff60e01b1916600160e01b835b021790555050505050565b600254600090600160e81b900460ff161561156457604051632a6ab56360e21b815260040160405180910390fd5b600254600160e01b900460ff1660018160028111156115855761158561562f565b141561196e576000838152600c602052604090208054600190910154816115d8576040517f973e3ae300000000000000000000000000000000000000000000000000000000815260040160405180910390fd5b60006115e383612f98565b90506000806000806115f5858b613209565b60046000527f8a35acfbc15ff81a39ae7d344fd709f28e8600b4aa8c65c6b64bfe7fe36bd19a63ffffffff8c160154939750919550935091506001600160a01b03168061166e576040517fbb65988600000000000000000000000000000000000000000000000000000000815260040160405180910390fd5b6000600c60008d815260200190815260200160002060000181905550600060405180606001604052808981526020018d81526020018860c0015167ffffffffffffffff1681525090506000806000846001600160a01b0316639b07d3428a8a8a8a89602001518a604001516040518763ffffffff1660e01b81526004016116fa969594939291906156ba565b6060604051808303816000875af1158015611719573d6000803e3d6000fd5b505050506040513d601f19601f8201168201806040525081019061173d9190615714565b92509250925080611773575050506020908101516000908152600c909152604081209890985550959750611da695505050505050565b60008211801561179857506000866040015160038111156117965761179661562f565b145b156117d2576040517f26e939c600000000000000000000000000000000000000000000000000000000815260048101839052602401610e98565b821580156117de575081155b156117fc576117f7858a866000015187602001516134ef565b61181c565b61180c85888587602001516134ef565b61181c85878487602001516134ef565b6000845160208601516000851460008714161592506040518f81528160208201528260408201528660608201528560808201528360a08201526020600060c08360025afa507f30644e72e131a029b85045b68181585d2833e84879b9709143e1f593f000000160005106925060025491508160c01c6103ff168260d01c6103ff1661020081836001010111156118bb57632c52558760e11b8352600483fd5b5080600052600560205283604060002055826103ff60c01b191693506001810160c01b84179350505050806002555084602001518d7f692cf5822a02f5edf084dc7249b3a06293621e069f11975ed70908ed10ed2e2c87600001518787866040516119509493929190938452602084019290925260408301521515606082015260a06080820181905260009082015260c00190565b60405180910390a360019e5050505050505050505050505050611da6565b60008160028111156119825761198261562f565b1415611d8d576002805460ff60e01b1916600160e01b1790556000838152600c60205260409020805460019190910154816119e9576040517f973e3ae300000000000000000000000000000000000000000000000000000000815260040160405180910390fd5b60006119f483612f98565b9050600080600080611a06858b613209565b60046000527f8a35acfbc15ff81a39ae7d344fd709f28e8600b4aa8c65c6b64bfe7fe36bd19a63ffffffff8c160154939750919550935091506001600160a01b031680611a7f576040517fbb65988600000000000000000000000000000000000000000000000000000000815260040160405180910390fd5b6000600c60008d815260200190815260200160002060000181905550600060405180606001604052808981526020018d81526020018860c0015167ffffffffffffffff1681525090506000806000846001600160a01b0316639b07d3428a8a8a8a89602001518a604001516040518763ffffffff1660e01b8152600401611b0b969594939291906156ba565b6060604051808303816000875af1158015611b2a573d6000803e3d6000fd5b505050506040513d601f19601f82011682018060405250810190611b4e9190615714565b92509250925080611b84575050506020908101516000908152600c909152604081209890985550959750611d7b95505050505050565b600082118015611ba95750600086604001516003811115611ba757611ba761562f565b145b15611be3576040517f26e939c600000000000000000000000000000000000000000000000000000000815260048101839052602401610e98565b82158015611bef575081155b15611c0d57611c08858a866000015187602001516134ef565b611c2d565b611c1d85888587602001516134ef565b611c2d85878487602001516134ef565b6000845160208601516000851460008714161592506040518f81528160208201528260408201528660608201528560808201528360a08201526020600060c08360025afa507f30644e72e131a029b85045b68181585d2833e84879b9709143e1f593f000000160005106925060025491508160c01c6103ff168260d01c6103ff166102008183600101011115611ccc57632c52558760e11b8352600483fd5b5080600052600560205283604060002055826103ff60c01b191693506001810160c01b84179350505050806002555084602001518d7f692cf5822a02f5edf084dc7249b3a06293621e069f11975ed70908ed10ed2e2c8760000151878786604051611d619493929190938452602084019290925260408301521515606082015260a06080820181905260009082015260c00190565b60405180910390a360019e50505050505050505050505050505b6002805460ff60e01b19169055611da6565b604051631e7b117d60e01b815260040160405180910390fd5b50919050565b600254600160e81b900460ff1615611dd757604051632a6ab56360e21b815260040160405180910390fd5b7fbf233dd2aafeb4d50879c4aa5c81e96d92f6e6945c906a58f9f2d1c1631b4b26611e0181612d85565b600060028054600160e01b900460ff1690811115611e2157611e2161562f565b14611e3f57604051631e7b117d60e01b815260040160405180910390fd5b600280547fffff0000ffffffffffffffffffffffffffffffffffffffffffffffffffffffff167d0102000000000000000000000000000000000000000000000000000000001790556040513381527f62e78cea01bee320cd4e420270b5ea74000d11b0c9f74754ebdbfc544b05a25890602001611017565b600254600160e81b900460ff1615611ee257604051632a6ab56360e21b815260040160405180910390fd5b3360009081527fe05121899e4c04c40b7e0a2a39dcba2d093af16d5fdca78c38e106d157d2aad3602052604090205460ff16158015611f2b5750600a54600160a01b900460ff16155b15611f62576040517f11d74fb800000000000000000000000000000000000000000000000000000000815260040160405180910390fd5b600060028054600160e01b900460ff1690811115611f8257611f8261562f565b14611fa057604051631e7b117d60e01b815260040160405180910390fd5b6002805460ff60e01b1916600160e11b1790556001600160a01b038216611ff3576040517f146bdfa900000000000000000000000000000000000000000000000000000000815260040160405180910390fd5b6004805460018101825560008290527f8a35acfbc15ff81a39ae7d344fd709f28e8600b4aa8c65c6b64bfe7fe36bd19b01805473ffffffffffffffffffffffffffffffffffffffff19166001600160a01b03851617905554612054826135aa565b6000828152600f602052604090819020829055516001600160a01b0385169183917f0e62be7fe47a9095143143f8ee61bab3ade27b661223fed33e16122ffe1f284d916120a49190815260200190565b60405180910390a350600280546000919060ff60e01b1916600160e01b83611276565b7fb19546dff01e856fb3f010c267a7b1c60363cf8a4664e21cc89c26224620214e6120f181612d85565b600060028054600160e01b900460ff16908111156121115761211161562f565b1461212f57604051631e7b117d60e01b815260040160405180910390fd5b6002805460ff60e01b1916600160e11b1790556001600160a01b0383166000818152600b6020908152604091829020805460ff1916861515908117909155825190815291517f46359ce9dbb6c7f9a375b44072210287916d3de725fc8927a8e762047e4a84249281900390910190a250506002805460ff60e01b1916905550565b7fb19546dff01e856fb3f010c267a7b1c60363cf8a4664e21cc89c26224620214e6121da81612d85565b600060028054600160e01b900460ff16908111156121fa576121fa61562f565b1461221857604051631e7b117d60e01b815260040160405180910390fd5b6002805460ff60e01b1916600160e11b81178255600a80547fffffffffffffffffffffff00ffffffffffffffffffffffffffffffffffffffff16600160a01b8615150217905560009190600160e01b83611276565b60008043817f00000000000000000000000000000000000000000000000000000000000000006122bd7f000000000000000000000000000000000000000000000000000000000000000084615763565b1015905060008115612324576122f37f000000000000000000000000000000000000000000000000000000000000000084615763565b61231d907f0000000000000000000000000000000000000000000000000000000000000000615645565b905061237b565b61234e7f000000000000000000000000000000000000000000000000000000000000000084615763565b612378907f0000000000000000000000000000000000000000000000000000000000000000615645565b90505b9094909350915050565b7fb19546dff01e856fb3f010c267a7b1c60363cf8a4664e21cc89c26224620214e6123af81612d85565b600060028054600160e01b900460ff16908111156123cf576123cf61562f565b146123ed57604051631e7b117d60e01b815260040160405180910390fd5b6002805460ff60e01b1916600160e11b81178255600a805473ffffffffffffffffffffffffffffffffffffffff19166001600160a01b03861617905560009190600160e01b83611276565b6000828152600160208190526040909120015461245481612d85565b610e198383612e19565b6000600461246d600184615645565b8154811061247d5761247d615619565b6000918252602090912001546001600160a01b031692915050565b600254600160e81b900460ff16156124c357604051632a6ab56360e21b815260040160405180910390fd5b336000526008602052604060002060205280600052600160406000205550565b600354606090819060008167ffffffffffffffff811115612506576125066155d5565b60405190808252806020026020018201604052801561252f578160200160208202803683370190505b50905060005b8281101561258057600e600061254c836001615601565b81526020019081526020016000205482828151811061256d5761256d615619565b6020908102919091010152600101612535565b5060038181805480602002602001604051908101604052809291908181526020018280548015610d6e576020028201919060005260206000209081546001600160a01b03168152600190910190602001808311610d5057505050505091509350935050509091565b600254600160e81b900460ff161561261357604051632a6ab56360e21b815260040160405180910390fd5b600060028054600160e01b900460ff16908111156126335761263361562f565b1461265157604051631e7b117d60e01b815260040160405180910390fd5b6002805460ff60e01b1916600160e11b17905561267088878988612e9c565b600061267b8961127f565b6040517fd505accf0000000000000000000000000000000000000000000000000000000081526001600160a01b038981166004830152306024830152604482018b90526064820188905260ff8716608483015260a4820186905260c482018590529192509082169063d505accf9060e401600060405180830381600087803b15801561270657600080fd5b505af115801561271a573d6000803e3d6000fd5b5050505061272a8188308b612f00565b50506002805460ff60e01b1916905550505050505050565b6060600061275a600060025460d01c6103ff16905090565b90506040519150808252602081026020018201604052600660205260208201600082811015610f0c5760008181526040902054825260209190910190600101610ee9565b6001600054610100900460ff161580156127bf575060005460ff8083169116105b6128315760405162461bcd60e51b815260206004820152602e60248201527f496e697469616c697a61626c653a20636f6e747261637420697320616c72656160448201527f647920696e697469616c697a65640000000000000000000000000000000000006064820152608401610e98565b600080547fffffffffffffffffffffffffffffffffffffffffffffffffffffffffffff00001660ff83161761010017815561286c9088612d92565b6128967fb19546dff01e856fb3f010c267a7b1c60363cf8a4664e21cc89c26224620214e88612d92565b6128c07fbf233dd2aafeb4d50879c4aa5c81e96d92f6e6945c906a58f9f2d1c1631b4b2688612d92565b60408051600080825260208083018a9052828401899052606083018890527f2e4ab7889ab3139204945f9e722c7a8fdb84e66439d787bd066c3d896dba04ea608084015260a0909220600955600280547fffffffffffffffff00000000000000000000000000000000000000000000000016600160a01b63ffffffff8916810273ffffffffffffffffffffffffffffffffffffffff1916919091176001600160a01b038f811691909117909255600a8054928e167fffffffffffffffffffffff000000000000000000000000000000000000000000909316929092178715159091021790557f14e0f351ade4ba10438e9b15f66ab2e6389eea5ae870d6e8b2df1418b2e6fd5b60105580547fffffffffffffffffffffffffffffffffffffffffffffffffffffffffffff00ff169055905160ff831681527f7f26b83ff96e1f2b6a682f133852f6798a09c465da95921460cefb3847402498910160405180910390a1505050505050505050565b600254600160e81b900460ff1615612a5857604051632a6ab56360e21b815260040160405180910390fd5b600060028054600160e01b900460ff1690811115612a7857612a7861562f565b14612a9657604051631e7b117d60e01b815260040160405180910390fd5b6002805460ff60e01b1916600160e01b1790556000612ab361226d565b50336000908152600b602052604090205490915060ff1680612ad25750805b612b08576040517f83633aab00000000000000000000000000000000000000000000000000000000815260040160405180910390fd5b6000806000612b156135d8565b9250925092506000612b2684613974565b9050612b6d8488888080601f016020809104026020016040519081016040528093929190818152602001838380828437600092019190915250889250879150869050613993565b612b7784826139fd565b5050600280546000945090925060ff60e01b19169050600160e01b8361152b565b600254600160e81b900460ff1615612bc357604051632a6ab56360e21b815260040160405180910390fd5b3360009081527fe05121899e4c04c40b7e0a2a39dcba2d093af16d5fdca78c38e106d157d2aad3602052604090205460ff16158015612c0c5750600a54600160a01b900460ff16155b15612c43576040517f11d74fb800000000000000000000000000000000000000000000000000000000815260040160405180910390fd5b600060028054600160e01b900460ff1690811115612c6357612c6361562f565b14612c8157604051631e7b117d60e01b815260040160405180910390fd5b6002805460ff60e01b1916600160e11b1790556001600160a01b038216612cd4576040517f6e93a72400000000000000000000000000000000000000000000000000000000815260040160405180910390fd5b6003805460018101825560008290527fc2575a0e9e593c00f959f8c92f12db2869c3395a3b0502d05e2516446f71f85b01805473ffffffffffffffffffffffffffffffffffffffff19166001600160a01b03851617905554612d3582613a82565b6000828152600e602052604090819020829055516001600160a01b0385169183917f85ac039d1da307b778050ca29271ac915424bac011342c9452960f6679b18ff0916120a49190815260200190565b612d8f8133613aac565b50565b60008281526001602090815260408083206001600160a01b038516845290915290205460ff16610eab5760008281526001602081815260408084206001600160a01b0386168086529252808420805460ff19169093179092559051339285917f2f8788117e7eff1d82e926ec794901d17c78024a50270940304540a733656f0d9190a45050565b60008281526001602090815260408083206001600160a01b038516845290915290205460ff1615610eab5760008281526001602090815260408083206001600160a01b0385168085529252808320805460ff1916905551339285917ff6391f5c32d9c69d2a47ea670b442974b53935d1edc7fd64eb21e047a839171b9190a45050565b612ea7848484613b21565b8015612eb657612eb681612498565b826001600160a01b0316847feaa18152488ce5959073c9c79c88ca90b3d96c00de1f118cfaad664c3dab06b984604051612ef291815260200190565b60405180910390a350505050565b6040517f23b872dd000000000000000000000000000000000000000000000000000000008152836004820152826024820152816044820152843b612f68577f214092720000000000000000000000000000000000000000000000000000000060005260046000fd5b602060006064836000895af190506001600051163d1517808216612f90573d6000803e3d6000fd5b505050505050565b604080516101c081018252600060208083018290526101a083019190915263ffffffff8416808352633fffffff9185901c821693830193909352603e84901c81166060830152605c84901c81166080830152607a84901c1660a082015267ffffffffffffffff60b884901c1660c08201526001603d84901c811660e0830152605b84901c8116610100830152607984901c8116610120830152609784901c8116610140830152609884901c81168114610160830152609984901c81168114610180830152909160049161306a91615645565b8154811061307a5761307a615619565b6000918252602080832091909101546001600160a01b03168382015282518252600f905260409020546101a08201526101608101511580156130c0575060008160600151115b156130f7576040517f3448066300000000000000000000000000000000000000000000000000000000815260040160405180910390fd5b80610180015115801561310e575060008160a00151115b15613145576040517f3448066300000000000000000000000000000000000000000000000000000000815260040160405180910390fd5b806101600151801561315e575080606001518160400151145b1561319d5780604001516040517f760558e8000000000000000000000000000000000000000000000000000000008152600401610e9891815260200190565b600081610180015180156131b45750816101400151155b90508080156131ca57508160a001518260800151145b15611da65781608001516040517ff23e3f95000000000000000000000000000000000000000000000000000000008152600401610e9891815260200190565b61322a60408051606081018252600080825260208201819052909182015290565b61324b60408051606081018252600080825260208201819052909182015290565b61326c60408051606081018252600080825260208201819052909182015290565b61328d60408051606081018252600080825260208201819052909182015290565b8560e00151156132c057632000000086604001516132ab9190615645565b8452600060208501526003604085015261331e565b6040860180518552516132d29061127f565b6001600160a01b031660208501819052156132ee5760026132f1565b60015b846040019060038111156133075761330761562f565b9081600381111561331a5761331a61562f565b9052505b8561012001511561333f57848252600060208301526003604083015261339d565b6080860180518352516133519061127f565b6001600160a01b0316602083018190521561336d576002613370565b60015b826040019060038111156133865761338661562f565b908160038111156133995761339961562f565b9052505b856101000151156133e757632000000086606001516133bc9190615645565b8352600060208401526040830160035b908160038111156133df576133df61562f565b90525061344b565b85610160015115613439576060860180518452516134049061127f565b6001600160a01b03166020840181905215613420576002613423565b60015b836040019060038111156133cc576133cc61562f565b60008084526020840181905260408401525b8561014001511561348257848152600060208201526040810160035b9081600381111561347a5761347a61562f565b9052506134e6565b856101800151156134d45760a08601805182525161349f9061127f565b6001600160a01b031660208201819052156134bb5760026134be565b60015b816040019060038111156134675761346761562f565b60008082526020820181905260408201525b92959194509250565b816134f9576135a4565b6001836040015160038111156135115761351161562f565b1415613573576000818152600d602052604090205482111561355f576040517fcbbf6eca00000000000000000000000000000000000000000000000000000000815260040160405180910390fd5b6000818152600d60205260408120556135a4565b60028360400151600381111561358b5761358b61562f565b14156135a45760208301516135a281863086612f00565b505b50505050565b60006188b88210156135bf57506188b8919050565b624c4b408211156135d45750624c4b40919050565b5090565b604080516101008082018352613b7d8252613b84602080840182905283850191909152613baf606084018190526080840181905260a0840181905260c0840152613bc460e084015283516111c46004359081013560448201359081046111c883013563ffffffff908116828104808402821415019092029096028481016111e0019098526111c08881018086529498919760009795968a01956024860195899485946150db949391926111cc013590911690888a376111c098909801976111a9888101988a97509091010193505b868411156136dc5760078735168089528060051b8301519350506136ce87898563ffffffff16565b9650610100880197506136a6565b505050506111c088810151604051600092828604808c048082028d1415019384900393909261010084029260043560240182376111c08101905060208202810191505b8181101561376e5760206000848960025afa61373a57600080fd5b6000517f30644e72e131a029b85045b68181585d2833e84879b9709143e1f593f0000001900681529582019560200161371f565b84156138eb576000925083602081146137ba57601081146137e2576040811461380a5760018114613832576002811461385a576004811461388257600881146138aa57600196506138ce565b7f0df0e06ab8a02ce2ff08babd7144ab23ca2e99ddf318080cf88602eeb8913d4493506138ce565b7f1c52c159b4dae66c3dcf33b44d4d61ead6bc4d260f882ac6ba34dccf78892ca493506138ce565b7f1f83672815ac9b3ca31732d641784035834e96b269eaf6a2e759bf4fcc8e5bfd93506138ce565b7f22dd983f8337d97d56071f7986209ab2ee6039a422242e89126701c6ee005af093506138ce565b7f076a27c79e5ace2a3d47f9dd2e83e4ff6ea8872b3c2218f66c92b89b55f3656093506138ce565b7f2f0c70a5bf5460465e9902f9c96be324e8064e762a5de52589fdb97cbce3c6ee93506138ce565b7f240ed0de145447ff0ceff2aa477f43e0e2ed7f3543ee3d8832f158ec76b183a993505b5060208502820191505b818110156138eb578281526020016138d8565b6040519450602060008683038760025afa61390557600080fd5b50505050507f30644e72e131a029b85045b68181585d2833e84879b9709143e1f593f00000016000510696508015613969576040517f3259ec1e00000000000000000000000000000000000000000000000000000000815260040160405180910390fd5b505050505050909192565b6111a08101516001600160a01b0381111561398e57600080fd5b919050565b600061399f8684613bf8565b90506139ac868587613cb2565b60006139b88784613d7a565b9050817f14054a15b39bfd65ec00fc6d15c7e5f9cbc1dc6f452cbefa359b4da61ad89fb682336040516139ec929190615785565b60405180910390a250505050505050565b60005b6010811015610e19576000613a1c848360200201610b80015190565b90508015613a79576000613a30858461429e565b905080613a4957600080600080858861c350f150613a77565b6000613a548261127f565b9050613a75818685600e6000878152602001908152602001600020546142ba565b505b505b50600101613a00565b600061d6d8821015613a97575061d6d8919050565b6216e3608211156135d457506216e360919050565b60008281526001602090815260408083206001600160a01b038516845290915290205460ff16610eab57613adf8161430a565b613aea83602061431c565b604051602001613afb9291906157dc565b60408051601f198184030181529082905262461bcd60e51b8252610e989160040161585d565b82631fffffff811115613b4757604051630104ef3360e21b815260040160405180910390fd5b8360005260076020526040600020602052826000526040600020805483810181811015613b7357600080fd5b9091555050505050565b5060010190565b600060a0602084016020840137601460c0840160cc840137600460d4840160fc840137505060b90190565b60006080602084016020840137505060810190565b60006040517fd0426f7b00000000000000000000000000000000000000000000000000000000815260040160405180910390fd5b60405160009063ffffffff600480356111cc810135929092168083016111ec01939290910135037fffffffffffffffffffffffffffffffffffffffffffffffffffffffffffffee38019060ac815360316001820153608c6002820153605d600382015360406004820152846024820152816044820152818360648301376001600160a01b036002541692506000806064840183865afa9250505080613ca1573d6000803e3d6000fd5b50613cab83614545565b9392505050565b60006111e08085019061010085028601015b80821015612f905760a08201518015613d6d57825160e084015160c08501516001831415613d555761010086206001600160a01b038216600090815260086020908152604080832084845290915290205460ff16613d48578888018051606082526000613d30846146f8565b9050613d3d818487614811565b509052606097909701965b613d5383838761495d565b505b8260021415613d6957613d698482846149de565b5050505b6101008301925050613cc4565b6060600080613d8b85611180015190565b90506010548114613dd6576010546040517f88011dd6000000000000000000000000000000000000000000000000000000008152610e98918391600401918252602082015260400190565b6000613de0614a87565b9093509050613def8184615645565b600280547ffffffffffc00ffffffffffffffffffffffffffffffffffffffffffffffffffff1660d083901b179055602087810151919450600093509150613e369190615890565b6040805160808082018352600080835260208301819052828401819052606090920182905282519081019092529192506101808701915b60208110156141d057825180613e8357506141d0565b61040084015180613ec0576040517fb246041300000000000000000000000000000000000000000000000000000000815260040160405180910390fd5b6000613ecb83612f98565b9050600080600080613edd858c613209565b93509350935093506040517f4bd947a800000000000000000000000000000000000000000000000000000000815260048101905060208601518082525084516020820152602085015160408201526040850151606082015283516080820152602084015160a0820152604084015160c0820152825160e082015260208301516101008201526040830151610120820152815161014082015260208201516101608201526040820151610180820152866101a08201528b6101c082015260c0860151806101e083015250600d6102008201528e61022082015260008061024460048403600a546101a08b0151f43d6000833e8060018114613ff55760008c52600060208d0152600060408d0152600060608d0152614015565b82518c52602083015160208d0152604083015160408d0152600160608d01525b50505084610180015161402a57600060208a01525b60408901516001811461416a576040518781528a51602082015260208b0151604082015260608b0151606082015260a0608082015260608b01511561409857600060a08201528c897f692cf5822a02f5edf084dc7249b3a06293621e069f11975ed70908ed10ed2e2c60c084a35b60608b01516140f2573d60a08201523d602081066020038115150281600060c085013e60008260c0018401528e8b7f692cf5822a02f5edf084dc7249b3a06293621e069f11975ed70908ed10ed2e2c83850160c00186a350505b8881528c60208201528760408201528a51606082015260208b0151608082015260608b015160a08201526020600060c08360025afa50507f30644e72e131a029b85045b68181585d2833e84879b9709143e1f593f0000001600051068d6000526006602052806040600020555060018d019c506141b1565b6040518781528c897f38ce48f4c2f3454bcf130721f25a4262b2ff2c8e36af937b30edf01ba481eb1d602084a3508b600052600c6020526040600020888155876001820155505b5060018b019a5060208a01995087600101975050505050505050613e6d565b506002548060c01c6103ff166103ff8682011180156141fa57632c52558760e11b60005260046000fd5b506040516006602052600560605260005b8281101561422f57878101600090815260408281528080205491205560010161420b565b506040527ffffffffffffffc00ffffffffffffffffffffffffffffffffffffffffffffffff90860160d01b167ffffffffffc00fc00ffffffffffffffffffffffffffffffffffffffffffffffff9091161760025560008061428e614aa9565b6010559998505050505050505050565b602081028201610980015163ffffffff811115610c7257600080fd5b5a81156142c45750805b6040517fa9059cbb00000000000000000000000000000000000000000000000000000000815284600482015283602482015260008060448360008a87f150505050505050565b6060610c726001600160a01b03831660145b6060600061432b836002615890565b614336906002615601565b67ffffffffffffffff81111561434e5761434e6155d5565b6040519080825280601f01601f191660200182016040528015614378576020820181803683370190505b5090507f3000000000000000000000000000000000000000000000000000000000000000816000815181106143af576143af615619565b60200101907effffffffffffffffffffffffffffffffffffffffffffffffffffffffffffff1916908160001a9053507f78000000000000000000000000000000000000000000000000000000000000008160018151811061441257614412615619565b60200101907effffffffffffffffffffffffffffffffffffffffffffffffffffffffffffff1916908160001a905350600061444e846002615890565b614459906001615601565b90505b60018111156144f6577f303132333435363738396162636465660000000000000000000000000000000085600f166010811061449a5761449a615619565b1a60f81b8282815181106144b0576144b0615619565b60200101907effffffffffffffffffffffffffffffffffffffffffffffffffffffffffffff1916908160001a90535060049490941c936144ef816158af565b905061445c565b508315613cab5760405162461bcd60e51b815260206004820181905260248201527f537472696e67733a20686578206c656e67746820696e73756666696369656e746044820152606401610e98565b60008060008060008061455787614b85565b9450945094509450945060095484146145a6576040517f34fddf400000000000000000000000000000000000000000000000000000000081526004810185905260248101849052604401610e98565b60025463ffffffff600160a01b909104811690831681816145c9576145c961574d565b0663ffffffff1660001415614632578063ffffffff168263ffffffff161461462d576040517f7861e6c600000000000000000000000000000000000000000000000000000000815263ffffffff808416600483015282166024820152604401610e98565b6146ac565b60008363ffffffff168263ffffffff168161464f5761464f61574d565b068483010363ffffffff169050808363ffffffff16146146aa576040517f7861e6c600000000000000000000000000000000000000000000000000000000815263ffffffff8416600482015260248101829052604401610e98565b505b506009929092556002805463ffffffff9390920192909216600160a01b027fffffffffffffffff00000000ffffffffffffffffffffffffffffffffffffffff9091161790555092915050565b60008061470483614c2e565b90506040517f19457468657265756d205369676e6564204d6573736167653a0a32313000000060208201527f5369676e696e672074686973206d6573736167652077696c6c20616c6c6f7720603d8201527f796f75722070656e64696e672066756e647320746f206265207370656e742069605d8201527f6e20417a746563207472616e73616374696f6e3a0a0a30780000000000000000607d82015260208201516095820152604082015160b58201527f0a0a494d504f5254414e543a204f6e6c79207369676e20746865206d6573736160d58201527f676520696620796f752074727573742074686520636c69656e7400000000000060f582015260ef602082012092505050919050565b6000806001600160a01b038316614854576040517fd57e351000000000000000000000000000000000000000000000000000000000815260040160405180910390fd5b8351858552606085015160408601518060608801526020870151604088015281602088015260208760808960015afa601c8314601b84141760608514167f7fffffffffffffffffffffffffffffff5d576e7357a4501ddfe92f46681b20a1831016169450505084518614600081146148cb576148d0565b855192505b508452801519919091169081614912576040517f8a3e28aa00000000000000000000000000000000000000000000000000000000815260040160405180910390fd5b826001600160a01b0316816001600160a01b0316146135a2576040517fa3402a3800000000000000000000000000000000000000000000000000000000815260040160405180910390fd5b82631fffffff81111561498357604051630104ef3360e21b815260040160405180910390fd5b600084815260076020908152604080832090915284825290208054838103909155821180156135a2576040517f8e8af4f900000000000000000000000000000000000000000000000000000000815260040160405180910390fd5b80631fffffff811115614a0457604051630104ef3360e21b815260040160405180910390fd5b6001600160a01b038316614a44576040517f6df19fea00000000000000000000000000000000000000000000000000000000815260040160405180910390fd5b81614a5b576000806000808787617530f1506135a4565b6000614a668361127f565b90506135a2818587600e6000888152602001908152602001600020546142ba565b6002546103ff60d082901c169081906020821115614aa457602091505b509091565b60606000806000614ab8614a87565b90925090506000614ac98284615645565b90506040519450602085016020610400018601604052828652600660205260005b83811015614b0e578281016000908152604090205460208202830152600101614aea565b5b6020811015614b48577f2d25a1e3a51eb293004c4b56abe12ed0da6bca2b4a21936752a85d102593c1b460208202830152600101614b0f565b50602060006104008360025afa50507f30644e72e131a029b85045b68181585d2833e84879b9709143e1f593f00000016000510693505050509091565b604081015160608201516000918291829160011b906020860163ffffffff8084119083111715614bb457600080fd5b805195506040518681526060820151602082015260a0820151604082015260e08201516060820152610120820151608082015260a0812095506001870181526080820151602082015260c082015160408201526101008201516060820152610140820151608082015260a081209450505091939590929450565b606081614c96576040519050604081527f303030303030303030303030303030303030303030303030303030303030303060208201527f3030303030303030303030303030303030303030303030303030303030303030604082015260608101604052919050565b506040517f3030303130323033303430353036303730383039306130623063306430653066607e8201527f3130313131323133313431353136313731383139316131623163316431653166609e8201527f323032313232323332343235323632373238323932613262326332643265326660be8201527f333033313332333333343335333633373338333933613362336333643365336660de8201527f343034313432343334343435343634373438343934613462346334643465346660fe8201527f353035313532353335343535353635373538353935613562356335643565356661011e8201527f363036313632363336343635363636373638363936613662366336643665366661013e8201527f373037313732373337343735373637373738373937613762376337643765376661015e8201527f383038313832383338343835383638373838383938613862386338643865386661017e8201527f393039313932393339343935393639373938393939613962396339643965396661019e8201527f61306131613261336134613561366137613861396161616261636164616561666101be8201527f62306231623262336234623562366237623862396261626262636264626562666101de8201527f63306331633263336334633563366337633863396361636263636364636563666101fe8201527f643064316432643364346435643664376438643964616462646364646465646661021e8201527f653065316532653365346535653665376538653965616562656365646565656661023e8201527f663066316632663366346635663666376638663966616662666366646665666661025e820152606081018260408352600181901b6101fe908116830151601e52600782901c8116830151601c52600f82901c8116830151601a52601782901c8116830151601852601f82901c8116830151601652602782901c8116830151601452602f82901c8116830151601252603782901c8116830151601052603f82901c8116830151600e52604782901c8116830151600c52604f82901c8116830151600a52605782901c8116830151600852605f82901c8116830151600652606782901c8116830151600452606f82901c8116830151600252607782901c16820151600052601e51604084015260801c6150c582826101fe600182901b8116830151601e52600782901c8116830151601c52600f82901c8116830151601a52601782901c8116830151601852601f82901c8116830151601652602782901c8116830151601452602f82901c8116830151601252603782901c8116830151601052603f82901c8116830151600e52604782901c8116830151600c52604f82901c8116830151600a52605782901c8116830151600852605f82901c8116830151600652606782901c8116830151600452606f82901c811683015160025260779190911c160151600052565b5050601e51602082015260608101604052919050565b6150e36158c6565b565b6000602082840312156150f757600080fd5b81357fffffffff0000000000000000000000000000000000000000000000000000000081168114613cab57600080fd5b60006020828403121561513957600080fd5b5035919050565b604080825283519082018190526000906020906060840190828701845b828110156151825781516001600160a01b03168452928401929084019060010161515d565b5050508381038285015284518082528583019183019060005b818110156151b75783518352928401929184019160010161519b565b5090979650505050505050565b60008083601f8401126151d657600080fd5b50813567ffffffffffffffff8111156151ee57600080fd5b60208301915083602082850101111561520657600080fd5b9250929050565b60008060008060006080868803121561522557600080fd5b853594506020860135935060408601359250606086013567ffffffffffffffff81111561525157600080fd5b61525d888289016151c4565b969995985093965092949392505050565b80356001600160a01b038116811461398e57600080fd5b6000806040838503121561529857600080fd5b823591506152a86020840161526e565b90509250929050565b600081518084526020808501945080840160005b838110156152e1578151875295820195908201906001016152c5565b509495945050505050565b602081526000613cab60208301846152b1565b803560ff8116811461398e57600080fd5b60008060008060008060008060006101208a8c03121561532f57600080fd5b8935985060208a0135975061534660408b0161526e565b965060608a0135955060808a0135945060a08a0135935061536960c08b016152ff565b925060e08a013591506101008a013590509295985092959850929598565b60006020828403121561539957600080fd5b613cab8261526e565b600080604083850312156153b557600080fd5b6153be8361526e565b946020939093013593505050565b600080600080608085870312156153e257600080fd5b84359350602085013592506153f96040860161526e565b9396929550929360600135925050565b8015158114612d8f57600080fd5b6000806040838503121561542a57600080fd5b6154338361526e565b9150602083013561544381615409565b809150509250929050565b60006020828403121561546057600080fd5b8135613cab81615409565b600080600080600080600080610100898b03121561548857600080fd5b883597506020890135965061549f60408a0161526e565b955060608901359450608089013593506154bb60a08a016152ff565b925060c0890135915060e089013590509295985092959890939650565b600080600080600080600080610100898b0312156154f557600080fd5b6154fe8961526e565b975061550c60208a0161526e565b965061551a60408a0161526e565b9550606089013594506080890135935060a0890135925060c089013563ffffffff8116811461554857600080fd5b915060e089013561555881615409565b809150509295985092959890939650565b6000806000806040858703121561557f57600080fd5b843567ffffffffffffffff8082111561559757600080fd5b6155a3888389016151c4565b909650945060208701359150808211156155bc57600080fd5b506155c9878288016151c4565b95989497509550505050565b634e487b7160e01b600052604160045260246000fd5b634e487b7160e01b600052601160045260246000fd5b60008219821115615614576156146155eb565b500190565b634e487b7160e01b600052603260045260246000fd5b634e487b7160e01b600052602160045260246000fd5b600082821015615657576156576155eb565b500390565b60006020828403121561566e57600080fd5b5051919050565b805182526001600160a01b0360208201511660208301526040810151600481106156af57634e487b7160e01b600052602160045260246000fd5b806040840152505050565b6101c081016156c98289615675565b6156d66060830188615675565b6156e360c0830187615675565b6156f1610120830186615675565b8361018083015267ffffffffffffffff83166101a0830152979650505050505050565b60008060006060848603121561572957600080fd5b8351925060208401519150604084015161574281615409565b809150509250925092565b634e487b7160e01b600052601260045260246000fd5b60008261578057634e487b7160e01b600052601260045260246000fd5b500690565b60408152600061579860408301856152b1565b90506001600160a01b03831660208301529392505050565b60005b838110156157cb5781810151838201526020016157b3565b838111156135a45750506000910152565b7f416363657373436f6e74726f6c3a206163636f756e74200000000000000000008152600083516158148160178501602088016157b0565b7f206973206d697373696e6720726f6c652000000000000000000000000000000060179184019182015283516158518160288401602088016157b0565b01602801949350505050565b602081526000825180602084015261587c8160408501602087016157b0565b601f01601f19169190910160400192915050565b60008160001904831182151516156158aa576158aa6155eb565b500290565b6000816158be576158be6155eb565b506000190190565b634e487b7160e01b600052605160045260246000fdfea2646970667358221220d0eec204f6f27b21b3d16e32387b51c2748f24d3ac9c023f36cd2d66ca32edc164736f6c634300080a0033",
    "linkReferences": {}
  },
  "methodIdentifiers": {
    "DEFAULT_ADMIN_ROLE()": "a217fddf",
    "EMERGENCY_ROLE()": "20df4359",
    "OWNER_ROLE()": "e58378bb",
    "allowThirdPartyContracts()": "999e3614",
    "approveProof(bytes32)": "e3936355",
    "assetGasLimits(uint256)": "03561119",
    "asyncDefiInteractionHashes(uint256)": "cd12bf62",
    "bridgeGasLimits(uint256)": "f21c69bb",
    "defiBridgeProxy()": "0ceee68c",
    "defiInteractionHashes(uint256)": "a33dc5e7",
    "depositPendingFunds(uint256,uint256,address,bytes32)": "7ff48afb",
    "depositPendingFundsPermit(uint256,uint256,address,bytes32,uint256,uint8,bytes32,bytes32)": "e9271bd3",
    "depositPendingFundsPermitNonStandard(uint256,uint256,address,bytes32,uint256,uint256,uint8,bytes32,bytes32)": "4354021e",
    "depositProofApprovals(address,bytes32)": "781e0432",
    "escapeBlockLowerBound()": "b045009c",
    "escapeBlockUpperBound()": "d8ba3637",
    "ethPayments(uint256)": "dcefed85",
    "getAsyncDefiInteractionHashes()": "3b880652",
    "getAsyncDefiInteractionHashesLength()": "7baf7118",
    "getBridgeGasLimit(uint256)": "f25b39df",
    "getDataSize()": "7d036b27",
    "getDefiInteractionHashes()": "f5bcde9a",
    "getDefiInteractionHashesLength()": "db1533aa",
    "getEscapeHatchStatus()": "be71f8a4",
    "getImplementationVersion()": "bc327e40",
    "getPendingDefiInteractionHashesLength()": "02f6ccd4",
    "getRoleAdmin(bytes32)": "248a9ca3",
    "getSupportedAsset(uint256)": "60a8b18a",
    "getSupportedAssets()": "e5406dbf",
    "getSupportedAssetsLength()": "c0fd22b7",
    "getSupportedBridge(uint256)": "e0d16c32",
    "getSupportedBridges()": "05d1fe4c",
    "getSupportedBridgesLength()": "a8d1eae7",
    "grantRole(bytes32,address)": "2f2ff15d",
    "hasRole(bytes32,address)": "91d14854",
    "initialize(address,address,address,bytes32,bytes32,bytes32,uint32,bool)": "f6a40e97",
    "offchainData(uint256,uint256,uint256,bytes)": "20825443",
    "pause()": "8456cb59",
    "paused()": "5c975abb",
    "pendingDefiInteractions(uint256)": "8afceb39",
    "prevDefiInteractionsHash()": "7ba3e7ae",
    "processAsyncDefiInteraction(uint256)": "8188f468",
    "processRollup(bytes,bytes)": "f81cccbe",
    "receiveEthFromBridge(uint256)": "12a53623",
    "renounceRole(bytes32,address)": "36568abe",
    "revokeRole(bytes32,address)": "d547741f",
    "rollupProviders(address)": "5ad1def3",
    "rollupStateHash()": "1ab9c603",
    "setAllowThirdPartyContracts(bool)": "a2b096e4",
    "setDefiBridgeProxy(address)": "caa34553",
    "setRollupProvider(address,bool)": "91dfe78f",
    "setSupportedAsset(address,uint256)": "fb0ce185",
    "setSupportedBridge(address,uint256)": "8666c0a9",
    "setVerifier(address)": "5437988d",
    "supportsInterface(bytes4)": "01ffc9a7",
    "unpause()": "3f4ba83a",
    "userPendingDeposits(uint256,address)": "36ce0a92",
    "verifier()": "2b7ac3f3"
  },
  "id": 50
}