{
  "_format": "hh-sol-artifact-1",
  "contractName": "MockBridgeDataProvider",
  "sourceName": "contracts/test/MockBridgeDataProvider.sol",
  "abi": [
    {
      "inputs": [
        {
          "internalType": "uint256",
          "name": "_bridgeCallData",
          "type": "uint256"
        }
      ],
      "name": "getAccumulatedSubsidyAmount",
      "outputs": [
        {
          "internalType": "uint256",
          "name": "",
          "type": "uint256"
        },
        {
          "internalType": "uint256",
          "name": "",
          "type": "uint256"
        },
        {
          "internalType": "uint256",
          "name": "",
          "type": "uint256"
        }
      ],
      "stateMutability": "view",
      "type": "function"
    },
    {
      "inputs": [
        {
          "internalType": "uint256",
          "name": "_bridgeAddressId",
          "type": "uint256"
        }
      ],
      "name": "getBridge",
      "outputs": [
        {
          "components": [
            {
              "internalType": "address",
              "name": "bridgeAddress",
              "type": "address"
            },
            {
              "internalType": "uint256",
              "name": "bridgeAddressId",
              "type": "uint256"
            },
            {
              "internalType": "string",
              "name": "label",
              "type": "string"
            }
          ],
          "internalType": "struct IBridgeDataProvider.BridgeData",
          "name": "",
          "type": "tuple"
        }
      ],
      "stateMutability": "view",
      "type": "function"
    },
    {
      "inputs": [
        {
          "internalType": "uint256",
          "name": "_bridgeAddressId",
          "type": "uint256"
        },
        {
          "internalType": "address",
          "name": "_bridgeAddress",
          "type": "address"
        },
        {
          "internalType": "uint256",
          "name": "_subsidy",
          "type": "uint256"
        },
        {
          "internalType": "string",
          "name": "_description",
          "type": "string"
        }
      ],
      "name": "setBridgeData",
      "outputs": [],
      "stateMutability": "nonpayable",
      "type": "function"
    },
    {
      "inputs": [
        {
          "internalType": "uint256",
          "name": "_bridgeAddressId",
          "type": "uint256"
        },
        {
          "internalType": "uint256",
          "name": "_subsidy",
          "type": "uint256"
        }
      ],
      "name": "updateSubsidy",
      "outputs": [],
      "stateMutability": "nonpayable",
      "type": "function"
    }
  ],
  "bytecode": "0x608060405234801561001057600080fd5b50610653806100206000396000f3fe608060405234801561001057600080fd5b506004361061004b5760003560e01c8062a099301461005057806312db9b581461006557806379a7453914610098578063cda777dd146100b8575b600080fd5b61006361005e366004610377565b6100d8565b005b610078610073366004610485565b61017c565b604080519384526020840192909252908201526060015b60405180910390f35b6100ab6100a6366004610485565b6101b5565b60405161008f919061049e565b6100636100c6366004610543565b60009182526001602052604090912055565b6040805160608101825273ffffffffffffffffffffffffffffffffffffffff8581168252602080830188815283850186815260008a815280845295909520845181547fffffffffffffffffffffffff0000000000000000000000000000000000000000169416939093178355516001830155925180519293919261016292600285019201906102af565b505050600093845250600160205260409092209190915550565b63ffffffff811660008181526001602052604081205490918291829190826101a44883610565565b600598909750919550909350505050565b60408051606080820183526000808352602083015291810191909152600082815260208181526040918290208251606081018452815473ffffffffffffffffffffffffffffffffffffffff1681526001820154928101929092526002810180549293919291840191610226906105c9565b80601f0160208091040260200160405190810160405280929190818152602001828054610252906105c9565b801561029f5780601f106102745761010080835404028352916020019161029f565b820191906000526020600020905b81548152906001019060200180831161028257829003601f168201915b5050505050815250509050919050565b8280546102bb906105c9565b90600052602060002090601f0160209004810192826102dd5760008555610323565b82601f106102f657805160ff1916838001178555610323565b82800160010185558215610323579182015b82811115610323578251825591602001919060010190610308565b5061032f929150610333565b5090565b5b8082111561032f5760008155600101610334565b7f4e487b7100000000000000000000000000000000000000000000000000000000600052604160045260246000fd5b6000806000806080858703121561038d57600080fd5b84359350602085013573ffffffffffffffffffffffffffffffffffffffff811681146103b857600080fd5b925060408501359150606085013567ffffffffffffffff808211156103dc57600080fd5b818701915087601f8301126103f057600080fd5b81358181111561040257610402610348565b604051601f82017fffffffffffffffffffffffffffffffffffffffffffffffffffffffffffffffe0908116603f0116810190838211818310171561044857610448610348565b816040528281528a602084870101111561046157600080fd5b82602086016020830137600060208483010152809550505050505092959194509250565b60006020828403121561049757600080fd5b5035919050565b6000602080835273ffffffffffffffffffffffffffffffffffffffff845116818401528084015160408401526040840151606080850152805180608086015260005b818110156104fc5782810184015186820160a0015283016104e0565b8181111561050e57600060a083880101525b50601f017fffffffffffffffffffffffffffffffffffffffffffffffffffffffffffffffe0169390930160a001949350505050565b6000806040838503121561055657600080fd5b50508035926020909101359150565b6000817fffffffffffffffffffffffffffffffffffffffffffffffffffffffffffffffff04831182151516156105c4577f4e487b7100000000000000000000000000000000000000000000000000000000600052601160045260246000fd5b500290565b600181811c908216806105dd57607f821691505b60208210811415610617577f4e487b7100000000000000000000000000000000000000000000000000000000600052602260045260246000fd5b5091905056fea264697066735822122003355691c4ca0ea738773e609368839129b408cd0621ce9069ac060ce0475e1c64736f6c634300080a0033",
  "linkReferences": {},
  "deployedLinkReferences": {}
}