{
  "abi": [
    {
      "inputs": [
        {
          "internalType": "address",
          "name": "_feeClaimer",
          "type": "address"
        },
        {
          "internalType": "address",
          "name": "_rollupProcessor",
          "type": "address"
        },
        {
          "internalType": "address",
          "name": "_router",
          "type": "address"
        }
      ],
      "stateMutability": "nonpayable",
      "type": "constructor"
    },
    {
      "anonymous": false,
      "inputs": [
        {
          "indexed": false,
          "internalType": "address",
          "name": "assetAddress",
          "type": "address"
        },
        {
          "indexed": false,
          "internalType": "uint256",
          "name": "inputValue",
          "type": "uint256"
        },
        {
          "indexed": false,
          "internalType": "uint256",
          "name": "outputValue",
          "type": "uint256"
        }
      ],
      "name": "Convert",
      "type": "event"
    },
    {
      "anonymous": false,
      "inputs": [
        {
          "indexed": false,
          "internalType": "address",
          "name": "receiver",
          "type": "address"
        },
        {
          "indexed": false,
          "internalType": "uint256",
          "name": "amount",
          "type": "uint256"
        }
      ],
      "name": "FeeReimbursed",
      "type": "event"
    },
    {
      "anonymous": false,
      "inputs": [
        {
          "indexed": true,
          "internalType": "address",
          "name": "previousOwner",
          "type": "address"
        },
        {
          "indexed": true,
          "internalType": "address",
          "name": "newOwner",
          "type": "address"
        }
      ],
      "name": "OwnershipTransferred",
      "type": "event"
    },
    {
      "inputs": [],
      "name": "WETH",
      "outputs": [
        {
          "internalType": "address",
          "name": "",
          "type": "address"
        }
      ],
      "stateMutability": "view",
      "type": "function"
    },
    {
      "inputs": [],
      "name": "aztecFeeClaimer",
      "outputs": [
        {
          "internalType": "address",
          "name": "",
          "type": "address"
        }
      ],
      "stateMutability": "view",
      "type": "function"
    },
    {
      "inputs": [
        {
          "internalType": "address",
          "name": "assetAddress",
          "type": "address"
        },
        {
          "internalType": "uint256",
          "name": "minOutputValue",
          "type": "uint256"
        }
      ],
      "name": "convert",
      "outputs": [
        {
          "internalType": "uint256",
          "name": "outputValue",
          "type": "uint256"
        }
      ],
      "stateMutability": "nonpayable",
      "type": "function"
    },
    {
      "inputs": [],
      "name": "convertConstant",
      "outputs": [
        {
          "internalType": "uint256",
          "name": "",
          "type": "uint256"
        }
      ],
      "stateMutability": "view",
      "type": "function"
    },
    {
      "inputs": [],
      "name": "factory",
      "outputs": [
        {
          "internalType": "address",
          "name": "",
          "type": "address"
        }
      ],
      "stateMutability": "view",
      "type": "function"
    },
    {
      "inputs": [],
      "name": "feeLimit",
      "outputs": [
        {
          "internalType": "uint256",
          "name": "",
          "type": "uint256"
        }
      ],
      "stateMutability": "view",
      "type": "function"
    },
    {
      "inputs": [],
      "name": "owner",
      "outputs": [
        {
          "internalType": "address",
          "name": "",
          "type": "address"
        }
      ],
      "stateMutability": "view",
      "type": "function"
    },
    {
      "inputs": [],
      "name": "renounceOwnership",
      "outputs": [],
      "stateMutability": "nonpayable",
      "type": "function"
    },
    {
      "inputs": [],
      "name": "rollupProcessor",
      "outputs": [
        {
          "internalType": "address",
          "name": "",
          "type": "address"
        }
      ],
      "stateMutability": "view",
      "type": "function"
    },
    {
      "inputs": [],
      "name": "router",
      "outputs": [
        {
          "internalType": "address",
          "name": "",
          "type": "address"
        }
      ],
      "stateMutability": "view",
      "type": "function"
    },
    {
      "inputs": [
        {
          "internalType": "uint256",
          "name": "_convertConstant",
          "type": "uint256"
        }
      ],
      "name": "setConvertConstant",
      "outputs": [],
      "stateMutability": "nonpayable",
      "type": "function"
    },
    {
      "inputs": [
        {
          "internalType": "address",
          "name": "_feeClaimer",
          "type": "address"
        }
      ],
      "name": "setFeeClaimer",
      "outputs": [],
      "stateMutability": "nonpayable",
      "type": "function"
    },
    {
      "inputs": [
        {
          "internalType": "uint256",
          "name": "_feeLimit",
          "type": "uint256"
        }
      ],
      "name": "setFeeLimit",
      "outputs": [],
      "stateMutability": "nonpayable",
      "type": "function"
    },
    {
      "inputs": [
        {
          "internalType": "address",
          "name": "newOwner",
          "type": "address"
        }
      ],
      "name": "transferOwnership",
      "outputs": [],
      "stateMutability": "nonpayable",
      "type": "function"
    },
    {
      "inputs": [
        {
          "internalType": "address",
          "name": "assetAddress",
          "type": "address"
        }
      ],
      "name": "txFeeBalance",
      "outputs": [
        {
          "internalType": "uint256",
          "name": "",
          "type": "uint256"
        }
      ],
      "stateMutability": "view",
      "type": "function"
    },
    {
      "stateMutability": "payable",
      "type": "receive"
    }
  ],
  "bytecode": {
    "object": "0x60e060405267058d15e176280000600155623025a06004553480156200002457600080fd5b50604051620015aa380380620015aa8339810160408190526200004791620001ea565b62000052336200017d565b600280546001600160a01b038086166001600160a01b031992831617909255600380548584169216919091179055811660808190526040805163c45a015560e01b8152905163c45a0155916004808201926020929091908290030181865afa158015620000c3573d6000803e3d6000fd5b505050506040513d601f19601f82011682018060405250810190620000e9919062000234565b6001600160a01b031660a0816001600160a01b031681525050806001600160a01b031663ad5c46486040518163ffffffff1660e01b8152600401602060405180830381865afa15801562000141573d6000803e3d6000fd5b505050506040513d601f19601f8201168201806040525081019062000167919062000234565b6001600160a01b031660c0525062000259915050565b600080546001600160a01b038381166001600160a01b0319831681178455604051919092169283917f8be0079c531659141344cd1fd0a4f28419497f9722a3daafe3b4186f6b6457e09190a35050565b80516001600160a01b0381168114620001e557600080fd5b919050565b6000806000606084860312156200020057600080fd5b6200020b84620001cd565b92506200021b60208501620001cd565b91506200022b60408501620001cd565b90509250925092565b6000602082840312156200024757600080fd5b6200025282620001cd565b9392505050565b60805160a05160c0516112e9620002c1600039600081816102ec015281816106120152818161067901528181610946015281816109ab015281816109ea0152610ae9015260008181610360015281816109240152610989015260006103ea01526112e96000f3fe6080604052600436106100ec5760003560e01c8063ad5c46481161008a578063c746d1d011610059578063c746d1d014610382578063d3a859d314610398578063f2fde38b146103b8578063f887ea40146103d857600080fd5b8063ad5c4648146102da578063afea09ac1461030e578063c3accd481461032e578063c45a01551461034e57600080fd5b806367c6e39c116100c657806367c6e39c14610267578063715018a61461028757806386a88da21461029c5780638da5cb5b146102bc57600080fd5b80632a113d6e146101e65780635b193332146102235780635e1637161461024757600080fd5b366101e1576003546001600160a01b03163314156101df576001546002546001600160a01b03163110156101df576000600154471161012b574761012f565b6001545b6002546040519192506000916001600160a01b0390911690610bb890849084818181858888f193505050503d8060008114610186576040519150601f19603f3d011682016040523d82523d6000602084013e61018b565b606091505b5050905080156101dc57600254604080516001600160a01b039092168252602082018490527fcf4cc329b7982381c7a729b04a403439bbef0749b4a8dbd2a3850218b420bd87910160405180910390a15b50505b005b600080fd5b3480156101f257600080fd5b50600354610206906001600160a01b031681565b6040516001600160a01b0390911681526020015b60405180910390f35b34801561022f57600080fd5b5061023960015481565b60405190815260200161021a565b34801561025357600080fd5b50610239610262366004611094565b61040c565b34801561027357600080fd5b506102396102823660046110b6565b6104af565b34801561029357600080fd5b506101df6107c0565b3480156102a857600080fd5b506101df6102b73660046110e0565b6107d4565b3480156102c857600080fd5b506000546001600160a01b0316610206565b3480156102e657600080fd5b506102067f000000000000000000000000000000000000000000000000000000000000000081565b34801561031a57600080fd5b50600254610206906001600160a01b031681565b34801561033a57600080fd5b506101df610349366004611094565b6107e1565b34801561035a57600080fd5b506102067f000000000000000000000000000000000000000000000000000000000000000081565b34801561038e57600080fd5b5061023960045481565b3480156103a457600080fd5b506101df6103b33660046110e0565b610823565b3480156103c457600080fd5b506101df6103d3366004611094565b610830565b3480156103e457600080fd5b506102067f000000000000000000000000000000000000000000000000000000000000000081565b60006001600160a01b038216610423575047919050565b6040517f70a082310000000000000000000000000000000000000000000000000000000081523060048201526001600160a01b038316906370a0823190602401602060405180830381865afa158015610480573d6000803e3d6000fd5b505050506040513d601f19601f820116820180604052508101906104a491906110f9565b92915050565b919050565b60006104b96108c0565b6001600160a01b03831661053a5760405162461bcd60e51b815260206004820152602260248201527f466565204469737472696275746f723a204e4f545f415f544f4b454e5f41535360448201527f455400000000000000000000000000000000000000000000000000000000000060648201526084015b60405180910390fd5b6040517f70a082310000000000000000000000000000000000000000000000000000000081523060048201526000906001600160a01b038516906370a0823190602401602060405180830381865afa15801561059a573d6000803e3d6000fd5b505050506040513d601f19601f820116820180604052508101906105be91906110f9565b9050600081116106105760405162461bcd60e51b815260206004820152601e60248201527f466565204469737472696275746f723a20454d5054595f42414c414e434500006044820152606401610531565b7f00000000000000000000000000000000000000000000000000000000000000006001600160a01b0316846001600160a01b031614156106e2576040517f2e1a7d4d000000000000000000000000000000000000000000000000000000008152600481018290527f00000000000000000000000000000000000000000000000000000000000000006001600160a01b031690632e1a7d4d90602401600060405180830381600087803b1580156106c557600080fd5b505af11580156106d9573d6000803e3d6000fd5b5050505061076f565b6106ec848261091a565b9150828210156107645760405162461bcd60e51b815260206004820152602b60248201527f466565204469737472696275746f723a20494e53554646494349454e545f4f5560448201527f545055545f414d4f554e540000000000000000000000000000000000000000006064820152608401610531565b61076f848284610982565b604080516001600160a01b0386168152602081018390529081018390527f9018eade4aec2a696b34b0f5459a1a7dc058389bab8e2380d880817a9e22b2139060600160405180910390a15092915050565b6107c86108c0565b6107d26000610b57565b565b6107dc6108c0565b600455565b6107e96108c0565b600280547fffffffffffffffffffffffff0000000000000000000000000000000000000000166001600160a01b0392909216919091179055565b61082b6108c0565b600155565b6108386108c0565b6001600160a01b0381166108b45760405162461bcd60e51b815260206004820152602660248201527f4f776e61626c653a206e6577206f776e657220697320746865207a65726f206160448201527f64647265737300000000000000000000000000000000000000000000000000006064820152608401610531565b6108bd81610b57565b50565b6000546001600160a01b031633146107d25760405162461bcd60e51b815260206004820181905260248201527f4f776e61626c653a2063616c6c6572206973206e6f7420746865206f776e65726044820152606401610531565b600080600061096a7f0000000000000000000000000000000000000000000000000000000000000000867f0000000000000000000000000000000000000000000000000000000000000000610bbf565b91509150610979848383610c97565b95945050505050565b60006109cf7f0000000000000000000000000000000000000000000000000000000000000000857f0000000000000000000000000000000000000000000000000000000000000000610dde565b90506109e56001600160a01b0385168285610edc565b6000807f00000000000000000000000000000000000000000000000000000000000000006001600160a01b0316866001600160a01b031610610a2957836000610a2d565b6000845b604080516000815260208101918290527f022c0d9f0000000000000000000000000000000000000000000000000000000090915291935091506001600160a01b0384169063022c0d9f90610a8a9085908590309060248101611112565b600060405180830381600087803b158015610aa457600080fd5b505af1158015610ab8573d6000803e3d6000fd5b50506040517f2e1a7d4d000000000000000000000000000000000000000000000000000000008152600481018790527f00000000000000000000000000000000000000000000000000000000000000006001600160a01b03169250632e1a7d4d9150602401600060405180830381600087803b158015610b3757600080fd5b505af1158015610b4b573d6000803e3d6000fd5b50505050505050505050565b600080546001600160a01b038381167fffffffffffffffffffffffff0000000000000000000000000000000000000000831681178455604051919092169283917f8be0079c531659141344cd1fd0a4f28419497f9722a3daafe3b4186f6b6457e09190a35050565b6000806000610bce8585610f6d565b509050600080610bdf888888610dde565b6001600160a01b0316630902f1ac6040518163ffffffff1660e01b8152600401606060405180830381865afa158015610c1c573d6000803e3d6000fd5b505050506040513d601f19601f82011682018060405250810190610c4091906111a4565b506dffffffffffffffffffffffffffff1691506dffffffffffffffffffffffffffff169150826001600160a01b0316876001600160a01b031614610c85578082610c88565b81815b90999098509650505050505050565b6000808411610d0e5760405162461bcd60e51b815260206004820152602b60248201527f556e697377617056324c6962726172793a20494e53554646494349454e545f4960448201527f4e5055545f414d4f554e540000000000000000000000000000000000000000006064820152608401610531565b600083118015610d1e5750600082115b610d905760405162461bcd60e51b815260206004820152602860248201527f556e697377617056324c6962726172793a20494e53554646494349454e545f4c60448201527f49515549444954590000000000000000000000000000000000000000000000006064820152608401610531565b6000610d9e856103e5611223565b90506000610dac8483611223565b9050600082610dbd876103e8611223565b610dc79190611260565b9050610dd38183611278565b979650505050505050565b6000806000610ded8585610f6d565b6040516bffffffffffffffffffffffff19606084811b8216602084015283901b1660348201529193509150600090879060480160405160208183030381529060405280519060200120604051602001610eb09291907fff00000000000000000000000000000000000000000000000000000000000000815260609290921b6bffffffffffffffffffffffff1916600183015260158201527f96e8ac4277198ff8b6f785478aa9a39f403cb768dd02cbee326c3e7da348845f603582015260550190565b60408051601f1981840301815291905280516020909101206001600160a01b0316979650505050505050565b6040517fa9059cbb000000000000000000000000000000000000000000000000000000008152826004820152816024820152833b610f3e577f214092720000000000000000000000000000000000000000000000000000000060005260046000fd5b602060006044836000885af190506001600051163d1517808216610f66573d6000803e3d6000fd5b5050505050565b600080826001600160a01b0316846001600160a01b03161415610ff85760405162461bcd60e51b815260206004820152602560248201527f556e697377617056324c6962726172793a204944454e544943414c5f4144445260448201527f45535345530000000000000000000000000000000000000000000000000000006064820152608401610531565b826001600160a01b0316846001600160a01b03161061101857828461101b565b83835b90925090506001600160a01b0382166110765760405162461bcd60e51b815260206004820152601e60248201527f556e697377617056324c6962726172793a205a45524f5f4144445245535300006044820152606401610531565b9250929050565b80356001600160a01b03811681146104aa57600080fd5b6000602082840312156110a657600080fd5b6110af8261107d565b9392505050565b600080604083850312156110c957600080fd5b6110d28361107d565b946020939093013593505050565b6000602082840312156110f257600080fd5b5035919050565b60006020828403121561110b57600080fd5b5051919050565b8481526000602085818401526001600160a01b038516604084015260806060840152835180608085015260005b8181101561115b5785810183015185820160a00152820161113f565b8181111561116d57600060a083870101525b50601f01601f19169290920160a0019695505050505050565b80516dffffffffffffffffffffffffffff811681146104aa57600080fd5b6000806000606084860312156111b957600080fd5b6111c284611186565b92506111d060208501611186565b9150604084015163ffffffff811681146111e957600080fd5b809150509250925092565b7f4e487b7100000000000000000000000000000000000000000000000000000000600052601160045260246000fd5b6000817fffffffffffffffffffffffffffffffffffffffffffffffffffffffffffffffff048311821515161561125b5761125b6111f4565b500290565b60008219821115611273576112736111f4565b500190565b6000826112ae577f4e487b7100000000000000000000000000000000000000000000000000000000600052601260045260246000fd5b50049056fea2646970667358221220359cf3b3b5c2029b091282800284ceaa072fd2c7c9c9d7174f0e440b62883ca164736f6c634300080a0033",
    "linkReferences": {}
  },
  "methodIdentifiers": {
    "WETH()": "ad5c4648",
    "aztecFeeClaimer()": "afea09ac",
    "convert(address,uint256)": "67c6e39c",
    "convertConstant()": "c746d1d0",
    "factory()": "c45a0155",
    "feeLimit()": "5b193332",
    "owner()": "8da5cb5b",
    "renounceOwnership()": "715018a6",
    "rollupProcessor()": "2a113d6e",
    "router()": "f887ea40",
    "setConvertConstant(uint256)": "86a88da2",
    "setFeeClaimer(address)": "c3accd48",
    "setFeeLimit(uint256)": "d3a859d3",
    "transferOwnership(address)": "f2fde38b",
    "txFeeBalance(address)": "5e163716"
  },
  "id": 126
}