{
  "abi": [
    {
      "inputs": [],
      "name": "getVerificationKeyHash",
      "outputs": [
        {
          "internalType": "bytes32",
          "name": "",
          "type": "bytes32"
        }
      ],
      "stateMutability": "pure",
      "type": "function"
    },
    {
      "inputs": [
        {
          "internalType": "bytes",
          "name": "",
          "type": "bytes"
        },
        {
          "internalType": "uint256",
          "name": "",
          "type": "uint256"
        }
      ],
      "name": "verify",
      "outputs": [
        {
          "internalType": "bool",
          "name": "",
          "type": "bool"
        }
      ],
      "stateMutability": "pure",
      "type": "function"
    }
  ],
  "bytecode": {
    "object": "0x608060405234801561001057600080fd5b506101cc806100206000396000f3fe608060405234801561001057600080fd5b50600436106100365760003560e01c8063937f6a101461003b578063ac318c5d1461006e575b600080fd5b6040517f616c77617973207472756500000000000000000000000000000000000000000081526020015b60405180910390f35b61008461007c3660046100c3565b600192915050565b6040519015158152602001610065565b7f4e487b7100000000000000000000000000000000000000000000000000000000600052604160045260246000fd5b600080604083850312156100d657600080fd5b823567ffffffffffffffff808211156100ee57600080fd5b818501915085601f83011261010257600080fd5b81358181111561011457610114610094565b604051601f82017fffffffffffffffffffffffffffffffffffffffffffffffffffffffffffffffe0908116603f0116810190838211818310171561015a5761015a610094565b8160405282815288602084870101111561017357600080fd5b82602086016020830137600060209382018401529896909101359650505050505056fea2646970667358221220d2ee7e4a1d2cc32b7e5dd59be110bf7707bbbd3cee5c5f7d6a4accfd8cc7552964736f6c634300080a0033",
    "linkReferences": {}
  },
  "methodIdentifiers": {
    "getVerificationKeyHash()": "937f6a10",
    "verify(bytes,uint256)": "ac318c5d"
  },
  "id": 136
}