{
  "_format": "hh-sol-artifact-1",
  "contractName": "DummyDefiBridge",
  "sourceName": "contracts/test/DummyDefiBridge.sol",
  "abi": [
    {
      "inputs": [
        {
          "internalType": "address",
          "name": "_rollupProcessor",
          "type": "address"
        },
        {
          "internalType": "uint256",
          "name": "_outputValueEth",
          "type": "uint256"
        },
        {
          "internalType": "uint256",
          "name": "_outputValueToken",
          "type": "uint256"
        },
        {
          "internalType": "uint256",
          "name": "_outputVirtualValueA",
          "type": "uint256"
        },
        {
          "internalType": "uint256",
          "name": "_outputVirtualValueB",
          "type": "uint256"
        }
      ],
      "stateMutability": "nonpayable",
      "type": "constructor"
    },
    {
      "inputs": [
        {
          "components": [
            {
              "internalType": "uint256",
              "name": "id",
              "type": "uint256"
            },
            {
              "internalType": "address",
              "name": "erc20Address",
              "type": "address"
            },
            {
              "internalType": "enum AztecTypes.AztecAssetType",
              "name": "assetType",
              "type": "uint8"
            }
          ],
          "internalType": "struct AztecTypes.AztecAsset",
          "name": "",
          "type": "tuple"
        },
        {
          "components": [
            {
              "internalType": "uint256",
              "name": "id",
              "type": "uint256"
            },
            {
              "internalType": "address",
              "name": "erc20Address",
              "type": "address"
            },
            {
              "internalType": "enum AztecTypes.AztecAssetType",
              "name": "assetType",
              "type": "uint8"
            }
          ],
          "internalType": "struct AztecTypes.AztecAsset",
          "name": "",
          "type": "tuple"
        },
        {
          "components": [
            {
              "internalType": "uint256",
              "name": "id",
              "type": "uint256"
            },
            {
              "internalType": "address",
              "name": "erc20Address",
              "type": "address"
            },
            {
              "internalType": "enum AztecTypes.AztecAssetType",
              "name": "assetType",
              "type": "uint8"
            }
          ],
          "internalType": "struct AztecTypes.AztecAsset",
          "name": "outputAssetA",
          "type": "tuple"
        },
        {
          "components": [
            {
              "internalType": "uint256",
              "name": "id",
              "type": "uint256"
            },
            {
              "internalType": "address",
              "name": "erc20Address",
              "type": "address"
            },
            {
              "internalType": "enum AztecTypes.AztecAssetType",
              "name": "assetType",
              "type": "uint8"
            }
          ],
          "internalType": "struct AztecTypes.AztecAsset",
          "name": "outputAssetB",
          "type": "tuple"
        },
        {
          "internalType": "uint256",
          "name": "",
          "type": "uint256"
        },
        {
          "internalType": "uint256",
          "name": "interactionNonce",
          "type": "uint256"
        },
        {
          "internalType": "uint64",
          "name": "auxData",
          "type": "uint64"
        },
        {
          "internalType": "address",
          "name": "",
          "type": "address"
        }
      ],
      "name": "convert",
      "outputs": [
        {
          "internalType": "uint256",
          "name": "",
          "type": "uint256"
        },
        {
          "internalType": "uint256",
          "name": "",
          "type": "uint256"
        },
        {
          "internalType": "bool",
          "name": "",
          "type": "bool"
        }
      ],
      "stateMutability": "payable",
      "type": "function"
    },
    {
      "inputs": [
        {
          "components": [
            {
              "internalType": "uint256",
              "name": "id",
              "type": "uint256"
            },
            {
              "internalType": "address",
              "name": "erc20Address",
              "type": "address"
            },
            {
              "internalType": "enum AztecTypes.AztecAssetType",
              "name": "assetType",
              "type": "uint8"
            }
          ],
          "internalType": "struct AztecTypes.AztecAsset",
          "name": "",
          "type": "tuple"
        },
        {
          "components": [
            {
              "internalType": "uint256",
              "name": "id",
              "type": "uint256"
            },
            {
              "internalType": "address",
              "name": "erc20Address",
              "type": "address"
            },
            {
              "internalType": "enum AztecTypes.AztecAssetType",
              "name": "assetType",
              "type": "uint8"
            }
          ],
          "internalType": "struct AztecTypes.AztecAsset",
          "name": "",
          "type": "tuple"
        },
        {
          "components": [
            {
              "internalType": "uint256",
              "name": "id",
              "type": "uint256"
            },
            {
              "internalType": "address",
              "name": "erc20Address",
              "type": "address"
            },
            {
              "internalType": "enum AztecTypes.AztecAssetType",
              "name": "assetType",
              "type": "uint8"
            }
          ],
          "internalType": "struct AztecTypes.AztecAsset",
          "name": "outputAssetA",
          "type": "tuple"
        },
        {
          "components": [
            {
              "internalType": "uint256",
              "name": "id",
              "type": "uint256"
            },
            {
              "internalType": "address",
              "name": "erc20Address",
              "type": "address"
            },
            {
              "internalType": "enum AztecTypes.AztecAssetType",
              "name": "assetType",
              "type": "uint8"
            }
          ],
          "internalType": "struct AztecTypes.AztecAsset",
          "name": "outputAssetB",
          "type": "tuple"
        },
        {
          "internalType": "uint256",
          "name": "interactionNonce",
          "type": "uint256"
        },
        {
          "internalType": "uint64",
          "name": "",
          "type": "uint64"
        }
      ],
      "name": "finalise",
      "outputs": [
        {
          "internalType": "uint256",
          "name": "",
          "type": "uint256"
        },
        {
          "internalType": "uint256",
          "name": "",
          "type": "uint256"
        },
        {
          "internalType": "bool",
          "name": "",
          "type": "bool"
        }
      ],
      "stateMutability": "payable",
      "type": "function"
    },
    {
      "inputs": [],
      "name": "rollupProcessor",
      "outputs": [
        {
          "internalType": "address",
          "name": "",
          "type": "address"
        }
      ],
      "stateMutability": "view",
      "type": "function"
    },
    {
      "stateMutability": "payable",
      "type": "receive"
    }
  ],
  "bytecode": "0x61012060405234801561001157600080fd5b5060405161090e38038061090e83398101604081905261003091610053565b6001600160a01b0390941660805260a09290925260c05260e052610100526100a8565b600080600080600060a0868803121561006b57600080fd5b85516001600160a01b038116811461008257600080fd5b602087015160408801516060890151608090990151929a91995097965090945092505050565b60805160a05160c05160e051610100516107f961011560003960008181610141015261025d015260008181610112015261022e015260006104db0152600081816102de01526103cb015260008181608b0152818161019b015281816103a801526104b301526107f96000f3fe6080604052600436106100385760003560e01c806326c3b515146100445780632a113d6e146100795780639b07d342146100d257600080fd5b3661003f57005b600080fd5b610057610052366004610630565b6100e5565b6040805193845260208401929092521515908201526060015b60405180910390f35b34801561008557600080fd5b506100ad7f000000000000000000000000000000000000000000000000000000000000000081565b60405173ffffffffffffffffffffffffffffffffffffffff9091168152602001610070565b6100576100e03660046106c2565b61017f565b6000808067ffffffffffffffff85161580159061010a57600093508392509050610171565b60006101378b7f00000000000000000000000000000000000000000000000000000000000000008a610297565b905060006101668b7f00000000000000000000000000000000000000000000000000000000000000008b610297565b919550909350909150505b985098509895505050505050565b600080803373ffffffffffffffffffffffffffffffffffffffff7f00000000000000000000000000000000000000000000000000000000000000001614610226576040517f08c379a000000000000000000000000000000000000000000000000000000000815260206004820152600f60248201527f696e76616c69642073656e646572210000000000000000000000000000000000604482015260640160405180910390fd5b6000610253887f000000000000000000000000000000000000000000000000000000000000000088610297565b90506000610282887f000000000000000000000000000000000000000000000000000000000000000089610297565b919b919a506001995090975050505050505050565b60006003846040015160038111156102b1576102b1610737565b14156102be575081610552565b6001846040015160038111156102d6576102d6610737565b1415610452577f0000000000000000000000000000000000000000000000000000000000000000905060008260405160240161031491815260200190565b604080517fffffffffffffffffffffffffffffffffffffffffffffffffffffffffffffffe08184030181529181526020820180517bffffffffffffffffffffffffffffffffffffffffffffffffffffffff167f12a53623000000000000000000000000000000000000000000000000000000001790525190915060009073ffffffffffffffffffffffffffffffffffffffff7f000000000000000000000000000000000000000000000000000000000000000016907f0000000000000000000000000000000000000000000000000000000000000000906103f6908590610766565b60006040518083038185875af1925050503d8060008114610433576040519150601f19603f3d011682016040523d82523d6000602084013e610438565b606091505b505090508061044b573d6000803e3d6000fd5b5050610552565b60028460400151600381111561046a5761046a610737565b1415610552575060208301516040517f095ea7b300000000000000000000000000000000000000000000000000000000815273ffffffffffffffffffffffffffffffffffffffff7f0000000000000000000000000000000000000000000000000000000000000000811660048301527f00000000000000000000000000000000000000000000000000000000000000006024830181905292169063095ea7b3906044016020604051808303816000875af115801561052c573d6000803e3d6000fd5b505050506040513d601f19601f8201168201806040525081019061055091906107a1565b505b9392505050565b803573ffffffffffffffffffffffffffffffffffffffff8116811461057d57600080fd5b919050565b60006060828403121561059457600080fd5b6040516060810181811067ffffffffffffffff821117156105de577f4e487b7100000000000000000000000000000000000000000000000000000000600052604160045260246000fd5b604052823581529050806105f460208401610559565b602082015260408301356004811061060b57600080fd5b6040919091015292915050565b803567ffffffffffffffff8116811461057d57600080fd5b600080600080600080600080610200898b03121561064d57600080fd5b6106578a8a610582565b97506106668a60608b01610582565b96506106758a60c08b01610582565b95506106858a6101208b01610582565b945061018089013593506101a089013592506106a46101c08a01610618565b91506106b36101e08a01610559565b90509295985092959890939650565b6000806000806000806101c087890312156106dc57600080fd5b6106e68888610582565b95506106f58860608901610582565b94506107048860c08901610582565b9350610714886101208901610582565b9250610180870135915061072b6101a08801610618565b90509295509295509295565b7f4e487b7100000000000000000000000000000000000000000000000000000000600052602160045260246000fd5b6000825160005b81811015610787576020818601810151858301520161076d565b81811115610796576000828501525b509190910192915050565b6000602082840312156107b357600080fd5b8151801515811461055257600080fdfea2646970667358221220d3ef1fff5ca6debceb18f50473e062882ed8095cbc2604a09dc0e80809d015b464736f6c634300080a0033",
  "linkReferences": {},
  "deployedLinkReferences": {}
}