{
  "_format": "hh-sol-artifact-1",
  "contractName": "MockPriceFeed",
  "sourceName": "contracts/test/MockPriceFeed.sol",
  "abi": [
    {
      "inputs": [
        {
          "internalType": "int256",
          "name": "answer",
          "type": "int256"
        }
      ],
      "stateMutability": "nonpayable",
      "type": "constructor"
    },
    {
      "inputs": [
        {
          "internalType": "uint256",
          "name": "",
          "type": "uint256"
        }
      ],
      "name": "getAnswer",
      "outputs": [
        {
          "internalType": "int256",
          "name": "",
          "type": "int256"
        }
      ],
      "stateMutability": "view",
      "type": "function"
    },
    {
      "inputs": [
        {
          "internalType": "uint80",
          "name": "_roundId",
          "type": "uint80"
        }
      ],
      "name": "getRoundData",
      "outputs": [
        {
          "internalType": "uint80",
          "name": "roundId",
          "type": "uint80"
        },
        {
          "internalType": "int256",
          "name": "answer",
          "type": "int256"
        },
        {
          "internalType": "uint256",
          "name": "startedAt",
          "type": "uint256"
        },
        {
          "internalType": "uint256",
          "name": "updatedAt",
          "type": "uint256"
        },
        {
          "internalType": "uint80",
          "name": "answeredInRound",
          "type": "uint80"
        }
      ],
      "stateMutability": "view",
      "type": "function"
    },
    {
      "inputs": [
        {
          "internalType": "uint256",
          "name": "",
          "type": "uint256"
        }
      ],
      "name": "getTimestamp",
      "outputs": [
        {
          "internalType": "uint256",
          "name": "",
          "type": "uint256"
        }
      ],
      "stateMutability": "view",
      "type": "function"
    },
    {
      "inputs": [],
      "name": "latestAnswer",
      "outputs": [
        {
          "internalType": "int256",
          "name": "",
          "type": "int256"
        }
      ],
      "stateMutability": "view",
      "type": "function"
    },
    {
      "inputs": [],
      "name": "latestRound",
      "outputs": [
        {
          "internalType": "uint256",
          "name": "",
          "type": "uint256"
        }
      ],
      "stateMutability": "view",
      "type": "function"
    },
    {
      "inputs": [
        {
          "internalType": "int256",
          "name": "answer",
          "type": "int256"
        }
      ],
      "name": "setRoundData",
      "outputs": [],
      "stateMutability": "nonpayable",
      "type": "function"
    }
  ],
  "bytecode": "0x6080604052600080546001600160501b0319166103e817905534801561002457600080fd5b506040516103df3803806103df833981016040819052610043916100ab565b61004c81610052565b506100fd565b600054610069906001600160501b031660016100c4565b600080546001600160501b0319166001600160501b03928316908117825581526001602090815260408083209490945581549092168152600290915220429055565b6000602082840312156100bd57600080fd5b5051919050565b60006001600160501b038281168482168083038211156100f457634e487b7160e01b600052601160045260246000fd5b01949350505050565b6102d38061010c6000396000f3fe608060405234801561001057600080fd5b50600436106100725760003560e01c8063a4381d1f11610050578063a4381d1f14610130578063b5ab58dc14610145578063b633620c1461016557600080fd5b806350d25bcd14610077578063668a0f02146100a75780639a6fc8f5146100bb575b600080fd5b6000805469ffffffffffffffffffff168152600160205260409020545b6040519081526020015b60405180910390f35b60005469ffffffffffffffffffff16610094565b6100f96100c93660046101fc565b69ffffffffffffffffffff8116600090815260026020908152604080832054600190925290912054919281908490565b6040805169ffffffffffffffffffff968716815260208101959095528401929092526060830152909116608082015260a00161009e565b61014361013e36600461022f565b610185565b005b61009461015336600461022f565b60016020526000908152604090205481565b61009461017336600461022f565b60026020526000908152604090205481565b60005461019f9069ffffffffffffffffffff166001610248565b600080547fffffffffffffffffffffffffffffffffffffffffffff000000000000000000001669ffffffffffffffffffff928316908117825581526001602090815260408083209490945581549092168152600290915220429055565b60006020828403121561020e57600080fd5b813569ffffffffffffffffffff8116811461022857600080fd5b9392505050565b60006020828403121561024157600080fd5b5035919050565b600069ffffffffffffffffffff808316818516808303821115610294577f4e487b7100000000000000000000000000000000000000000000000000000000600052601160045260246000fd5b0194935050505056fea2646970667358221220596e6c744af3f46668b08a7a09bed95ca6525c4b06b6bf6862d01b52febf410864736f6c634300080a0033",
  "linkReferences": {},
  "deployedLinkReferences": {}
}