{
  "_format": "hh-sol-artifact-1",
  "contractName": "MockDefiBridge",
  "sourceName": "contracts/test/MockDefiBridge.sol",
  "abi": [
    {
      "inputs": [
        {
          "internalType": "address",
          "name": "_rollupProcessor",
          "type": "address"
        },
        {
          "internalType": "bool",
          "name": "_canConvert",
          "type": "bool"
        },
        {
          "internalType": "uint256",
          "name": "_outputValueA",
          "type": "uint256"
        },
        {
          "internalType": "uint256",
          "name": "_outputValueB",
          "type": "uint256"
        },
        {
          "internalType": "uint256",
          "name": "_returnValueA",
          "type": "uint256"
        },
        {
          "internalType": "uint256",
          "name": "_returnValueB",
          "type": "uint256"
        },
        {
          "internalType": "uint256",
          "name": "_returnInputValue",
          "type": "uint256"
        },
        {
          "internalType": "bool",
          "name": "_isAsync",
          "type": "bool"
        }
      ],
      "stateMutability": "nonpayable",
      "type": "constructor"
    },
    {
      "inputs": [
        {
          "components": [
            {
              "internalType": "uint256",
              "name": "id",
              "type": "uint256"
            },
            {
              "internalType": "address",
              "name": "erc20Address",
              "type": "address"
            },
            {
              "internalType": "enum AztecTypes.AztecAssetType",
              "name": "assetType",
              "type": "uint8"
            }
          ],
          "internalType": "struct AztecTypes.AztecAsset",
          "name": "inputAssetA",
          "type": "tuple"
        },
        {
          "components": [
            {
              "internalType": "uint256",
              "name": "id",
              "type": "uint256"
            },
            {
              "internalType": "address",
              "name": "erc20Address",
              "type": "address"
            },
            {
              "internalType": "enum AztecTypes.AztecAssetType",
              "name": "assetType",
              "type": "uint8"
            }
          ],
          "internalType": "struct AztecTypes.AztecAsset",
          "name": "inputAssetB",
          "type": "tuple"
        },
        {
          "components": [
            {
              "internalType": "uint256",
              "name": "id",
              "type": "uint256"
            },
            {
              "internalType": "address",
              "name": "erc20Address",
              "type": "address"
            },
            {
              "internalType": "enum AztecTypes.AztecAssetType",
              "name": "assetType",
              "type": "uint8"
            }
          ],
          "internalType": "struct AztecTypes.AztecAsset",
          "name": "outputAssetA",
          "type": "tuple"
        },
        {
          "components": [
            {
              "internalType": "uint256",
              "name": "id",
              "type": "uint256"
            },
            {
              "internalType": "address",
              "name": "erc20Address",
              "type": "address"
            },
            {
              "internalType": "enum AztecTypes.AztecAssetType",
              "name": "assetType",
              "type": "uint8"
            }
          ],
          "internalType": "struct AztecTypes.AztecAsset",
          "name": "outputAssetB",
          "type": "tuple"
        },
        {
          "internalType": "uint256",
          "name": "totalInputValue",
          "type": "uint256"
        },
        {
          "internalType": "uint256",
          "name": "interactionNonce",
          "type": "uint256"
        },
        {
          "internalType": "uint64",
          "name": "auxData",
          "type": "uint64"
        },
        {
          "internalType": "address",
          "name": "",
          "type": "address"
        }
      ],
      "name": "convert",
      "outputs": [
        {
          "internalType": "uint256",
          "name": "",
          "type": "uint256"
        },
        {
          "internalType": "uint256",
          "name": "",
          "type": "uint256"
        },
        {
          "internalType": "bool",
          "name": "",
          "type": "bool"
        }
      ],
      "stateMutability": "payable",
      "type": "function"
    },
    {
      "inputs": [
        {
          "components": [
            {
              "internalType": "uint256",
              "name": "id",
              "type": "uint256"
            },
            {
              "internalType": "address",
              "name": "erc20Address",
              "type": "address"
            },
            {
              "internalType": "enum AztecTypes.AztecAssetType",
              "name": "assetType",
              "type": "uint8"
            }
          ],
          "internalType": "struct AztecTypes.AztecAsset",
          "name": "inputAssetA",
          "type": "tuple"
        },
        {
          "components": [
            {
              "internalType": "uint256",
              "name": "id",
              "type": "uint256"
            },
            {
              "internalType": "address",
              "name": "erc20Address",
              "type": "address"
            },
            {
              "internalType": "enum AztecTypes.AztecAssetType",
              "name": "assetType",
              "type": "uint8"
            }
          ],
          "internalType": "struct AztecTypes.AztecAsset",
          "name": "inputAssetB",
          "type": "tuple"
        },
        {
          "components": [
            {
              "internalType": "uint256",
              "name": "id",
              "type": "uint256"
            },
            {
              "internalType": "address",
              "name": "erc20Address",
              "type": "address"
            },
            {
              "internalType": "enum AztecTypes.AztecAssetType",
              "name": "assetType",
              "type": "uint8"
            }
          ],
          "internalType": "struct AztecTypes.AztecAsset",
          "name": "outputAssetA",
          "type": "tuple"
        },
        {
          "components": [
            {
              "internalType": "uint256",
              "name": "id",
              "type": "uint256"
            },
            {
              "internalType": "address",
              "name": "erc20Address",
              "type": "address"
            },
            {
              "internalType": "enum AztecTypes.AztecAssetType",
              "name": "assetType",
              "type": "uint8"
            }
          ],
          "internalType": "struct AztecTypes.AztecAsset",
          "name": "outputAssetB",
          "type": "tuple"
        },
        {
          "internalType": "uint256",
          "name": "interactionNonce",
          "type": "uint256"
        },
        {
          "internalType": "uint64",
          "name": "",
          "type": "uint64"
        }
      ],
      "name": "finalise",
      "outputs": [
        {
          "internalType": "uint256",
          "name": "",
          "type": "uint256"
        },
        {
          "internalType": "uint256",
          "name": "",
          "type": "uint256"
        },
        {
          "internalType": "bool",
          "name": "",
          "type": "bool"
        }
      ],
      "stateMutability": "payable",
      "type": "function"
    },
    {
      "inputs": [
        {
          "internalType": "uint256",
          "name": "interactionNonce",
          "type": "uint256"
        },
        {
          "internalType": "uint256",
          "name": "rate",
          "type": "uint256"
        }
      ],
      "name": "recordInterestRate",
      "outputs": [],
      "stateMutability": "nonpayable",
      "type": "function"
    },
    {
      "inputs": [],
      "name": "rollupProcessor",
      "outputs": [
        {
          "internalType": "address",
          "name": "",
          "type": "address"
        }
      ],
      "stateMutability": "view",
      "type": "function"
    },
    {
      "stateMutability": "payable",
      "type": "receive"
    }
  ],
  "bytecode": "0x61018060405234801561001157600080fd5b50604051610d70380380610d708339810160408190526100309161007c565b6001600160a01b0390971660805294151560a05260e09390935261010091909152610120526101405261016052151560c0526100fe565b8051801515811461007757600080fd5b919050565b600080600080600080600080610100898b03121561009957600080fd5b88516001600160a01b03811681146100b057600080fd5b97506100be60208a01610067565b965060408901519550606089015194506080890151935060a0890151925060c089015191506100ef60e08a01610067565b90509295985092959890939650565b60805160a05160c05160e05161010051610120516101405161016051610bba6101b66000396000818161033b01528181610501015261052d0152600081816103730152818161040501526105850152600081816101d8015281816102d50152610559015260006105cf015260006105ad015260008181610312015281816103ad015281816103d6015261042801526000610126015260008181609601528181610474015281816106ca01526107b40152610bba6000f3fe6080604052600436106100435760003560e01c806326c3b5151461004f5780632a113d6e146100845780637cfa98a8146100dd5780639b07d3421461010c57600080fd5b3661004a57005b600080fd5b61006261005d366004610911565b61011f565b6040805193845260208401929092521515908201526060015b60405180910390f35b34801561009057600080fd5b506100b87f000000000000000000000000000000000000000000000000000000000000000081565b60405173ffffffffffffffffffffffffffffffffffffffff909116815260200161007b565b3480156100e957600080fd5b5061010a6100f83660046109a3565b60009182526020829052604090912055565b005b61006261011a3660046109c5565b610458565b60008060007f00000000000000000000000000000000000000000000000000000000000000006101d6576040517f08c379a000000000000000000000000000000000000000000000000000000000815260206004820152602260248201527f4d6f636b446566694272696467653a2063616e436f6e76657274203d2066616c60448201527f736500000000000000000000000000000000000000000000000000000000000060648201526084015b60405180910390fd5b7f000000000000000000000000000000000000000000000000000000000000000067ffffffffffffffff8616600214801561021157508a5115155b156103105760038b60400151600381111561022e5761022e610a3a565b146102bb576040517f08c379a000000000000000000000000000000000000000000000000000000000815260206004820152602960248201527f4d6f636b446566694272696467653a20494e5055545f41535345545f415f4e4f60448201527f545f5649525455414c000000000000000000000000000000000000000000000060648201526084016101cd565b8a516000908152602081905260409020546064906102f9907f0000000000000000000000000000000000000000000000000000000000000000610a98565b6103039190610ad5565b61030d9082610b10565b90505b7f000000000000000000000000000000000000000000000000000000000000000061039a576103608c7f0000000000000000000000000000000000000000000000000000000000000000896105fe565b5061036c8a82896105fe565b50610398897f0000000000000000000000000000000000000000000000000000000000000000896105fe565b505b60008781526001602052604090208890557f000000000000000000000000000000000000000000000000000000000000000015610401576000807f00000000000000000000000000000000000000000000000000000000000000009350935093505061044a565b92507f000000000000000000000000000000000000000000000000000000000000000091507f000000000000000000000000000000000000000000000000000000000000000090505b985098509895505050505050565b600080803373ffffffffffffffffffffffffffffffffffffffff7f000000000000000000000000000000000000000000000000000000000000000016146104fb576040517f08c379a000000000000000000000000000000000000000000000000000000000815260206004820152600f60248201527f696e76616c69642073656e64657221000000000000000000000000000000000060448201526064016101cd565b610526897f0000000000000000000000000000000000000000000000000000000000000000876105fe565b50610552887f0000000000000000000000000000000000000000000000000000000000000000876105fe565b5061057e877f0000000000000000000000000000000000000000000000000000000000000000876105fe565b506105aa867f0000000000000000000000000000000000000000000000000000000000000000876105fe565b507f0000000000000000000000000000000000000000000000000000000000000000997f00000000000000000000000000000000000000000000000000000000000000009950600198509650505050505050565b600060018460400151600381111561061857610618610a3a565b14156107545782905060008260405160240161063691815260200190565b604080517fffffffffffffffffffffffffffffffffffffffffffffffffffffffffffffffe08184030181529181526020820180517bffffffffffffffffffffffffffffffffffffffffffffffffffffffff167f12a53623000000000000000000000000000000000000000000000000000000001790525190915060009073ffffffffffffffffffffffffffffffffffffffff7f0000000000000000000000000000000000000000000000000000000000000000169084906106f8908590610b27565b60006040518083038185875af1925050503d8060008114610735576040519150601f19603f3d011682016040523d82523d6000602084013e61073a565b606091505b505090508061074d573d6000803e3d6000fd5b5050610833565b60028460400151600381111561076c5761076c610a3a565b14156108335760208401516040517f095ea7b300000000000000000000000000000000000000000000000000000000815273ffffffffffffffffffffffffffffffffffffffff7f000000000000000000000000000000000000000000000000000000000000000081166004830152602482018690529091169063095ea7b3906044016020604051808303816000875af115801561080d573d6000803e3d6000fd5b505050506040513d601f19601f820116820180604052508101906108319190610b62565b505b9392505050565b803573ffffffffffffffffffffffffffffffffffffffff8116811461085e57600080fd5b919050565b60006060828403121561087557600080fd5b6040516060810181811067ffffffffffffffff821117156108bf577f4e487b7100000000000000000000000000000000000000000000000000000000600052604160045260246000fd5b604052823581529050806108d56020840161083a565b60208201526040830135600481106108ec57600080fd5b6040919091015292915050565b803567ffffffffffffffff8116811461085e57600080fd5b600080600080600080600080610200898b03121561092e57600080fd5b6109388a8a610863565b97506109478a60608b01610863565b96506109568a60c08b01610863565b95506109668a6101208b01610863565b945061018089013593506101a089013592506109856101c08a016108f9565b91506109946101e08a0161083a565b90509295985092959890939650565b600080604083850312156109b657600080fd5b50508035926020909101359150565b6000806000806000806101c087890312156109df57600080fd5b6109e98888610863565b95506109f88860608901610863565b9450610a078860c08901610863565b9350610a17886101208901610863565b92506101808701359150610a2e6101a088016108f9565b90509295509295509295565b7f4e487b7100000000000000000000000000000000000000000000000000000000600052602160045260246000fd5b7f4e487b7100000000000000000000000000000000000000000000000000000000600052601160045260246000fd5b6000817fffffffffffffffffffffffffffffffffffffffffffffffffffffffffffffffff0483118215151615610ad057610ad0610a69565b500290565b600082610b0b577f4e487b7100000000000000000000000000000000000000000000000000000000600052601260045260246000fd5b500490565b600082821015610b2257610b22610a69565b500390565b6000825160005b81811015610b485760208186018101518583015201610b2e565b81811115610b57576000828501525b509190910192915050565b600060208284031215610b7457600080fd5b8151801515811461083357600080fdfea2646970667358221220bde55041d86944e968bf84d7e0187a86c6ff8b0ad7ea70d020f9f7013c7f623f64736f6c634300080a0033",
  "linkReferences": {},
  "deployedLinkReferences": {}
}