{
  "_format": "hh-sol-artifact-1",
  "contractName": "SimpleUniBridge",
  "sourceName": "contracts/test/SimpleUniBridge.sol",
  "abi": [
    {
      "inputs": [
        {
          "internalType": "address",
          "name": "_rollupProcessor",
          "type": "address"
        },
        {
          "internalType": "address",
          "name": "_router",
          "type": "address"
        }
      ],
      "stateMutability": "nonpayable",
      "type": "constructor"
    },
    {
      "inputs": [
        {
          "components": [
            {
              "internalType": "uint256",
              "name": "id",
              "type": "uint256"
            },
            {
              "internalType": "address",
              "name": "erc20Address",
              "type": "address"
            },
            {
              "internalType": "enum AztecTypes.AztecAssetType",
              "name": "assetType",
              "type": "uint8"
            }
          ],
          "internalType": "struct AztecTypes.AztecAsset",
          "name": "inputAssetA",
          "type": "tuple"
        },
        {
          "components": [
            {
              "internalType": "uint256",
              "name": "id",
              "type": "uint256"
            },
            {
              "internalType": "address",
              "name": "erc20Address",
              "type": "address"
            },
            {
              "internalType": "enum AztecTypes.AztecAssetType",
              "name": "assetType",
              "type": "uint8"
            }
          ],
          "internalType": "struct AztecTypes.AztecAsset",
          "name": "inputAssetB",
          "type": "tuple"
        },
        {
          "components": [
            {
              "internalType": "uint256",
              "name": "id",
              "type": "uint256"
            },
            {
              "internalType": "address",
              "name": "erc20Address",
              "type": "address"
            },
            {
              "internalType": "enum AztecTypes.AztecAssetType",
              "name": "assetType",
              "type": "uint8"
            }
          ],
          "internalType": "struct AztecTypes.AztecAsset",
          "name": "outputAssetA",
          "type": "tuple"
        },
        {
          "components": [
            {
              "internalType": "uint256",
              "name": "id",
              "type": "uint256"
            },
            {
              "internalType": "address",
              "name": "erc20Address",
              "type": "address"
            },
            {
              "internalType": "enum AztecTypes.AztecAssetType",
              "name": "assetType",
              "type": "uint8"
            }
          ],
          "internalType": "struct AztecTypes.AztecAsset",
          "name": "outputAssetB",
          "type": "tuple"
        },
        {
          "internalType": "uint256",
          "name": "totalInputValue",
          "type": "uint256"
        },
        {
          "internalType": "uint256",
          "name": "interactionNonce",
          "type": "uint256"
        },
        {
          "internalType": "uint64",
          "name": "",
          "type": "uint64"
        },
        {
          "internalType": "address",
          "name": "",
          "type": "address"
        }
      ],
      "name": "convert",
      "outputs": [
        {
          "internalType": "uint256",
          "name": "outputValueA",
          "type": "uint256"
        },
        {
          "internalType": "uint256",
          "name": "outputValueB",
          "type": "uint256"
        },
        {
          "internalType": "bool",
          "name": "isAsync",
          "type": "bool"
        }
      ],
      "stateMutability": "payable",
      "type": "function"
    },
    {
      "inputs": [
        {
          "components": [
            {
              "internalType": "uint256",
              "name": "id",
              "type": "uint256"
            },
            {
              "internalType": "address",
              "name": "erc20Address",
              "type": "address"
            },
            {
              "internalType": "enum AztecTypes.AztecAssetType",
              "name": "assetType",
              "type": "uint8"
            }
          ],
          "internalType": "struct AztecTypes.AztecAsset",
          "name": "",
          "type": "tuple"
        },
        {
          "components": [
            {
              "internalType": "uint256",
              "name": "id",
              "type": "uint256"
            },
            {
              "internalType": "address",
              "name": "erc20Address",
              "type": "address"
            },
            {
              "internalType": "enum AztecTypes.AztecAssetType",
              "name": "assetType",
              "type": "uint8"
            }
          ],
          "internalType": "struct AztecTypes.AztecAsset",
          "name": "",
          "type": "tuple"
        },
        {
          "components": [
            {
              "internalType": "uint256",
              "name": "id",
              "type": "uint256"
            },
            {
              "internalType": "address",
              "name": "erc20Address",
              "type": "address"
            },
            {
              "internalType": "enum AztecTypes.AztecAssetType",
              "name": "assetType",
              "type": "uint8"
            }
          ],
          "internalType": "struct AztecTypes.AztecAsset",
          "name": "",
          "type": "tuple"
        },
        {
          "components": [
            {
              "internalType": "uint256",
              "name": "id",
              "type": "uint256"
            },
            {
              "internalType": "address",
              "name": "erc20Address",
              "type": "address"
            },
            {
              "internalType": "enum AztecTypes.AztecAssetType",
              "name": "assetType",
              "type": "uint8"
            }
          ],
          "internalType": "struct AztecTypes.AztecAsset",
          "name": "",
          "type": "tuple"
        },
        {
          "internalType": "uint256",
          "name": "",
          "type": "uint256"
        },
        {
          "internalType": "uint64",
          "name": "",
          "type": "uint64"
        }
      ],
      "name": "finalise",
      "outputs": [
        {
          "internalType": "uint256",
          "name": "",
          "type": "uint256"
        },
        {
          "internalType": "uint256",
          "name": "",
          "type": "uint256"
        },
        {
          "internalType": "bool",
          "name": "",
          "type": "bool"
        }
      ],
      "stateMutability": "payable",
      "type": "function"
    },
    {
      "inputs": [],
      "name": "rollupProcessor",
      "outputs": [
        {
          "internalType": "address",
          "name": "",
          "type": "address"
        }
      ],
      "stateMutability": "view",
      "type": "function"
    },
    {
      "inputs": [],
      "name": "weth",
      "outputs": [
        {
          "internalType": "address",
          "name": "",
          "type": "address"
        }
      ],
      "stateMutability": "view",
      "type": "function"
    },
    {
      "stateMutability": "payable",
      "type": "receive"
    }
  ],
  "bytecode": "0x60a06040523480156200001157600080fd5b506040516200129d3803806200129d833981016040819052620000349162000100565b6001600160a01b03828116608052600180546001600160a01b0319169183169182179055604080516315ab88c960e31b8152905163ad5c4648916004808201926020929091908290030181865afa15801562000094573d6000803e3d6000fd5b505050506040513d601f19601f82011682018060405250810190620000ba919062000138565b600080546001600160a01b0319166001600160a01b0392909216919091179055506200015d9050565b80516001600160a01b0381168114620000fb57600080fd5b919050565b600080604083850312156200011457600080fd5b6200011f83620000e3565b91506200012f60208401620000e3565b90509250929050565b6000602082840312156200014b57600080fd5b6200015682620000e3565b9392505050565b6080516111026200019b600039600081816096015281816101120152818161049e015281816107e401528181610b500152610bf501526111026000f3fe6080604052600436106100435760003560e01c806326c3b5151461004f5780632a113d6e146100845780633fc8cef3146100d05780639b07d342146100f057600080fd5b3661004a57005b600080fd5b61006261005d366004610da8565b610103565b6040805193845260208401929092521515908201526060015b60405180910390f35b34801561009057600080fd5b506100b87f000000000000000000000000000000000000000000000000000000000000000081565b6040516001600160a01b03909116815260200161007b565b3480156100dc57600080fd5b506000546100b8906001600160a01b031681565b6100626100fe366004610e3a565b610c9c565b60008080336001600160a01b037f000000000000000000000000000000000000000000000000000000000000000016146101845760405162461bcd60e51b815260206004820152601d60248201527f556e69737761704272696467653a20494e56414c49445f43414c4c455200000060448201526064015b60405180910390fd5b60008a60400151600381111561019c5761019c610eaf565b1461020f5760405162461bcd60e51b815260206004820152603360248201527f556e69737761704272696467653a2045585045435445445f5345434f4e445f4960448201527f4e5055545f41535345545f4e4f545f5553454400000000000000000000000000606482015260840161017b565b60008860400151600381111561022757610227610eaf565b1461029a5760405162461bcd60e51b815260206004820152603460248201527f556e69737761704272696467653a2045585045435445445f5345434f4e445f4f60448201527f55545055545f41535345545f4e4f545f55534544000000000000000000000000606482015260840161017b565b50600090508060604260018d6040015160038111156102bb576102bb610eaf565b14156105395760018b6040015160038111156102d9576102d9610eaf565b141561034d5760405162461bcd60e51b815260206004820152602960248201527f556e69737761704272696467653a20494e5055545f414e445f4f55545055545f60448201527f424f54485f455448210000000000000000000000000000000000000000000000606482015260840161017b565b60408051600280825260608201835260009260208301908036833750506000805483519394506001600160a01b03169284925061038c5761038c610ede565b60200260200101906001600160a01b031690816001600160a01b0316815250508b60200151816001815181106103c4576103c4610ede565b6001600160a01b0392831660209182029290920101526001546040517f7ff36ab5000000000000000000000000000000000000000000000000000000008152911690637ff36ab5908c9061042390600090869030908990600401610f51565b60006040518083038185885af1158015610441573d6000803e3d6000fd5b50505050506040513d6000823e601f3d908101601f1916820160405261046a9190810190610f86565b92508260018151811061047f5761047f610ede565b602002602001015195508b602001516001600160a01b031663095ea7b37f0000000000000000000000000000000000000000000000000000000000000000886040518363ffffffff1660e01b81526004016104ef9291906001600160a01b03929092168252602082015260400190565b6020604051808303816000875af115801561050e573d6000803e3d6000fd5b505050506040513d601f19601f82011682018060405250810190610532919061102c565b5050610c8c565b60018b60400151600381111561055157610551610eaf565b141561085e576040805160028082526060820183526000926020830190803683370190505090508d602001518160008151811061059057610590610ede565b6001600160a01b0392831660209182029290920101526000548251911690829060019081106105c1576105c1610ede565b6001600160a01b039283166020918202929092018101919091528f01516001546040517f095ea7b30000000000000000000000000000000000000000000000000000000081529083166004820152602481018d905291169063095ea7b3906044016020604051808303816000875af1158015610641573d6000803e3d6000fd5b505050506040513d601f19601f82011682018060405250810190610665919061102c565b6106b15760405162461bcd60e51b815260206004820152601d60248201527f556e69737761704272696467653a20415050524f56455f4641494c4544000000604482015260640161017b565b6001546040517f18cbafe50000000000000000000000000000000000000000000000000000000081526001600160a01b03909116906318cbafe590610703908d90600090869030908990600401611055565b6000604051808303816000875af1158015610722573d6000803e3d6000fd5b505050506040513d6000823e601f3d908101601f1916820160405261074a9190810190610f86565b92508260018151811061075f5761075f610ede565b6020026020010151955060008960405160240161077e91815260200190565b60408051601f198184030181529181526020820180517bffffffffffffffffffffffffffffffffffffffffffffffffffffffff167f12a5362300000000000000000000000000000000000000000000000000000000179052519091506001600160a01b037f000000000000000000000000000000000000000000000000000000000000000016908890610812908490611091565b60006040518083038185875af1925050503d806000811461084f576040519150601f19603f3d011682016040523d82523d6000602084013e610854565b606091505b5050505050610c8c565b60028d60400151600381111561087657610876610eaf565b146108e95760405162461bcd60e51b815260206004820152602d60248201527f556e69737761704272696467653a20494e5055545f41535345545f415f4e4f5460448201527f5f4554485f4f525f455243323000000000000000000000000000000000000000606482015260840161017b565b60028b60400151600381111561090157610901610eaf565b146109745760405162461bcd60e51b815260206004820152602e60248201527f556e69737761704272696467653a204f55545055545f41535345545f415f4e4f60448201527f545f4554485f4f525f4552433230000000000000000000000000000000000000606482015260840161017b565b60408051600380825260808201909252600091602082016060803683370190505090508d60200151816000815181106109af576109af610ede565b6001600160a01b0392831660209182029290920101526000548251911690829060019081106109e0576109e0610ede565b60200260200101906001600160a01b031690816001600160a01b0316815250508b6020015181600281518110610a1857610a18610ede565b6001600160a01b039283166020918202929092018101919091528f01516001546040517f095ea7b30000000000000000000000000000000000000000000000000000000081529083166004820152602481018d905291169063095ea7b3906044016020604051808303816000875af1158015610a98573d6000803e3d6000fd5b505050506040513d601f19601f82011682018060405250810190610abc919061102c565b610b085760405162461bcd60e51b815260206004820152601d60248201527f556e69737761704272696467653a20415050524f56455f4641494c4544000000604482015260640161017b565b6001546040517f38ed17390000000000000000000000000000000000000000000000000000000081526001600160a01b03909116906338ed173990610b7a908d9060009086907f0000000000000000000000000000000000000000000000000000000000000000908990600401611055565b6000604051808303816000875af1158015610b99573d6000803e3d6000fd5b505050506040513d6000823e601f3d908101601f19168201604052610bc19190810190610f86565b925082600281518110610bd657610bd6610ede565b602002602001015195508b602001516001600160a01b031663095ea7b37f0000000000000000000000000000000000000000000000000000000000000000886040518363ffffffff1660e01b8152600401610c469291906001600160a01b03929092168252602082015260400190565b6020604051808303816000875af1158015610c65573d6000803e3d6000fd5b505050506040513d601f19601f82011682018060405250810190610c89919061102c565b50505b5050985098509895505050505050565b60008080600080fd5b7f4e487b7100000000000000000000000000000000000000000000000000000000600052604160045260246000fd5b604051601f8201601f1916810167ffffffffffffffff81118282101715610cfd57610cfd610ca5565b604052919050565b80356001600160a01b0381168114610d1c57600080fd5b919050565b600060608284031215610d3357600080fd5b6040516060810181811067ffffffffffffffff82111715610d5657610d56610ca5565b60405282358152905080610d6c60208401610d05565b6020820152604083013560048110610d8357600080fd5b6040919091015292915050565b803567ffffffffffffffff81168114610d1c57600080fd5b600080600080600080600080610200898b031215610dc557600080fd5b610dcf8a8a610d21565b9750610dde8a60608b01610d21565b9650610ded8a60c08b01610d21565b9550610dfd8a6101208b01610d21565b945061018089013593506101a08901359250610e1c6101c08a01610d90565b9150610e2b6101e08a01610d05565b90509295985092959890939650565b6000806000806000806101c08789031215610e5457600080fd5b610e5e8888610d21565b9550610e6d8860608901610d21565b9450610e7c8860c08901610d21565b9350610e8c886101208901610d21565b92506101808701359150610ea36101a08801610d90565b90509295509295509295565b7f4e487b7100000000000000000000000000000000000000000000000000000000600052602160045260246000fd5b7f4e487b7100000000000000000000000000000000000000000000000000000000600052603260045260246000fd5b600081518084526020808501945080840160005b83811015610f465781516001600160a01b031687529582019590820190600101610f21565b509495945050505050565b848152608060208201526000610f6a6080830186610f0d565b6001600160a01b03949094166040830152506060015292915050565b60006020808385031215610f9957600080fd5b825167ffffffffffffffff80821115610fb157600080fd5b818501915085601f830112610fc557600080fd5b815181811115610fd757610fd7610ca5565b8060051b9150610fe8848301610cd4565b818152918301840191848101908884111561100257600080fd5b938501935b8385101561102057845182529385019390850190611007565b98975050505050505050565b60006020828403121561103e57600080fd5b8151801515811461104e57600080fd5b9392505050565b85815284602082015260a06040820152600061107460a0830186610f0d565b6001600160a01b0394909416606083015250608001529392505050565b6000825160005b818110156110b25760208186018101518583015201611098565b818111156110c1576000828501525b50919091019291505056fea26469706673582212209cdf2cc729b306a24631a9d067dcb5d03f75012f71d929437f859c746889d9fd64736f6c634300080a0033",
  "linkReferences": {},
  "deployedLinkReferences": {}
}