{
  "abi": [
    {
      "inputs": [
        {
          "internalType": "uint256",
          "name": "_escapeBlockLowerBound",
          "type": "uint256"
        },
        {
          "internalType": "uint256",
          "name": "_escapeBlockUpperBound",
          "type": "uint256"
        }
      ],
      "stateMutability": "nonpayable",
      "type": "constructor"
    },
    {
      "inputs": [],
      "name": "ARRAY_OVERFLOW",
      "type": "error"
    },
    {
      "inputs": [
        {
          "internalType": "uint256",
          "name": "inputAssetId",
          "type": "uint256"
        }
      ],
      "name": "BRIDGE_WITH_IDENTICAL_INPUT_ASSETS",
      "type": "error"
    },
    {
      "inputs": [
        {
          "internalType": "uint256",
          "name": "outputAssetId",
          "type": "uint256"
        }
      ],
      "name": "BRIDGE_WITH_IDENTICAL_OUTPUT_ASSETS",
      "type": "error"
    },
    {
      "inputs": [],
      "name": "DAILY_CAP_SURPASSED",
      "type": "error"
    },
    {
      "inputs": [],
      "name": "DEPOSIT_TOKENS_WRONG_PAYMENT_TYPE",
      "type": "error"
    },
    {
      "inputs": [],
      "name": "ENCODING_BYTE_INVALID",
      "type": "error"
    },
    {
      "inputs": [],
      "name": "INCONSISTENT_BRIDGE_CALL_DATA",
      "type": "error"
    },
    {
      "inputs": [
        {
          "internalType": "uint256",
          "name": "providedIndex",
          "type": "uint256"
        },
        {
          "internalType": "uint256",
          "name": "expectedIndex",
          "type": "uint256"
        }
      ],
      "name": "INCORRECT_DATA_START_INDEX",
      "type": "error"
    },
    {
      "inputs": [
        {
          "internalType": "bytes32",
          "name": "providedDefiInteractionHash",
          "type": "bytes32"
        },
        {
          "internalType": "bytes32",
          "name": "expectedDefiInteractionHash",
          "type": "bytes32"
        }
      ],
      "name": "INCORRECT_PREVIOUS_DEFI_INTERACTION_HASH",
      "type": "error"
    },
    {
      "inputs": [
        {
          "internalType": "bytes32",
          "name": "oldStateHash",
          "type": "bytes32"
        },
        {
          "internalType": "bytes32",
          "name": "newStateHash",
          "type": "bytes32"
        }
      ],
      "name": "INCORRECT_STATE_HASH",
      "type": "error"
    },
    {
      "inputs": [],
      "name": "INSUFFICIENT_DEPOSIT",
      "type": "error"
    },
    {
      "inputs": [],
      "name": "INSUFFICIENT_ETH_PAYMENT",
      "type": "error"
    },
    {
      "inputs": [],
      "name": "INSUFFICIENT_TOKEN_APPROVAL",
      "type": "error"
    },
    {
      "inputs": [],
      "name": "INVALID_ADDRESS_NO_CODE",
      "type": "error"
    },
    {
      "inputs": [],
      "name": "INVALID_ASSET_ADDRESS",
      "type": "error"
    },
    {
      "inputs": [],
      "name": "INVALID_ASSET_GAS",
      "type": "error"
    },
    {
      "inputs": [],
      "name": "INVALID_ASSET_ID",
      "type": "error"
    },
    {
      "inputs": [],
      "name": "INVALID_BRIDGE_ADDRESS",
      "type": "error"
    },
    {
      "inputs": [],
      "name": "INVALID_BRIDGE_CALL_DATA",
      "type": "error"
    },
    {
      "inputs": [],
      "name": "INVALID_BRIDGE_GAS",
      "type": "error"
    },
    {
      "inputs": [],
      "name": "INVALID_ESCAPE_BOUNDS",
      "type": "error"
    },
    {
      "inputs": [],
      "name": "INVALID_PROVIDER",
      "type": "error"
    },
    {
      "inputs": [],
      "name": "INVALID_ROLLUP_TOPOLOGY",
      "type": "error"
    },
    {
      "inputs": [],
      "name": "INVALID_SIGNATURE",
      "type": "error"
    },
    {
      "inputs": [],
      "name": "LOCKED_NO_REENTER",
      "type": "error"
    },
    {
      "inputs": [],
      "name": "MSG_VALUE_WRONG_AMOUNT",
      "type": "error"
    },
    {
      "inputs": [
        {
          "internalType": "uint256",
          "name": "outputValue",
          "type": "uint256"
        }
      ],
      "name": "NONZERO_OUTPUT_VALUE_ON_NOT_USED_ASSET",
      "type": "error"
    },
    {
      "inputs": [],
      "name": "NOT_PAUSED",
      "type": "error"
    },
    {
      "inputs": [],
      "name": "PAUSED",
      "type": "error"
    },
    {
      "inputs": [],
      "name": "PENDING_CAP_SURPASSED",
      "type": "error"
    },
    {
      "inputs": [],
      "name": "PROOF_VERIFICATION_FAILED",
      "type": "error"
    },
    {
      "inputs": [
        {
          "internalType": "uint256",
          "name": "",
          "type": "uint256"
        },
        {
          "internalType": "uint256",
          "name": "",
          "type": "uint256"
        }
      ],
      "name": "PUBLIC_INPUTS_HASH_VERIFICATION_FAILED",
      "type": "error"
    },
    {
      "inputs": [],
      "name": "SAFE_CAST_OVERFLOW",
      "type": "error"
    },
    {
      "inputs": [],
      "name": "SIGNATURE_ADDRESS_IS_ZERO",
      "type": "error"
    },
    {
      "inputs": [],
      "name": "SIGNATURE_RECOVERY_FAILED",
      "type": "error"
    },
    {
      "inputs": [],
      "name": "THIRD_PARTY_CONTRACTS_FLAG_NOT_SET",
      "type": "error"
    },
    {
      "inputs": [],
      "name": "WITHDRAW_TO_ZERO_ADDRESS",
      "type": "error"
    },
    {
      "inputs": [],
      "name": "ZERO_TOTAL_INPUT_VALUE",
      "type": "error"
    },
    {
      "anonymous": false,
      "inputs": [
        {
          "indexed": false,
          "internalType": "bool",
          "name": "allowed",
          "type": "bool"
        }
      ],
      "name": "AllowThirdPartyContractsUpdated",
      "type": "event"
    },
    {
      "anonymous": false,
      "inputs": [
        {
          "indexed": true,
          "internalType": "uint256",
          "name": "assetId",
          "type": "uint256"
        },
        {
          "indexed": true,
          "internalType": "address",
          "name": "assetAddress",
          "type": "address"
        },
        {
          "indexed": false,
          "internalType": "uint256",
          "name": "assetGasLimit",
          "type": "uint256"
        }
      ],
      "name": "AssetAdded",
      "type": "event"
    },
    {
      "anonymous": false,
      "inputs": [
        {
          "indexed": false,
          "internalType": "uint256",
          "name": "assetId",
          "type": "uint256"
        },
        {
          "indexed": false,
          "internalType": "uint256",
          "name": "pendingCap",
          "type": "uint256"
        },
        {
          "indexed": false,
          "internalType": "uint256",
          "name": "dailyCap",
          "type": "uint256"
        }
      ],
      "name": "AssetCapUpdated",
      "type": "event"
    },
    {
      "anonymous": false,
      "inputs": [
        {
          "indexed": true,
          "internalType": "uint256",
          "name": "encodedBridgeCallData",
          "type": "uint256"
        },
        {
          "indexed": true,
          "internalType": "uint256",
          "name": "nonce",
          "type": "uint256"
        },
        {
          "indexed": false,
          "internalType": "uint256",
          "name": "totalInputValue",
          "type": "uint256"
        }
      ],
      "name": "AsyncDefiBridgeProcessed",
      "type": "event"
    },
    {
      "anonymous": false,
      "inputs": [
        {
          "indexed": true,
          "internalType": "uint256",
          "name": "bridgeAddressId",
          "type": "uint256"
        },
        {
          "indexed": true,
          "internalType": "address",
          "name": "bridgeAddress",
          "type": "address"
        },
        {
          "indexed": false,
          "internalType": "uint256",
          "name": "bridgeGasLimit",
          "type": "uint256"
        }
      ],
      "name": "BridgeAdded",
      "type": "event"
    },
    {
      "anonymous": false,
      "inputs": [
        {
          "indexed": false,
          "internalType": "bool",
          "name": "isCapped",
          "type": "bool"
        }
      ],
      "name": "CappedUpdated",
      "type": "event"
    },
    {
      "anonymous": false,
      "inputs": [
        {
          "indexed": true,
          "internalType": "uint256",
          "name": "encodedBridgeCallData",
          "type": "uint256"
        },
        {
          "indexed": true,
          "internalType": "uint256",
          "name": "nonce",
          "type": "uint256"
        },
        {
          "indexed": false,
          "internalType": "uint256",
          "name": "totalInputValue",
          "type": "uint256"
        },
        {
          "indexed": false,
          "internalType": "uint256",
          "name": "totalOutputValueA",
          "type": "uint256"
        },
        {
          "indexed": false,
          "internalType": "uint256",
          "name": "totalOutputValueB",
          "type": "uint256"
        },
        {
          "indexed": false,
          "internalType": "bool",
          "name": "result",
          "type": "bool"
        },
        {
          "indexed": false,
          "internalType": "bytes",
          "name": "errorReason",
          "type": "bytes"
        }
      ],
      "name": "DefiBridgeProcessed",
      "type": "event"
    },
    {
      "anonymous": false,
      "inputs": [
        {
          "indexed": false,
          "internalType": "address",
          "name": "defiBridgeProxy",
          "type": "address"
        }
      ],
      "name": "DefiBridgeProxyUpdated",
      "type": "event"
    },
    {
      "anonymous": false,
      "inputs": [
        {
          "indexed": false,
          "internalType": "uint32",
          "name": "delay",
          "type": "uint32"
        }
      ],
      "name": "DelayBeforeEscapeHatchUpdated",
      "type": "event"
    },
    {
      "anonymous": false,
      "inputs": [
        {
          "indexed": true,
          "internalType": "uint256",
          "name": "assetId",
          "type": "uint256"
        },
        {
          "indexed": true,
          "internalType": "address",
          "name": "depositorAddress",
          "type": "address"
        },
        {
          "indexed": false,
          "internalType": "uint256",
          "name": "depositValue",
          "type": "uint256"
        }
      ],
      "name": "Deposit",
      "type": "event"
    },
    {
      "anonymous": false,
      "inputs": [
        {
          "indexed": false,
          "internalType": "uint8",
          "name": "version",
          "type": "uint8"
        }
      ],
      "name": "Initialized",
      "type": "event"
    },
    {
      "anonymous": false,
      "inputs": [
        {
          "indexed": true,
          "internalType": "uint256",
          "name": "rollupId",
          "type": "uint256"
        },
        {
          "indexed": false,
          "internalType": "uint256",
          "name": "chunk",
          "type": "uint256"
        },
        {
          "indexed": false,
          "internalType": "uint256",
          "name": "totalChunks",
          "type": "uint256"
        },
        {
          "indexed": false,
          "internalType": "address",
          "name": "sender",
          "type": "address"
        }
      ],
      "name": "OffchainData",
      "type": "event"
    },
    {
      "anonymous": false,
      "inputs": [
        {
          "indexed": false,
          "internalType": "address",
          "name": "account",
          "type": "address"
        }
      ],
      "name": "Paused",
      "type": "event"
    },
    {
      "anonymous": false,
      "inputs": [
        {
          "indexed": true,
          "internalType": "bytes32",
          "name": "role",
          "type": "bytes32"
        },
        {
          "indexed": true,
          "internalType": "bytes32",
          "name": "previousAdminRole",
          "type": "bytes32"
        },
        {
          "indexed": true,
          "internalType": "bytes32",
          "name": "newAdminRole",
          "type": "bytes32"
        }
      ],
      "name": "RoleAdminChanged",
      "type": "event"
    },
    {
      "anonymous": false,
      "inputs": [
        {
          "indexed": true,
          "internalType": "bytes32",
          "name": "role",
          "type": "bytes32"
        },
        {
          "indexed": true,
          "internalType": "address",
          "name": "account",
          "type": "address"
        },
        {
          "indexed": true,
          "internalType": "address",
          "name": "sender",
          "type": "address"
        }
      ],
      "name": "RoleGranted",
      "type": "event"
    },
    {
      "anonymous": false,
      "inputs": [
        {
          "indexed": true,
          "internalType": "bytes32",
          "name": "role",
          "type": "bytes32"
        },
        {
          "indexed": true,
          "internalType": "address",
          "name": "account",
          "type": "address"
        },
        {
          "indexed": true,
          "internalType": "address",
          "name": "sender",
          "type": "address"
        }
      ],
      "name": "RoleRevoked",
      "type": "event"
    },
    {
      "anonymous": false,
      "inputs": [
        {
          "indexed": true,
          "internalType": "uint256",
          "name": "rollupId",
          "type": "uint256"
        },
        {
          "indexed": false,
          "internalType": "bytes32[]",
          "name": "nextExpectedDefiHashes",
          "type": "bytes32[]"
        },
        {
          "indexed": false,
          "internalType": "address",
          "name": "sender",
          "type": "address"
        }
      ],
      "name": "RollupProcessed",
      "type": "event"
    },
    {
      "anonymous": false,
      "inputs": [
        {
          "indexed": true,
          "internalType": "address",
          "name": "providerAddress",
          "type": "address"
        },
        {
          "indexed": false,
          "internalType": "bool",
          "name": "valid",
          "type": "bool"
        }
      ],
      "name": "RollupProviderUpdated",
      "type": "event"
    },
    {
      "anonymous": false,
      "inputs": [
        {
          "indexed": false,
          "internalType": "address",
          "name": "account",
          "type": "address"
        }
      ],
      "name": "Unpaused",
      "type": "event"
    },
    {
      "anonymous": false,
      "inputs": [
        {
          "indexed": true,
          "internalType": "address",
          "name": "verifierAddress",
          "type": "address"
        }
      ],
      "name": "VerifierUpdated",
      "type": "event"
    },
    {
      "inputs": [],
      "name": "DEFAULT_ADMIN_ROLE",
      "outputs": [
        {
          "internalType": "bytes32",
          "name": "",
          "type": "bytes32"
        }
      ],
      "stateMutability": "view",
      "type": "function"
    },
    {
      "inputs": [],
      "name": "EMERGENCY_ROLE",
      "outputs": [
        {
          "internalType": "bytes32",
          "name": "",
          "type": "bytes32"
        }
      ],
      "stateMutability": "view",
      "type": "function"
    },
    {
      "inputs": [],
      "name": "LISTER_ROLE",
      "outputs": [
        {
          "internalType": "bytes32",
          "name": "",
          "type": "bytes32"
        }
      ],
      "stateMutability": "view",
      "type": "function"
    },
    {
      "inputs": [],
      "name": "OWNER_ROLE",
      "outputs": [
        {
          "internalType": "bytes32",
          "name": "",
          "type": "bytes32"
        }
      ],
      "stateMutability": "view",
      "type": "function"
    },
    {
      "inputs": [],
      "name": "RESUME_ROLE",
      "outputs": [
        {
          "internalType": "bytes32",
          "name": "",
          "type": "bytes32"
        }
      ],
      "stateMutability": "view",
      "type": "function"
    },
    {
      "inputs": [],
      "name": "allowThirdPartyContracts",
      "outputs": [
        {
          "internalType": "bool",
          "name": "",
          "type": "bool"
        }
      ],
      "stateMutability": "view",
      "type": "function"
    },
    {
      "inputs": [
        {
          "internalType": "bytes32",
          "name": "_proofHash",
          "type": "bytes32"
        }
      ],
      "name": "approveProof",
      "outputs": [],
      "stateMutability": "nonpayable",
      "type": "function"
    },
    {
      "inputs": [
        {
          "internalType": "uint256",
          "name": "",
          "type": "uint256"
        }
      ],
      "name": "assetGasLimits",
      "outputs": [
        {
          "internalType": "uint256",
          "name": "",
          "type": "uint256"
        }
      ],
      "stateMutability": "view",
      "type": "function"
    },
    {
      "inputs": [
        {
          "internalType": "uint256",
          "name": "",
          "type": "uint256"
        }
      ],
      "name": "asyncDefiInteractionHashes",
      "outputs": [
        {
          "internalType": "bytes32",
          "name": "",
          "type": "bytes32"
        }
      ],
      "stateMutability": "view",
      "type": "function"
    },
    {
      "inputs": [
        {
          "internalType": "uint256",
          "name": "",
          "type": "uint256"
        }
      ],
      "name": "bridgeGasLimits",
      "outputs": [
        {
          "internalType": "uint256",
          "name": "",
          "type": "uint256"
        }
      ],
      "stateMutability": "view",
      "type": "function"
    },
    {
      "inputs": [
        {
          "internalType": "uint256",
          "name": "",
          "type": "uint256"
        }
      ],
      "name": "caps",
      "outputs": [
        {
          "internalType": "uint128",
          "name": "available",
          "type": "uint128"
        },
        {
          "internalType": "uint32",
          "name": "lastUpdatedTimestamp",
          "type": "uint32"
        },
        {
          "internalType": "uint32",
          "name": "pendingCap",
          "type": "uint32"
        },
        {
          "internalType": "uint32",
          "name": "dailyCap",
          "type": "uint32"
        },
        {
          "internalType": "uint8",
          "name": "precision",
          "type": "uint8"
        }
      ],
      "stateMutability": "view",
      "type": "function"
    },
    {
      "inputs": [],
      "name": "defiBridgeProxy",
      "outputs": [
        {
          "internalType": "address",
          "name": "",
          "type": "address"
        }
      ],
      "stateMutability": "view",
      "type": "function"
    },
    {
      "inputs": [
        {
          "internalType": "uint256",
          "name": "",
          "type": "uint256"
        }
      ],
      "name": "defiInteractionHashes",
      "outputs": [
        {
          "internalType": "bytes32",
          "name": "",
          "type": "bytes32"
        }
      ],
      "stateMutability": "view",
      "type": "function"
    },
    {
      "inputs": [],
      "name": "delayBeforeEscapeHatch",
      "outputs": [
        {
          "internalType": "uint32",
          "name": "",
          "type": "uint32"
        }
      ],
      "stateMutability": "view",
      "type": "function"
    },
    {
      "inputs": [
        {
          "internalType": "uint256",
          "name": "_assetId",
          "type": "uint256"
        },
        {
          "internalType": "uint256",
          "name": "_amount",
          "type": "uint256"
        },
        {
          "internalType": "address",
          "name": "_owner",
          "type": "address"
        },
        {
          "internalType": "bytes32",
          "name": "_proofHash",
          "type": "bytes32"
        }
      ],
      "name": "depositPendingFunds",
      "outputs": [],
      "stateMutability": "payable",
      "type": "function"
    },
    {
      "inputs": [
        {
          "internalType": "address",
          "name": "",
          "type": "address"
        },
        {
          "internalType": "bytes32",
          "name": "",
          "type": "bytes32"
        }
      ],
      "name": "depositProofApprovals",
      "outputs": [
        {
          "internalType": "bool",
          "name": "",
          "type": "bool"
        }
      ],
      "stateMutability": "view",
      "type": "function"
    },
    {
      "inputs": [],
      "name": "escapeBlockLowerBound",
      "outputs": [
        {
          "internalType": "uint256",
          "name": "",
          "type": "uint256"
        }
      ],
      "stateMutability": "view",
      "type": "function"
    },
    {
      "inputs": [],
      "name": "escapeBlockUpperBound",
      "outputs": [
        {
          "internalType": "uint256",
          "name": "",
          "type": "uint256"
        }
      ],
      "stateMutability": "view",
      "type": "function"
    },
    {
      "inputs": [
        {
          "internalType": "uint256",
          "name": "",
          "type": "uint256"
        }
      ],
      "name": "ethPayments",
      "outputs": [
        {
          "internalType": "uint256",
          "name": "",
          "type": "uint256"
        }
      ],
      "stateMutability": "view",
      "type": "function"
    },
    {
      "inputs": [],
      "name": "getAsyncDefiInteractionHashesLength",
      "outputs": [
        {
          "internalType": "uint256",
          "name": "",
          "type": "uint256"
        }
      ],
      "stateMutability": "view",
      "type": "function"
    },
    {
      "inputs": [],
      "name": "getCapped",
      "outputs": [
        {
          "internalType": "bool",
          "name": "capped",
          "type": "bool"
        }
      ],
      "stateMutability": "view",
      "type": "function"
    },
    {
      "inputs": [],
      "name": "getDataSize",
      "outputs": [
        {
          "internalType": "uint256",
          "name": "dataSize",
          "type": "uint256"
        }
      ],
      "stateMutability": "view",
      "type": "function"
    },
    {
      "inputs": [],
      "name": "getDefiInteractionHashesLength",
      "outputs": [
        {
          "internalType": "uint256",
          "name": "",
          "type": "uint256"
        }
      ],
      "stateMutability": "view",
      "type": "function"
    },
    {
      "inputs": [],
      "name": "getEscapeHatchStatus",
      "outputs": [
        {
          "internalType": "bool",
          "name": "",
          "type": "bool"
        },
        {
          "internalType": "uint256",
          "name": "",
          "type": "uint256"
        }
      ],
      "stateMutability": "view",
      "type": "function"
    },
    {
      "inputs": [],
      "name": "getImplementationVersion",
      "outputs": [
        {
          "internalType": "uint8",
          "name": "version",
          "type": "uint8"
        }
      ],
      "stateMutability": "view",
      "type": "function"
    },
    {
      "inputs": [],
      "name": "getPendingDefiInteractionHashesLength",
      "outputs": [
        {
          "internalType": "uint256",
          "name": "",
          "type": "uint256"
        }
      ],
      "stateMutability": "view",
      "type": "function"
    },
    {
      "inputs": [
        {
          "internalType": "bytes32",
          "name": "role",
          "type": "bytes32"
        }
      ],
      "name": "getRoleAdmin",
      "outputs": [
        {
          "internalType": "bytes32",
          "name": "",
          "type": "bytes32"
        }
      ],
      "stateMutability": "view",
      "type": "function"
    },
    {
      "inputs": [
        {
          "internalType": "uint256",
          "name": "_assetId",
          "type": "uint256"
        }
      ],
      "name": "getSupportedAsset",
      "outputs": [
        {
          "internalType": "address",
          "name": "",
          "type": "address"
        }
      ],
      "stateMutability": "view",
      "type": "function"
    },
    {
      "inputs": [],
      "name": "getSupportedAssetsLength",
      "outputs": [
        {
          "internalType": "uint256",
          "name": "",
          "type": "uint256"
        }
      ],
      "stateMutability": "view",
      "type": "function"
    },
    {
      "inputs": [
        {
          "internalType": "uint256",
          "name": "_bridgeAddressId",
          "type": "uint256"
        }
      ],
      "name": "getSupportedBridge",
      "outputs": [
        {
          "internalType": "address",
          "name": "",
          "type": "address"
        }
      ],
      "stateMutability": "view",
      "type": "function"
    },
    {
      "inputs": [],
      "name": "getSupportedBridgesLength",
      "outputs": [
        {
          "internalType": "uint256",
          "name": "",
          "type": "uint256"
        }
      ],
      "stateMutability": "view",
      "type": "function"
    },
    {
      "inputs": [
        {
          "internalType": "bytes32",
          "name": "role",
          "type": "bytes32"
        },
        {
          "internalType": "address",
          "name": "account",
          "type": "address"
        }
      ],
      "name": "grantRole",
      "outputs": [],
      "stateMutability": "nonpayable",
      "type": "function"
    },
    {
      "inputs": [
        {
          "internalType": "bytes32",
          "name": "role",
          "type": "bytes32"
        },
        {
          "internalType": "address",
          "name": "account",
          "type": "address"
        }
      ],
      "name": "hasRole",
      "outputs": [
        {
          "internalType": "bool",
          "name": "",
          "type": "bool"
        }
      ],
      "stateMutability": "view",
      "type": "function"
    },
    {
      "inputs": [],
      "name": "initialize",
      "outputs": [],
      "stateMutability": "nonpayable",
      "type": "function"
    },
    {
      "inputs": [],
      "name": "lastRollupTimeStamp",
      "outputs": [
        {
          "internalType": "uint32",
          "name": "",
          "type": "uint32"
        }
      ],
      "stateMutability": "view",
      "type": "function"
    },
    {
      "inputs": [
        {
          "internalType": "uint256",
          "name": "_rollupId",
          "type": "uint256"
        },
        {
          "internalType": "uint256",
          "name": "_chunk",
          "type": "uint256"
        },
        {
          "internalType": "uint256",
          "name": "_totalChunks",
          "type": "uint256"
        },
        {
          "internalType": "bytes",
          "name": "",
          "type": "bytes"
        }
      ],
      "name": "offchainData",
      "outputs": [],
      "stateMutability": "nonpayable",
      "type": "function"
    },
    {
      "inputs": [],
      "name": "pause",
      "outputs": [],
      "stateMutability": "nonpayable",
      "type": "function"
    },
    {
      "inputs": [],
      "name": "paused",
      "outputs": [
        {
          "internalType": "bool",
          "name": "isPaused",
          "type": "bool"
        }
      ],
      "stateMutability": "view",
      "type": "function"
    },
    {
      "inputs": [
        {
          "internalType": "uint256",
          "name": "",
          "type": "uint256"
        }
      ],
      "name": "pendingDefiInteractions",
      "outputs": [
        {
          "internalType": "uint256",
          "name": "encodedBridgeCallData",
          "type": "uint256"
        },
        {
          "internalType": "uint256",
          "name": "totalInputValue",
          "type": "uint256"
        }
      ],
      "stateMutability": "view",
      "type": "function"
    },
    {
      "inputs": [],
      "name": "prevDefiInteractionsHash",
      "outputs": [
        {
          "internalType": "bytes32",
          "name": "",
          "type": "bytes32"
        }
      ],
      "stateMutability": "view",
      "type": "function"
    },
    {
      "inputs": [
        {
          "internalType": "uint256",
          "name": "_interactionNonce",
          "type": "uint256"
        }
      ],
      "name": "processAsyncDefiInteraction",
      "outputs": [
        {
          "internalType": "bool",
          "name": "",
          "type": "bool"
        }
      ],
      "stateMutability": "nonpayable",
      "type": "function"
    },
    {
      "inputs": [
        {
          "internalType": "bytes",
          "name": "",
          "type": "bytes"
        },
        {
          "internalType": "bytes",
          "name": "_signatures",
          "type": "bytes"
        }
      ],
      "name": "processRollup",
      "outputs": [],
      "stateMutability": "nonpayable",
      "type": "function"
    },
    {
      "inputs": [
        {
          "internalType": "uint256",
          "name": "_interactionNonce",
          "type": "uint256"
        }
      ],
      "name": "receiveEthFromBridge",
      "outputs": [],
      "stateMutability": "payable",
      "type": "function"
    },
    {
      "inputs": [
        {
          "internalType": "bytes32",
          "name": "role",
          "type": "bytes32"
        },
        {
          "internalType": "address",
          "name": "account",
          "type": "address"
        }
      ],
      "name": "renounceRole",
      "outputs": [],
      "stateMutability": "nonpayable",
      "type": "function"
    },
    {
      "inputs": [
        {
          "internalType": "bytes32",
          "name": "role",
          "type": "bytes32"
        },
        {
          "internalType": "address",
          "name": "account",
          "type": "address"
        }
      ],
      "name": "revokeRole",
      "outputs": [],
      "stateMutability": "nonpayable",
      "type": "function"
    },
    {
      "inputs": [
        {
          "internalType": "address",
          "name": "",
          "type": "address"
        }
      ],
      "name": "rollupProviders",
      "outputs": [
        {
          "internalType": "bool",
          "name": "",
          "type": "bool"
        }
      ],
      "stateMutability": "view",
      "type": "function"
    },
    {
      "inputs": [],
      "name": "rollupStateHash",
      "outputs": [
        {
          "internalType": "bytes32",
          "name": "",
          "type": "bytes32"
        }
      ],
      "stateMutability": "view",
      "type": "function"
    },
    {
      "inputs": [
        {
          "internalType": "bool",
          "name": "_allowThirdPartyContracts",
          "type": "bool"
        }
      ],
      "name": "setAllowThirdPartyContracts",
      "outputs": [],
      "stateMutability": "nonpayable",
      "type": "function"
    },
    {
      "inputs": [
        {
          "internalType": "uint256",
          "name": "_assetId",
          "type": "uint256"
        },
        {
          "internalType": "uint32",
          "name": "_pendingCap",
          "type": "uint32"
        },
        {
          "internalType": "uint32",
          "name": "_dailyCap",
          "type": "uint32"
        },
        {
          "internalType": "uint8",
          "name": "_precision",
          "type": "uint8"
        }
      ],
      "name": "setAssetCap",
      "outputs": [],
      "stateMutability": "nonpayable",
      "type": "function"
    },
    {
      "inputs": [
        {
          "internalType": "bool",
          "name": "_isCapped",
          "type": "bool"
        }
      ],
      "name": "setCapped",
      "outputs": [],
      "stateMutability": "nonpayable",
      "type": "function"
    },
    {
      "inputs": [
        {
          "internalType": "address",
          "name": "_defiBridgeProxy",
          "type": "address"
        }
      ],
      "name": "setDefiBridgeProxy",
      "outputs": [],
      "stateMutability": "nonpayable",
      "type": "function"
    },
    {
      "inputs": [
        {
          "internalType": "uint32",
          "name": "_delay",
          "type": "uint32"
        }
      ],
      "name": "setDelayBeforeEscapeHatch",
      "outputs": [],
      "stateMutability": "nonpayable",
      "type": "function"
    },
    {
      "inputs": [
        {
          "internalType": "address",
          "name": "_provider",
          "type": "address"
        },
        {
          "internalType": "bool",
          "name": "_valid",
          "type": "bool"
        }
      ],
      "name": "setRollupProvider",
      "outputs": [],
      "stateMutability": "nonpayable",
      "type": "function"
    },
    {
      "inputs": [
        {
          "internalType": "address",
          "name": "_token",
          "type": "address"
        },
        {
          "internalType": "uint256",
          "name": "_gasLimit",
          "type": "uint256"
        }
      ],
      "name": "setSupportedAsset",
      "outputs": [],
      "stateMutability": "nonpayable",
      "type": "function"
    },
    {
      "inputs": [
        {
          "internalType": "address",
          "name": "_bridge",
          "type": "address"
        },
        {
          "internalType": "uint256",
          "name": "_gasLimit",
          "type": "uint256"
        }
      ],
      "name": "setSupportedBridge",
      "outputs": [],
      "stateMutability": "nonpayable",
      "type": "function"
    },
    {
      "inputs": [
        {
          "internalType": "address",
          "name": "_verifier",
          "type": "address"
        }
      ],
      "name": "setVerifier",
      "outputs": [],
      "stateMutability": "nonpayable",
      "type": "function"
    },
    {
      "inputs": [
        {
          "internalType": "bytes4",
          "name": "interfaceId",
          "type": "bytes4"
        }
      ],
      "name": "supportsInterface",
      "outputs": [
        {
          "internalType": "bool",
          "name": "",
          "type": "bool"
        }
      ],
      "stateMutability": "view",
      "type": "function"
    },
    {
      "inputs": [],
      "name": "unpause",
      "outputs": [],
      "stateMutability": "nonpayable",
      "type": "function"
    },
    {
      "inputs": [
        {
          "internalType": "uint256",
          "name": "",
          "type": "uint256"
        },
        {
          "internalType": "address",
          "name": "",
          "type": "address"
        }
      ],
      "name": "userPendingDeposits",
      "outputs": [
        {
          "internalType": "uint256",
          "name": "",
          "type": "uint256"
        }
      ],
      "stateMutability": "view",
      "type": "function"
    },
    {
      "inputs": [],
      "name": "verifier",
      "outputs": [
        {
          "internalType": "address",
          "name": "",
          "type": "address"
        }
      ],
      "stateMutability": "view",
      "type": "function"
    }
  ],
  "bytecode": {
    "object": "0x60c06040523480156200001157600080fd5b506040516200610d3803806200610d83398101604081905262000034916200014e565b811580620000425750808210155b15620000615760405163b37657e760e01b815260040160405180910390fd5b6200006b6200008d565b6002805460ff60e81b1916600160e81b17905560809190915260a05262000173565b600054610100900460ff1615620000fa5760405162461bcd60e51b815260206004820152602760248201527f496e697469616c697a61626c653a20636f6e747261637420697320696e697469604482015266616c697a696e6760c81b606482015260840160405180910390fd5b60005460ff908116146200014c576000805460ff191660ff9081179091556040519081527f7f26b83ff96e1f2b6a682f133852f6798a09c465da95921460cefb38474024989060200160405180910390a15b565b600080604083850312156200016257600080fd5b505080516020909101519092909150565b60805160a051615f4a620001c360003960008181610b7801528181612acf01528181612b2e01528181612b590152612b8901526000818161098201528181612aab0152612bb40152615f4a6000f3fe6080604052600436106103975760003560e01c80638666c0a9116101dc578063c37c656d11610102578063dcefed85116100a0578063e58378bb1161006f578063e58378bb14610c72578063f21c69bb14610ca6578063f81cccbe14610cd3578063fb0ce18514610cf357600080fd5b8063dcefed8514610bd1578063deb26b9414610bfe578063e0d16c3214610c32578063e393635514610c5257600080fd5b8063cd12bf62116100dc578063cd12bf6214610b19578063d547741f14610b46578063d8ba363714610b66578063db1533aa14610b9a57600080fd5b8063c37c656d14610a21578063c4a7a35f14610ad4578063caa3455314610af957600080fd5b8063a2b096e41161017a578063b3a07b9811610149578063b3a07b98146109a4578063bc327e40146109c4578063be71f8a4146109e0578063c0fd22b714610a0c57600080fd5b8063a2b096e41461090e578063a33dc5e71461092e578063a8d1eae71461095b578063b045009c1461097057600080fd5b806391dfe78f116101b657806391dfe78f14610899578063999e3614146108b95780639b60ae2b146108da578063a217fddf146108f957600080fd5b80638666c0a9146107ea5780638afceb391461080a57806391d148541461085357600080fd5b806336ce0a92116102c1578063781e04321161025f5780637ff48afb1161022e5780637ff48afb1461078d5780638129fc1c146107a05780638188f468146107b55780638456cb59146107d557600080fd5b8063781e0432146106fa5780637ba3e7ae146107355780637baf71181461074b5780637d036b271461076b57600080fd5b80635ad1def31161029b5780635ad1def31461066b5780635c975abb1461069b57806360a8b18a146106ba5780636a0214a9146106da57600080fd5b806336ce0a92146105fe5780633f4ba83a146106365780635437988d1461064b57600080fd5b806320825443116103395780632b7ac3f3116103085780632b7ac3f31461056c5780632de03aa11461058a5780632f2ff15d146105be57806336568abe146105de57600080fd5b806320825443146104b557806320a23dd3146104d557806320df435914610507578063248a9ca31461053b57600080fd5b80630ceee68c116103755780630ceee68c146104215780630d698f6f1461045957806312a536231461047b5780631ab9c6031461049f57600080fd5b806301ffc9a71461039c57806302f6ccd4146103d157806303561119146103f4575b600080fd5b3480156103a857600080fd5b506103bc6103b736600461575f565b610d13565b60405190151581526020015b60405180910390f35b3480156103dd57600080fd5b506103e6610dac565b6040519081526020016103c8565b34801561040057600080fd5b506103e661040f3660046157a1565b600e6020526000908152604090205481565b34801561042d57600080fd5b50600a54610441906001600160a01b031681565b6040516001600160a01b0390911681526020016103c8565b34801561046557600080fd5b506104796104743660046157c8565b610df0565b005b6104796104893660046157a1565b6000908152600d60205260409020805434019055565b3480156104ab57600080fd5b506103e660095481565b3480156104c157600080fd5b506104796104d036600461582e565b610f39565b3480156104e157600080fd5b506011546104f29063ffffffff1681565b60405163ffffffff90911681526020016103c8565b34801561051357600080fd5b506103e67fbf233dd2aafeb4d50879c4aa5c81e96d92f6e6945c906a58f9f2d1c1631b4b2681565b34801561054757600080fd5b506103e66105563660046157a1565b6000908152600160208190526040909120015490565b34801561057857600080fd5b506002546001600160a01b0316610441565b34801561059657600080fd5b506103e67f2fc10cc8ae19568712f7a176fb4978616a610650813c9d05326c34abb62749c781565b3480156105ca57600080fd5b506104796105d93660046158a6565b610fad565b3480156105ea57600080fd5b506104796105f93660046158a6565b610fd8565b34801561060a57600080fd5b506103e66106193660046158a6565b600760209081526000928352604080842090915290825290205481565b34801561064257600080fd5b50610479611069565b34801561065757600080fd5b506104796106663660046158d2565b611186565b34801561067757600080fd5b506103bc6106863660046158d2565b600b6020526000908152604090205460ff1681565b3480156106a757600080fd5b50600254600160e81b900460ff166103bc565b3480156106c657600080fd5b506104416106d53660046157a1565b611297565b3480156106e657600080fd5b506104796106f5366004615901565b611343565b34801561070657600080fd5b506103bc61071536600461591c565b600860209081526000928352604080842090915290825290205460ff1681565b34801561074157600080fd5b506103e660105481565b34801561075757600080fd5b50600254600160c01b900461ffff166103e6565b34801561077757600080fd5b50600254600160a01b900463ffffffff166103e6565b61047961079b366004615946565b61142b565b3480156107ac57600080fd5b50610479611693565b3480156107c157600080fd5b506103bc6107d03660046157a1565b611ae9565b3480156107e157600080fd5b5061047961238f565b3480156107f657600080fd5b5061047961080536600461591c565b61249a565b34801561081657600080fd5b5061083e6108253660046157a1565b600c602052600090815260409020805460019091015482565b604080519283526020830191909152016103c8565b34801561085f57600080fd5b506103bc61086e3660046158a6565b60009182526001602090815260408084206001600160a01b0393909316845291905290205460ff1690565b3480156108a557600080fd5b506104796108b4366004615983565b6126c4565b3480156108c557600080fd5b50600a546103bc90600160a01b900460ff1681565b3480156108e657600080fd5b50600254600160f01b900460ff166103bc565b34801561090557600080fd5b506103e6600081565b34801561091a57600080fd5b506104796109293660046157c8565b6127ad565b34801561093a57600080fd5b506103e66109493660046157a1565b60066020526000908152604090205481565b34801561096757600080fd5b506004546103e6565b34801561097c57600080fd5b506103e67f000000000000000000000000000000000000000000000000000000000000000081565b3480156109b057600080fd5b506104796109bf3660046159ba565b612891565b3480156109d057600080fd5b50604051600281526020016103c8565b3480156109ec57600080fd5b506109f5612aa4565b6040805192151583526020830191909152016103c8565b348015610a1857600080fd5b506003546103e6565b348015610a2d57600080fd5b50610a93610a3c3660046157a1565b6012602052600090815260409020546001600160801b0381169063ffffffff7001000000000000000000000000000000008204811691600160a01b8104821691600160c01b8204169060ff600160e01b9091041685565b604080516001600160801b03909616865263ffffffff94851660208701529284169285019290925291909116606083015260ff16608082015260a0016103c8565b348015610ae057600080fd5b506011546104f290640100000000900463ffffffff1681565b348015610b0557600080fd5b50610479610b143660046158d2565b612be5565b348015610b2557600080fd5b506103e6610b343660046157a1565b60056020526000908152604090205481565b348015610b5257600080fd5b50610479610b613660046158a6565b612ce3565b348015610b7257600080fd5b506103e67f000000000000000000000000000000000000000000000000000000000000000081565b348015610ba657600080fd5b506002547a010000000000000000000000000000000000000000000000000000900461ffff166103e6565b348015610bdd57600080fd5b506103e6610bec3660046157a1565b600d6020526000908152604090205481565b348015610c0a57600080fd5b506103e67ff94103142c1baabe9ac2b5d1487bf783de9e69cfeea9a72f5c9c94afd7877b8c81565b348015610c3e57600080fd5b50610441610c4d3660046157a1565b612d09565b348015610c5e57600080fd5b50610479610c6d3660046157a1565b612d43565b348015610c7e57600080fd5b506103e67fb19546dff01e856fb3f010c267a7b1c60363cf8a4664e21cc89c26224620214e81565b348015610cb257600080fd5b506103e6610cc13660046157a1565b600f6020526000908152604090205481565b348015610cdf57600080fd5b50610479610cee366004615a0f565b612d8e565b348015610cff57600080fd5b50610479610d0e36600461591c565b612f23565b60007fffffffff0000000000000000000000000000000000000000000000000000000082167f7965db0b000000000000000000000000000000000000000000000000000000001480610da657507f01ffc9a7000000000000000000000000000000000000000000000000000000007fffffffff000000000000000000000000000000000000000000000000000000008316145b92915050565b600254600090610de79061ffff7a0100000000000000000000000000000000000000000000000000008204811691600160c01b900416615a91565b61ffff16905090565b7fb19546dff01e856fb3f010c267a7b1c60363cf8a4664e21cc89c26224620214e610e1a8161312e565b600060028054600160e01b900460ff1690811115610e3a57610e3a615ab7565b14610e5857604051631e7b117d60e01b815260040160405180910390fd5b60028054819060ff60e01b1916600160e01b820217905550600254600160f01b900460ff1615158215151415610e8d57610f1a565b8115610ea9576011805463ffffffff19164263ffffffff161790555b60028054831515600160f01b027fff00ffffffffffffffffffffffffffffffffffffffffffffffffffffffffffff9091161790556040517f99895cad53cbbff374fbe3c76182ad42a6cb1c0c7306d3b6651786e7154ccbe690610f1190841515815260200190565b60405180910390a15b600280546000919060ff60e01b1916600160e01b835b02179055505050565b600254600160e81b900460ff1615610f6457604051632a6ab56360e21b815260040160405180910390fd5b60408051858152602081018590523381830152905186917fb92710e3fad9222f817fcd828bd1ce3612ad0cd1c8bd5f3a3f4b8d85c4444621919081900360600190a25050505050565b60008281526001602081905260409091200154610fc98161312e565b610fd3838361313b565b505050565b6001600160a01b038116331461105b5760405162461bcd60e51b815260206004820152602f60248201527f416363657373436f6e74726f6c3a2063616e206f6e6c792072656e6f756e636560448201527f20726f6c657320666f722073656c66000000000000000000000000000000000060648201526084015b60405180910390fd5b61106582826131c2565b5050565b600254600160e81b900460ff166110ac576040517f395fbd0500000000000000000000000000000000000000000000000000000000815260040160405180910390fd5b7f2fc10cc8ae19568712f7a176fb4978616a610650813c9d05326c34abb62749c76110d68161312e565b600060028054600160e01b900460ff16908111156110f6576110f6615ab7565b1461111457604051631e7b117d60e01b815260040160405180910390fd5b600280547fffff0000ffffffffffffffffffffffffffffffffffffffffffffffffffffffff16600160e11b1790556040513381527f5db9ee0a495bf2e6ff9c91a7834c1ba4fdd244a5e8aa4e537bd38aeae4b073aa906020015b60405180910390a1506002805460ff60e01b19169055565b7fb19546dff01e856fb3f010c267a7b1c60363cf8a4664e21cc89c26224620214e6111b08161312e565b600060028054600160e01b900460ff16908111156111d0576111d0615ab7565b146111ee57604051631e7b117d60e01b815260040160405180910390fd5b6002805460ff60e01b1916600160e11b1790556001600160a01b0382163b611229576040516310a0493960e11b815260040160405180910390fd5b6002805473ffffffffffffffffffffffffffffffffffffffff19166001600160a01b0384169081179091556040517fd24015cc99cc1700cafca3042840a1d8ac1e3964fd2e0e37ea29c654056ee32790600090a2600280546000919060ff60e01b1916600160e01b83610f30565b600081631fffffff8111156112bf57604051630104ef3360e21b815260040160405180910390fd5b826112cd576000915061133d565b600060036112dc600186615acd565b815481106112ec576112ec615ae4565b6000918252602090912001546001600160a01b031690508061133a576040517ffc3be2bc00000000000000000000000000000000000000000000000000000000815260040160405180910390fd5b91505b50919050565b7fb19546dff01e856fb3f010c267a7b1c60363cf8a4664e21cc89c26224620214e61136d8161312e565b600060028054600160e01b900460ff169081111561138d5761138d615ab7565b146113ab57604051631e7b117d60e01b815260040160405180910390fd5b6002805460ff60e01b1916600160e11b179055601180547fffffffffffffffffffffffffffffffffffffffffffffffff00000000ffffffff1664010000000063ffffffff8516908102919091179091556040519081527f536948e5a71b8ffbb707a6903b99b812c8c291a711ed188e54d36505127d1c3590602001610f11565b600254600160e81b900460ff161561145657604051632a6ab56360e21b815260040160405180910390fd5b600060028054600160e01b900460ff169081111561147657611476615ab7565b1461149457604051631e7b117d60e01b815260040160405180910390fd5b6002805460ff60e01b1916600160e11b179055831580156114b55750823414155b156114ec576040517ff2be5ced00000000000000000000000000000000000000000000000000000000815260040160405180910390fd5b83158015906114fa57503415155b15611531576040517fd08ba85b00000000000000000000000000000000000000000000000000000000815260040160405180910390fd5b61153c848385613245565b801561154b5761154b81612d43565b816001600160a01b0316847feaa18152488ce5959073c9c79c88ca90b3d96c00de1f118cfaad664c3dab06b98560405161158791815260200190565b60405180910390a383156116725760006115a085611297565b6040517fdd62ed3e00000000000000000000000000000000000000000000000000000000815233600482015230602482015290915084906001600160a01b0383169063dd62ed3e90604401602060405180830381865afa158015611608573d6000803e3d6000fd5b505050506040513d601f19601f8201168201806040525081019061162c9190615afa565b1015611664576040517f7bf8af0300000000000000000000000000000000000000000000000000000000815260040160405180910390fd5b611670813330876135f6565b505b600280546000919060ff60e01b1916600160e01b835b021790555050505050565b6002600054610100900460ff161580156116b4575060005460ff8083169116105b6117265760405162461bcd60e51b815260206004820152602e60248201527f496e697469616c697a61626c653a20636f6e747261637420697320616c72656160448201527f647920696e697469616c697a65640000000000000000000000000000000000006064820152608401611052565b806000806101000a81548160ff021916908360ff1602179055506001600060016101000a81548160ff02191690831515021790555060016002600001601e6101000a81548160ff02191690831515021790555042601160006101000a81548163ffffffff021916908363ffffffff1602179055506040518060a00160405280683635c9adc5dea000006001600160801b031681526020014263ffffffff168152602001600663ffffffff1681526020016103e863ffffffff168152602001601260ff168152506012600080815260200190815260200160002060008201518160000160006101000a8154816001600160801b0302191690836001600160801b0316021790555060208201518160000160106101000a81548163ffffffff021916908363ffffffff16021790555060408201518160000160146101000a81548163ffffffff021916908363ffffffff16021790555060608201518160000160186101000a81548163ffffffff021916908363ffffffff160217905550608082015181600001601c6101000a81548160ff021916908360ff1602179055509050506040518060a0016040528069d3c21bcecceda10000006001600160801b031681526020014263ffffffff16815260200161277463ffffffff168152602001620f424063ffffffff168152602001601260ff16815250601260006001815260200190815260200160002060008201518160000160006101000a8154816001600160801b0302191690836001600160801b0316021790555060208201518160000160106101000a81548163ffffffff021916908363ffffffff16021790555060408201518160000160146101000a81548163ffffffff021916908363ffffffff16021790555060608201518160000160186101000a81548163ffffffff021916908363ffffffff160217905550608082015181600001601c6101000a81548160ff021916908360ff1602179055509050507f2c87e4aece114a15933668e808bd3756196c2fb05a4902851081ed8584f8690e600060066103e8604051611a3c939291909283526020830191909152604082015260600190565b60405180910390a160408051600181526127746020820152620f42408183015290517f2c87e4aece114a15933668e808bd3756196c2fb05a4902851081ed8584f8690e9181900360600190a1600080547fffffffffffffffffffffffffffffffffffffffffffffffffffffffffffff00ff16905560405160ff821681527f7f26b83ff96e1f2b6a682f133852f6798a09c465da95921460cefb38474024989060200160405180910390a150565b600254600090600160e81b900460ff1615611b1757604051632a6ab56360e21b815260040160405180910390fd5b600254600160e01b900460ff166001816002811115611b3857611b38615ab7565b1415611f3c576000838152600c60205260409020805460019091015481611b8b576040517f973e3ae300000000000000000000000000000000000000000000000000000000815260040160405180910390fd5b6000611b9683613675565b9050600080600080611ba8858b6138e5565b60046000527f8a35acfbc15ff81a39ae7d344fd709f28e8600b4aa8c65c6b64bfe7fe36bd19a63ffffffff8c160154939750919550935091506001600160a01b031680611c21576040517fbb65988600000000000000000000000000000000000000000000000000000000815260040160405180910390fd5b6000600c60008d815260200190815260200160002060000181905550600060405180606001604052808981526020018d81526020018860c0015167ffffffffffffffff1681525090506000806000846001600160a01b0316639b07d3428a8a8a8a89602001518a604001516040518763ffffffff1660e01b8152600401611cad96959493929190615b58565b6060604051808303816000875af1158015611ccc573d6000803e3d6000fd5b505050506040513d601f19601f82011682018060405250810190611cf09190615bb2565b92509250925080611d26575050506020908101516000908152600c90915260408120989098555095975061133d95505050505050565b600082118015611d4b5750600086604001516003811115611d4957611d49615ab7565b145b15611d85576040517f26e939c600000000000000000000000000000000000000000000000000000000815260048101839052602401611052565b82158015611d91575081155b15611dc357611daa858a86600001518760200151613bcb565b611dbe858986600001518760200151613bcb565b611de3565b611dd38588858760200151613bcb565b611de38587848760200151613bcb565b6000845160208601516000851460008714161592506040518f81528160208201528260408201528660608201528560808201528360a08201526020600060c08360025afa505050507f30644e72e131a029b85045b68181585d2833e84879b9709143e1f593f0000001600051066002548060c01c6103ff168160d01c6103ff166102008183600101011115611e8357632c52558760e11b60005260046000fd5b50600081815260056020908152604080832095909555600190920160c090811b7ffffffffffffffc00ffffffffffffffffffffffffffffffffffffffffffffffff909416939093176002558882015189518551908152928301899052938201879052841515606083015260a0608083018190528201528f917f692cf5822a02f5edf084dc7249b3a06293621e069f11975ed70908ed10ed2e2c910160405180910390a360019e505050505050505050505050505061133d565b6000816002811115611f5057611f50615ab7565b1415612376576002805460ff60e01b1916600160e01b1790556000838152600c6020526040902080546001919091015481611fb7576040517f973e3ae300000000000000000000000000000000000000000000000000000000815260040160405180910390fd5b6000611fc283613675565b9050600080600080611fd4858b6138e5565b60046000527f8a35acfbc15ff81a39ae7d344fd709f28e8600b4aa8c65c6b64bfe7fe36bd19a63ffffffff8c160154939750919550935091506001600160a01b03168061204d576040517fbb65988600000000000000000000000000000000000000000000000000000000815260040160405180910390fd5b6000600c60008d815260200190815260200160002060000181905550600060405180606001604052808981526020018d81526020018860c0015167ffffffffffffffff1681525090506000806000846001600160a01b0316639b07d3428a8a8a8a89602001518a604001516040518763ffffffff1660e01b81526004016120d996959493929190615b58565b6060604051808303816000875af11580156120f8573d6000803e3d6000fd5b505050506040513d601f19601f8201168201806040525081019061211c9190615bb2565b92509250925080612152575050506020908101516000908152600c90915260408120989098555095975061236495505050505050565b600082118015612177575060008660400151600381111561217557612175615ab7565b145b156121b1576040517f26e939c600000000000000000000000000000000000000000000000000000000815260048101839052602401611052565b821580156121bd575081155b156121ef576121d6858a86600001518760200151613bcb565b6121ea858986600001518760200151613bcb565b61220f565b6121ff8588858760200151613bcb565b61220f8587848760200151613bcb565b6000845160208601516000851460008714161592506040518f81528160208201528260408201528660608201528560808201528360a08201526020600060c08360025afa505050507f30644e72e131a029b85045b68181585d2833e84879b9709143e1f593f0000001600051066002548060c01c6103ff168160d01c6103ff1661020081836001010111156122af57632c52558760e11b60005260046000fd5b50600081815260056020908152604080832095909555600190920160c090811b7ffffffffffffffc00ffffffffffffffffffffffffffffffffffffffffffffffff909416939093176002558882015189518551908152928301899052938201879052841515606083015260a0608083018190528201528f917f692cf5822a02f5edf084dc7249b3a06293621e069f11975ed70908ed10ed2e2c910160405180910390a360019e50505050505050505050505050505b6002805460ff60e01b1916905561133d565b604051631e7b117d60e01b815260040160405180910390fd5b600254600160e81b900460ff16156123ba57604051632a6ab56360e21b815260040160405180910390fd5b7fbf233dd2aafeb4d50879c4aa5c81e96d92f6e6945c906a58f9f2d1c1631b4b266123e48161312e565b600060028054600160e01b900460ff169081111561240457612404615ab7565b1461242257604051631e7b117d60e01b815260040160405180910390fd5b600280547fffff0000ffffffffffffffffffffffffffffffffffffffffffffffffffffffff167d0102000000000000000000000000000000000000000000000000000000001790556040513381527f62e78cea01bee320cd4e420270b5ea74000d11b0c9f74754ebdbfc544b05a2589060200161116e565b600254600160e81b900460ff16156124c557604051632a6ab56360e21b815260040160405180910390fd5b3360009081527f65ab7acc1bb8390bd4d3ba8eb4987cf212c814cedeacf3ad4b0583b29d65f538602052604090205460ff1615801561250e5750600a54600160a01b900460ff16155b15612545576040517f11d74fb800000000000000000000000000000000000000000000000000000000815260040160405180910390fd5b600060028054600160e01b900460ff169081111561256557612565615ab7565b1461258357604051631e7b117d60e01b815260040160405180910390fd5b6002805460ff60e01b1916600160e11b1790556001600160a01b0382163b6125be576040516310a0493960e11b815260040160405180910390fd5b6188b88110806125d05750624c4b4081115b15612607576040517f037bbe6d00000000000000000000000000000000000000000000000000000000815260040160405180910390fd5b600480546001810182557f8a35acfbc15ff81a39ae7d344fd709f28e8600b4aa8c65c6b64bfe7fe36bd19b01805473ffffffffffffffffffffffffffffffffffffffff19166001600160a01b03851690811790915590546000818152600f6020908152604091829020859055905184815291929183917f0e62be7fe47a9095143143f8ee61bab3ade27b661223fed33e16122ffe1f284d91015b60405180910390a350600280546000919060ff60e01b1916600160e01b83610f30565b7fb19546dff01e856fb3f010c267a7b1c60363cf8a4664e21cc89c26224620214e6126ee8161312e565b600060028054600160e01b900460ff169081111561270e5761270e615ab7565b1461272c57604051631e7b117d60e01b815260040160405180910390fd5b6002805460ff60e01b1916600160e11b1790556001600160a01b0383166000818152600b6020908152604091829020805460ff1916861515908117909155825190815291517f46359ce9dbb6c7f9a375b44072210287916d3de725fc8927a8e762047e4a84249281900390910190a250506002805460ff60e01b1916905550565b7fb19546dff01e856fb3f010c267a7b1c60363cf8a4664e21cc89c26224620214e6127d78161312e565b600060028054600160e01b900460ff16908111156127f7576127f7615ab7565b1461281557604051631e7b117d60e01b815260040160405180910390fd5b6002805460ff60e01b1916600160e11b179055600a8054831515600160a01b81027fffffffffffffffffffffff00ffffffffffffffffffffffffffffffffffffffff909216919091179091556040519081527fad6b1fc8881be24fc1ad35119b136f0026a4496e6251980e325ddcf86dab394390602001610f11565b7ff94103142c1baabe9ac2b5d1487bf783de9e69cfeea9a72f5c9c94afd7877b8c6128bb8161312e565b600060028054600160e01b900460ff16908111156128db576128db615ab7565b146128f957604051631e7b117d60e01b815260040160405180910390fd5b6002805460ff60e01b1916600160e11b1790556040805160a081019091528061293b61292685600a615ccf565b6129369063ffffffff8816615cde565b613c86565b6001600160801b03908116825263ffffffff4281166020808501919091528882166040808601829052898416606080880182905260ff8b81166080998a015260008f8152601287528490208a5181548c8901518d8801518e8701519e909d0151909416600160e01b0260ff60e01b199d8b16600160c01b027fffffffff00000000ffffffffffffffffffffffffffffffffffffffffffffffff9d8c16600160a01b029d909d167fffffffff0000000000000000ffffffffffffffffffffffffffffffffffffffff95909b167001000000000000000000000000000000000273ffffffffffffffffffffffffffffffffffffffff1990921692909b169190911717919091169690961797909717979097169490941790925582518a815290810191909152908101929092527f2c87e4aece114a15933668e808bd3756196c2fb05a4902851081ed8584f8690e910160405180910390a150506002805460ff60e01b19169055505050565b60008043817f0000000000000000000000000000000000000000000000000000000000000000612af47f000000000000000000000000000000000000000000000000000000000000000084615d13565b1015905060008115612b8457601154612b1d9063ffffffff640100000000820481169116615d27565b421015612b2957600091505b612b537f000000000000000000000000000000000000000000000000000000000000000084615d13565b612b7d907f0000000000000000000000000000000000000000000000000000000000000000615acd565b9050612bdb565b612bae7f000000000000000000000000000000000000000000000000000000000000000084615d13565b612bd8907f0000000000000000000000000000000000000000000000000000000000000000615acd565b90505b9094909350915050565b7fb19546dff01e856fb3f010c267a7b1c60363cf8a4664e21cc89c26224620214e612c0f8161312e565b600060028054600160e01b900460ff1690811115612c2f57612c2f615ab7565b14612c4d57604051631e7b117d60e01b815260040160405180910390fd5b6002805460ff60e01b1916600160e11b1790556001600160a01b0382163b612c88576040516310a0493960e11b815260040160405180910390fd5b600a805473ffffffffffffffffffffffffffffffffffffffff19166001600160a01b0384169081179091556040519081527fc4fc5cbf094d63a6fb20dc7cb9b0236e7dba8c04667182ec259a00a74f95901890602001610f11565b60008281526001602081905260409091200154612cff8161312e565b610fd383836131c2565b60006004612d18600184615acd565b81548110612d2857612d28615ae4565b6000918252602090912001546001600160a01b031692915050565b600254600160e81b900460ff1615612d6e57604051632a6ab56360e21b815260040160405180910390fd5b336000526008602052604060002060205280600052600160406000205550565b600254600160e81b900460ff1615612db957604051632a6ab56360e21b815260040160405180910390fd5b600060028054600160e01b900460ff1690811115612dd957612dd9615ab7565b14612df757604051631e7b117d60e01b815260040160405180910390fd5b6002805460ff60e01b1916600160e01b179055336000908152600b602052604090205460ff1615612e4f57600254600160f01b900460ff1615612e4a576011805463ffffffff19164263ffffffff161790555b612e95565b6000612e59612aa4565b50905080612e93576040517f83633aab00000000000000000000000000000000000000000000000000000000815260040160405180910390fd5b505b6000806000612ea2613ccd565b9250925092506000612eb384614069565b9050612efa8487878080601f016020809104026020016040519081016040528093929190818152602001838380828437600092019190915250889250879150869050614088565b612f0484826140f2565b5050600280546000935090915060ff60e01b1916600160e01b83611688565b600254600160e81b900460ff1615612f4e57604051632a6ab56360e21b815260040160405180910390fd5b3360009081527f65ab7acc1bb8390bd4d3ba8eb4987cf212c814cedeacf3ad4b0583b29d65f538602052604090205460ff16158015612f975750600a54600160a01b900460ff16155b15612fce576040517f11d74fb800000000000000000000000000000000000000000000000000000000815260040160405180910390fd5b600060028054600160e01b900460ff1690811115612fee57612fee615ab7565b1461300c57604051631e7b117d60e01b815260040160405180910390fd5b6002805460ff60e01b1916600160e11b1790556001600160a01b0382163b613047576040516310a0493960e11b815260040160405180910390fd5b61d6d881108061305957506216e36081115b15613090576040517f11e80d6c00000000000000000000000000000000000000000000000000000000815260040160405180910390fd5b600380546001810182557fc2575a0e9e593c00f959f8c92f12db2869c3395a3b0502d05e2516446f71f85b01805473ffffffffffffffffffffffffffffffffffffffff19166001600160a01b03851690811790915590546000818152600e6020908152604091829020859055905184815291929183917f85ac039d1da307b778050ca29271ac915424bac011342c9452960f6679b18ff091016126a1565b6131388133614177565b50565b60008281526001602090815260408083206001600160a01b038516845290915290205460ff166110655760008281526001602081815260408084206001600160a01b0386168086529252808420805460ff19169093179092559051339285917f2f8788117e7eff1d82e926ec794901d17c78024a50270940304540a733656f0d9190a45050565b60008281526001602090815260408083206001600160a01b038516845290915290205460ff16156110655760008281526001602090815260408083206001600160a01b0385168085529252808320805460ff1916905551339285917ff6391f5c32d9c69d2a47ea670b442974b53935d1edc7fd64eb21e047a839171b9190a45050565b82631fffffff81111561326b57604051630104ef3360e21b815260040160405180910390fd5b60008481526007602090815260408083206001600160a01b0387168452909152902054600254600160f01b900460ff16156135be576000858152601260209081526040808320815160a08101835290546001600160801b038116825263ffffffff7001000000000000000000000000000000008204811694830194909452600160a01b8104841692820192909252600160c01b8204909216606083015260ff600160e01b909104166080820181905290919061332890600a615ccf565b9050816040015163ffffffff1660001480613360575080826040015163ffffffff166133549190615cde565b61335e8685615d27565b115b15613397576040517ffb1837c600000000000000000000000000000000000000000000000000000000815260040160405180910390fd5b606082015163ffffffff166133d8576040517fd014828600000000000000000000000000000000000000000000000000000000815260040160405180910390fd5b600081836060015163ffffffff166133f09190615cde565b905060006134016201518083615d3f565b9050613426846020015163ffffffff164261341c9190615acd565b6129369083615cde565b84518590613435908390615d53565b6001600160801b0390811690915285511683101590506134645761345882613c86565b6001600160801b031684525b83516001600160801b03168711156134a8576040517fd014828600000000000000000000000000000000000000000000000000000000815260040160405180910390fd5b6134b187613c86565b845185906134c0908390615d75565b6001600160801b0390811690915263ffffffff428116602080890191825260008e81526012909152604090819020895181549351928b015160608c015160808d015160ff16600160e01b0260ff60e01b19918816600160c01b027fffffffff00000000ffffffffffffffffffffffffffffffffffffffffffffffff938916600160a01b02939093167fffffffff0000000000000000ffffffffffffffffffffffffffffffffffffffff969098167001000000000000000000000000000000000273ffffffffffffffffffffffffffffffffffffffff199097169390981692909217949094179290921693909317919091171691909117905550505050505b6135c88382615d27565b60009586526007602090815260408088206001600160a01b0390971688529590529390942092909255505050565b6040517f23b872dd000000000000000000000000000000000000000000000000000000008152836004820152826024820152816044820152843b613645576310a0493960e11b60005260046000fd5b602060006064836000895af190506001600051163d151780821661366d573d6000803e3d6000fd5b505050505050565b604080516101c081018252600060208083018290526101a083019190915263ffffffff8416808352633fffffff9185901c821693830193909352603e84901c81166060830152605c84901c81166080830152607a84901c1660a082015267ffffffffffffffff60b884901c1660c08201526001603d84901c811660e0830152605b84901c8116610100830152607984901c8116610120830152609784901c8116610140830152609884901c81168114610160830152609984901c81168114610180830152909160049161374791615acd565b8154811061375757613757615ae4565b60009182526020808320909101546001600160a01b03168382015282518252600f905260409020546101a082015261016081015115801561379c575060008160600151115b156137d3576040517f3448066300000000000000000000000000000000000000000000000000000000815260040160405180910390fd5b8061018001511580156137ea575060008160a00151115b15613821576040517f3448066300000000000000000000000000000000000000000000000000000000815260040160405180910390fd5b806101600151801561383a575080606001518160400151145b156138795780604001516040517f760558e800000000000000000000000000000000000000000000000000000000815260040161105291815260200190565b600081610180015180156138905750816101400151155b90508080156138a657508160a001518260800151145b1561133d5781608001516040517ff23e3f9500000000000000000000000000000000000000000000000000000000815260040161105291815260200190565b61390660408051606081018252600080825260208201819052909182015290565b61392760408051606081018252600080825260208201819052909182015290565b61394860408051606081018252600080825260208201819052909182015290565b61396960408051606081018252600080825260208201819052909182015290565b8560e001511561399c57632000000086604001516139879190615acd565b845260006020850152600360408501526139fa565b6040860180518552516139ae90611297565b6001600160a01b031660208501819052156139ca5760026139cd565b60015b846040019060038111156139e3576139e3615ab7565b908160038111156139f6576139f6615ab7565b9052505b85610120015115613a1b578482526000602083015260036040830152613a79565b608086018051835251613a2d90611297565b6001600160a01b03166020830181905215613a49576002613a4c565b60015b82604001906003811115613a6257613a62615ab7565b90816003811115613a7557613a75615ab7565b9052505b85610100015115613ac35763200000008660600151613a989190615acd565b8352600060208401526040830160035b90816003811115613abb57613abb615ab7565b905250613b27565b85610160015115613b1557606086018051845251613ae090611297565b6001600160a01b03166020840181905215613afc576002613aff565b60015b83604001906003811115613aa857613aa8615ab7565b60008084526020840181905260408401525b85610140015115613b5e57848152600060208201526040810160035b90816003811115613b5657613b56615ab7565b905250613bc2565b85610180015115613bb05760a086018051825251613b7b90611297565b6001600160a01b03166020820181905215613b97576002613b9a565b60015b81604001906003811115613b4357613b43615ab7565b60008082526020820181905260408201525b92959194509250565b81613bd557613c80565b600183604001516003811115613bed57613bed615ab7565b1415613c4f576000818152600d6020526040902054821115613c3b576040517fcbbf6eca00000000000000000000000000000000000000000000000000000000815260040160405180910390fd5b6000818152600d6020526040812055613c80565b600283604001516003811115613c6757613c67615ab7565b1415613c80576020830151613c7e818630866135f6565b505b50505050565b60006001600160801b03821115613cc9576040517f7a781de100000000000000000000000000000000000000000000000000000000815260040160405180910390fd5b5090565b6040805161010080820183526141ec82526141f360208084018290528385019190915261421e606084018190526080840181905260a0840181905260c084015261423360e084015283516111c46004359081013560448201359081046111c883013563ffffffff908116828104808402821415019092029096028481016111e0019098526111c08881018086529498919760009795968a0195602486019589948594615755949391926111cc013590911690888a376111c098909801976111a9888101988a97509091010193505b86841115613dd15760078735168089528060051b830151935050613dc387898563ffffffff16565b965061010088019750613d9b565b505050506111c088810151604051600092828604808c048082028d1415019384900393909261010084029260043560240182376111c08101905060208202810191505b81811015613e635760206000848960025afa613e2f57600080fd5b6000517f30644e72e131a029b85045b68181585d2833e84879b9709143e1f593f00000019006815295820195602001613e14565b8415613fe057600092508360208114613eaf5760108114613ed75760408114613eff5760018114613f275760028114613f4f5760048114613f775760088114613f9f5760019650613fc3565b7f0df0e06ab8a02ce2ff08babd7144ab23ca2e99ddf318080cf88602eeb8913d449350613fc3565b7f1c52c159b4dae66c3dcf33b44d4d61ead6bc4d260f882ac6ba34dccf78892ca49350613fc3565b7f1f83672815ac9b3ca31732d641784035834e96b269eaf6a2e759bf4fcc8e5bfd9350613fc3565b7f22dd983f8337d97d56071f7986209ab2ee6039a422242e89126701c6ee005af09350613fc3565b7f076a27c79e5ace2a3d47f9dd2e83e4ff6ea8872b3c2218f66c92b89b55f365609350613fc3565b7f2f0c70a5bf5460465e9902f9c96be324e8064e762a5de52589fdb97cbce3c6ee9350613fc3565b7f240ed0de145447ff0ceff2aa477f43e0e2ed7f3543ee3d8832f158ec76b183a993505b5060208502820191505b81811015613fe057828152602001613fcd565b6040519450602060008683038760025afa613ffa57600080fd5b50505050507f30644e72e131a029b85045b68181585d2833e84879b9709143e1f593f0000001600051069650801561405e576040517f3259ec1e00000000000000000000000000000000000000000000000000000000815260040160405180910390fd5b505050505050909192565b6111a08101516001600160a01b0381111561408357600080fd5b919050565b60006140948684614267565b90506140a1868587614338565b60006140ad8784614400565b9050817f14054a15b39bfd65ec00fc6d15c7e5f9cbc1dc6f452cbefa359b4da61ad89fb682336040516140e1929190615d9d565b60405180910390a250505050505050565b60005b6010811015610fd3576000614111848360200201610b80015190565b9050801561416e576000614125858461493e565b90508061413e57600080600080858861c350f15061416c565b600061414982611297565b905061416a818685600e60008781526020019081526020016000205461495a565b505b505b506001016140f5565b60008281526001602090815260408083206001600160a01b038516845290915290205460ff16611065576141aa816149aa565b6141b58360206149bc565b6040516020016141c6929190615e1d565b60408051601f198184030181529082905262461bcd60e51b825261105291600401615e9e565b5060010190565b600060a0602084016020840137601460c0840160cc840137600460d4840160fc840137505060b90190565b60006080602084016020840137505060810190565b60006040517fd0426f7b00000000000000000000000000000000000000000000000000000000815260040160405180910390fd5b60405160009063ffffffff600480356111cc810135929092168083016111ec01939290910135037fffffffffffffffffffffffffffffffffffffffffffffffffffffffffffffee38019060ac815360316001820153608c6002820153605d600382015360406004820152846024820152816044820152818360648301376001600160a01b03600254169250823b614309576310a0493960e11b60005260046000fd5b6000806064840183865afa9250505080614327573d6000803e3d6000fd5b5061433183614be5565b9392505050565b60006111e08085019061010085028601015b8082101561366d5760a082015180156143f357825160e084015160c085015160018314156143db5761010086206001600160a01b038216600090815260086020908152604080832084845290915290205460ff166143ce5788880180516060825260006143b684614d98565b90506143c3818487614eb1565b509052606097909701965b6143d9838387614ffd565b505b82600214156143ef576143ef84828461507e565b5050505b610100830192505061434a565b606060008061441185611180015190565b9050601054811461445c576010546040517f88011dd6000000000000000000000000000000000000000000000000000000008152611052918391600401918252602082015260400190565b6000614466615101565b90935090506144758184615acd565b600280547ffffffffffc00ffffffffffffffffffffffffffffffffffffffffffffffffffff1660d083901b1790556020878101519194506000935091506144bc9190615cde565b6040805160808082018352600080835260208301819052828401819052606090920182905282519081019092529192506101808701915b6020811015614870578251806145095750614870565b61040084015180614546576040517fb246041300000000000000000000000000000000000000000000000000000000815260040160405180910390fd5b600061455183613675565b9050600080600080614563858c6138e5565b93509350935093506040517f4bd947a800000000000000000000000000000000000000000000000000000000815260048101905060208601518082525084516020820152602085015160408201526040850151606082015283516080820152602084015160a0820152604084015160c0820152825160e082015260208301516101008201526040830151610120820152815161014082015260208201516101608201526040820151610180820152866101a08201528b6101c082015260c0860151806101e083015250600d6102008201528e610220820152600a54803b614655576310a0493960e11b60005260046000fd5b60008061024460048503846101a08c0151f490503d6000833e80600181146146955760008c52600060208d0152600060408d0152600060608d01526146b5565b82518c52602083015160208d0152604083015160408d0152600160608d01525b5050508461018001516146ca57600060208a01525b60408901516001811461480a576040518781528a51602082015260208b0151604082015260608b0151606082015260a0608082015260608b01511561473857600060a08201528c897f692cf5822a02f5edf084dc7249b3a06293621e069f11975ed70908ed10ed2e2c60c084a35b60608b0151614792573d60a08201523d602081066020038115150281600060c085013e60008260c0018401528e8b7f692cf5822a02f5edf084dc7249b3a06293621e069f11975ed70908ed10ed2e2c83850160c00186a350505b8881528c60208201528760408201528a51606082015260208b0151608082015260608b015160a08201526020600060c08360025afa50507f30644e72e131a029b85045b68181585d2833e84879b9709143e1f593f0000001600051068d6000526006602052806040600020555060018d019c50614851565b6040518781528c897f38ce48f4c2f3454bcf130721f25a4262b2ff2c8e36af937b30edf01ba481eb1d602084a3508b600052600c6020526040600020888155876001820155505b5060018b019a5060208a019950876001019750505050505050506144f3565b506002548060c01c6103ff166103ff86820111801561489a57632c52558760e11b60005260046000fd5b506040516006602052600560605260005b828110156148cf5787810160009081526040828152808020549120556001016148ab565b506040527ffffffffffffffc00ffffffffffffffffffffffffffffffffffffffffffffffff90860160d01b167ffffffffffc00fc00ffffffffffffffffffffffffffffffffffffffffffffffff9091161760025560008061492e615123565b6010559998505050505050505050565b602081028201610980015163ffffffff811115610da657600080fd5b5a81156149645750805b6040517fa9059cbb00000000000000000000000000000000000000000000000000000000815284600482015283602482015260008060448360008a87f150505050505050565b6060610da66001600160a01b03831660145b606060006149cb836002615cde565b6149d6906002615d27565b67ffffffffffffffff8111156149ee576149ee615ed1565b6040519080825280601f01601f191660200182016040528015614a18576020820181803683370190505b5090507f300000000000000000000000000000000000000000000000000000000000000081600081518110614a4f57614a4f615ae4565b60200101907effffffffffffffffffffffffffffffffffffffffffffffffffffffffffffff1916908160001a9053507f780000000000000000000000000000000000000000000000000000000000000081600181518110614ab257614ab2615ae4565b60200101907effffffffffffffffffffffffffffffffffffffffffffffffffffffffffffff1916908160001a9053506000614aee846002615cde565b614af9906001615d27565b90505b6001811115614b96577f303132333435363738396162636465660000000000000000000000000000000085600f1660108110614b3a57614b3a615ae4565b1a60f81b828281518110614b5057614b50615ae4565b60200101907effffffffffffffffffffffffffffffffffffffffffffffffffffffffffffff1916908160001a90535060049490941c93614b8f81615ee7565b9050614afc565b5083156143315760405162461bcd60e51b815260206004820181905260248201527f537472696e67733a20686578206c656e67746820696e73756666696369656e746044820152606401611052565b600080600080600080614bf7876151ff565b945094509450945094506009548414614c46576040517f34fddf400000000000000000000000000000000000000000000000000000000081526004810185905260248101849052604401611052565b60025463ffffffff600160a01b90910481169083168181614c6957614c69615cfd565b0663ffffffff1660001415614cd2578063ffffffff168263ffffffff1614614ccd576040517f7861e6c600000000000000000000000000000000000000000000000000000000815263ffffffff808416600483015282166024820152604401611052565b614d4c565b60008363ffffffff168263ffffffff1681614cef57614cef615cfd565b068483010363ffffffff169050808363ffffffff1614614d4a576040517f7861e6c600000000000000000000000000000000000000000000000000000000815263ffffffff8416600482015260248101829052604401611052565b505b506009929092556002805463ffffffff9390920192909216600160a01b027fffffffffffffffff00000000ffffffffffffffffffffffffffffffffffffffff9091161790555092915050565b600080614da4836152a8565b90506040517f19457468657265756d205369676e6564204d6573736167653a0a32313000000060208201527f5369676e696e672074686973206d6573736167652077696c6c20616c6c6f7720603d8201527f796f75722070656e64696e672066756e647320746f206265207370656e742069605d8201527f6e20417a746563207472616e73616374696f6e3a0a0a30780000000000000000607d82015260208201516095820152604082015160b58201527f0a0a494d504f5254414e543a204f6e6c79207369676e20746865206d6573736160d58201527f676520696620796f752074727573742074686520636c69656e7400000000000060f582015260ef602082012092505050919050565b6000806001600160a01b038316614ef4576040517fd57e351000000000000000000000000000000000000000000000000000000000815260040160405180910390fd5b8351858552606085015160408601518060608801526020870151604088015281602088015260208760808960015afa601c8314601b84141760608514167f7fffffffffffffffffffffffffffffff5d576e7357a4501ddfe92f46681b20a183101616945050508451861460008114614f6b57614f70565b855192505b508452801519919091169081614fb2576040517f8a3e28aa00000000000000000000000000000000000000000000000000000000815260040160405180910390fd5b826001600160a01b0316816001600160a01b031614613c7e576040517fa3402a3800000000000000000000000000000000000000000000000000000000815260040160405180910390fd5b82631fffffff81111561502357604051630104ef3360e21b815260040160405180910390fd5b60008481526007602090815260408083209091528482529020805483810390915582118015613c7e576040517f8e8af4f900000000000000000000000000000000000000000000000000000000815260040160405180910390fd5b6001600160a01b0382166150be576040517f6df19fea00000000000000000000000000000000000000000000000000000000815260040160405180910390fd5b806150d5576000806000808686617530f150505050565b60006150e082611297565b9050613c80818486600e60008781526020019081526020016000205461495a565b6002546103ff60d082901c16908190602082111561511e57602091505b509091565b60606000806000615132615101565b909250905060006151438284615acd565b90506040519450602085016020610400018601604052828652600660205260005b83811015615188578281016000908152604090205460208202830152600101615164565b5b60208110156151c2577f2d25a1e3a51eb293004c4b56abe12ed0da6bca2b4a21936752a85d102593c1b460208202830152600101615189565b50602060006104008360025afa50507f30644e72e131a029b85045b68181585d2833e84879b9709143e1f593f00000016000510693505050509091565b604081015160608201516000918291829160011b906020860163ffffffff808411908311171561522e57600080fd5b805195506040518681526060820151602082015260a0820151604082015260e08201516060820152610120820151608082015260a0812095506001870181526080820151602082015260c082015160408201526101008201516060820152610140820151608082015260a081209450505091939590929450565b606081615310576040519050604081527f303030303030303030303030303030303030303030303030303030303030303060208201527f3030303030303030303030303030303030303030303030303030303030303030604082015260608101604052919050565b506040517f3030303130323033303430353036303730383039306130623063306430653066607e8201527f3130313131323133313431353136313731383139316131623163316431653166609e8201527f323032313232323332343235323632373238323932613262326332643265326660be8201527f333033313332333333343335333633373338333933613362336333643365336660de8201527f343034313432343334343435343634373438343934613462346334643465346660fe8201527f353035313532353335343535353635373538353935613562356335643565356661011e8201527f363036313632363336343635363636373638363936613662366336643665366661013e8201527f373037313732373337343735373637373738373937613762376337643765376661015e8201527f383038313832383338343835383638373838383938613862386338643865386661017e8201527f393039313932393339343935393639373938393939613962396339643965396661019e8201527f61306131613261336134613561366137613861396161616261636164616561666101be8201527f62306231623262336234623562366237623862396261626262636264626562666101de8201527f63306331633263336334633563366337633863396361636263636364636563666101fe8201527f643064316432643364346435643664376438643964616462646364646465646661021e8201527f653065316532653365346535653665376538653965616562656365646565656661023e8201527f663066316632663366346635663666376638663966616662666366646665666661025e820152606081018260408352600181901b6101fe908116830151601e52600782901c8116830151601c52600f82901c8116830151601a52601782901c8116830151601852601f82901c8116830151601652602782901c8116830151601452602f82901c8116830151601252603782901c8116830151601052603f82901c8116830151600e52604782901c8116830151600c52604f82901c8116830151600a52605782901c8116830151600852605f82901c8116830151600652606782901c8116830151600452606f82901c8116830151600252607782901c16820151600052601e51604084015260801c61573f82826101fe600182901b8116830151601e52600782901c8116830151601c52600f82901c8116830151601a52601782901c8116830151601852601f82901c8116830151601652602782901c8116830151601452602f82901c8116830151601252603782901c8116830151601052603f82901c8116830151600e52604782901c8116830151600c52604f82901c8116830151600a52605782901c8116830151600852605f82901c8116830151600652606782901c8116830151600452606f82901c811683015160025260779190911c160151600052565b5050601e51602082015260608101604052919050565b61575d615efe565b565b60006020828403121561577157600080fd5b81357fffffffff000000000000000000000000000000000000000000000000000000008116811461433157600080fd5b6000602082840312156157b357600080fd5b5035919050565b801515811461313857600080fd5b6000602082840312156157da57600080fd5b8135614331816157ba565b60008083601f8401126157f757600080fd5b50813567ffffffffffffffff81111561580f57600080fd5b60208301915083602082850101111561582757600080fd5b9250929050565b60008060008060006080868803121561584657600080fd5b853594506020860135935060408601359250606086013567ffffffffffffffff81111561587257600080fd5b61587e888289016157e5565b969995985093965092949392505050565b80356001600160a01b038116811461408357600080fd5b600080604083850312156158b957600080fd5b823591506158c96020840161588f565b90509250929050565b6000602082840312156158e457600080fd5b6143318261588f565b803563ffffffff8116811461408357600080fd5b60006020828403121561591357600080fd5b614331826158ed565b6000806040838503121561592f57600080fd5b6159388361588f565b946020939093013593505050565b6000806000806080858703121561595c57600080fd5b84359350602085013592506159736040860161588f565b9396929550929360600135925050565b6000806040838503121561599657600080fd5b61599f8361588f565b915060208301356159af816157ba565b809150509250929050565b600080600080608085870312156159d057600080fd5b843593506159e0602086016158ed565b92506159ee604086016158ed565b9150606085013560ff81168114615a0457600080fd5b939692955090935050565b60008060008060408587031215615a2557600080fd5b843567ffffffffffffffff80821115615a3d57600080fd5b615a49888389016157e5565b90965094506020870135915080821115615a6257600080fd5b50615a6f878288016157e5565b95989497509550505050565b634e487b7160e01b600052601160045260246000fd5b600061ffff808316818516808303821115615aae57615aae615a7b565b01949350505050565b634e487b7160e01b600052602160045260246000fd5b600082821015615adf57615adf615a7b565b500390565b634e487b7160e01b600052603260045260246000fd5b600060208284031215615b0c57600080fd5b5051919050565b805182526001600160a01b036020820151166020830152604081015160048110615b4d57634e487b7160e01b600052602160045260246000fd5b806040840152505050565b6101c08101615b678289615b13565b615b746060830188615b13565b615b8160c0830187615b13565b615b8f610120830186615b13565b8361018083015267ffffffffffffffff83166101a0830152979650505050505050565b600080600060608486031215615bc757600080fd5b83519250602084015191506040840151615be0816157ba565b809150509250925092565b600181815b80851115615c26578160001904821115615c0c57615c0c615a7b565b80851615615c1957918102915b93841c9390800290615bf0565b509250929050565b600082615c3d57506001610da6565b81615c4a57506000610da6565b8160018114615c605760028114615c6a57615c86565b6001915050610da6565b60ff841115615c7b57615c7b615a7b565b50506001821b610da6565b5060208310610133831016604e8410600b8410161715615ca9575081810a610da6565b615cb38383615beb565b8060001904821115615cc757615cc7615a7b565b029392505050565b600061433160ff841683615c2e565b6000816000190483118215151615615cf857615cf8615a7b565b500290565b634e487b7160e01b600052601260045260246000fd5b600082615d2257615d22615cfd565b500690565b60008219821115615d3a57615d3a615a7b565b500190565b600082615d4e57615d4e615cfd565b500490565b60006001600160801b03808316818516808303821115615aae57615aae615a7b565b60006001600160801b0383811690831681811015615d9557615d95615a7b565b039392505050565b604080825283519082018190526000906020906060840190828701845b82811015615dd657815184529284019290840190600101615dba565b5050506001600160a01b039490941692019190915250919050565b60005b83811015615e0c578181015183820152602001615df4565b83811115613c805750506000910152565b7f416363657373436f6e74726f6c3a206163636f756e7420000000000000000000815260008351615e55816017850160208801615df1565b7f206973206d697373696e6720726f6c65200000000000000000000000000000006017918401918201528351615e92816028840160208801615df1565b01602801949350505050565b6020815260008251806020840152615ebd816040850160208701615df1565b601f01601f19169190910160400192915050565b634e487b7160e01b600052604160045260246000fd5b600081615ef657615ef6615a7b565b506000190190565b634e487b7160e01b600052605160045260246000fdfea264697066735822122063cdf84f5dece45dac78eb598bd729a5095917f465bd95cf23af8652a2d3c72164736f6c634300080a0033",
    "linkReferences": {}
  },
  "methodIdentifiers": {
    "DEFAULT_ADMIN_ROLE()": "a217fddf",
    "EMERGENCY_ROLE()": "20df4359",
    "LISTER_ROLE()": "deb26b94",
    "OWNER_ROLE()": "e58378bb",
    "RESUME_ROLE()": "2de03aa1",
    "allowThirdPartyContracts()": "999e3614",
    "approveProof(bytes32)": "e3936355",
    "assetGasLimits(uint256)": "03561119",
    "asyncDefiInteractionHashes(uint256)": "cd12bf62",
    "bridgeGasLimits(uint256)": "f21c69bb",
    "caps(uint256)": "c37c656d",
    "defiBridgeProxy()": "0ceee68c",
    "defiInteractionHashes(uint256)": "a33dc5e7",
    "delayBeforeEscapeHatch()": "c4a7a35f",
    "depositPendingFunds(uint256,uint256,address,bytes32)": "7ff48afb",
    "depositProofApprovals(address,bytes32)": "781e0432",
    "escapeBlockLowerBound()": "b045009c",
    "escapeBlockUpperBound()": "d8ba3637",
    "ethPayments(uint256)": "dcefed85",
    "getAsyncDefiInteractionHashesLength()": "7baf7118",
    "getCapped()": "9b60ae2b",
    "getDataSize()": "7d036b27",
    "getDefiInteractionHashesLength()": "db1533aa",
    "getEscapeHatchStatus()": "be71f8a4",
    "getImplementationVersion()": "bc327e40",
    "getPendingDefiInteractionHashesLength()": "02f6ccd4",
    "getRoleAdmin(bytes32)": "248a9ca3",
    "getSupportedAsset(uint256)": "60a8b18a",
    "getSupportedAssetsLength()": "c0fd22b7",
    "getSupportedBridge(uint256)": "e0d16c32",
    "getSupportedBridgesLength()": "a8d1eae7",
    "grantRole(bytes32,address)": "2f2ff15d",
    "hasRole(bytes32,address)": "91d14854",
    "initialize()": "8129fc1c",
    "lastRollupTimeStamp()": "20a23dd3",
    "offchainData(uint256,uint256,uint256,bytes)": "20825443",
    "pause()": "8456cb59",
    "paused()": "5c975abb",
    "pendingDefiInteractions(uint256)": "8afceb39",
    "prevDefiInteractionsHash()": "7ba3e7ae",
    "processAsyncDefiInteraction(uint256)": "8188f468",
    "processRollup(bytes,bytes)": "f81cccbe",
    "receiveEthFromBridge(uint256)": "12a53623",
    "renounceRole(bytes32,address)": "36568abe",
    "revokeRole(bytes32,address)": "d547741f",
    "rollupProviders(address)": "5ad1def3",
    "rollupStateHash()": "1ab9c603",
    "setAllowThirdPartyContracts(bool)": "a2b096e4",
    "setAssetCap(uint256,uint32,uint32,uint8)": "b3a07b98",
    "setCapped(bool)": "0d698f6f",
    "setDefiBridgeProxy(address)": "caa34553",
    "setDelayBeforeEscapeHatch(uint32)": "6a0214a9",
    "setRollupProvider(address,bool)": "91dfe78f",
    "setSupportedAsset(address,uint256)": "fb0ce185",
    "setSupportedBridge(address,uint256)": "8666c0a9",
    "setVerifier(address)": "5437988d",
    "supportsInterface(bytes4)": "01ffc9a7",
    "unpause()": "3f4ba83a",
    "userPendingDeposits(uint256,address)": "36ce0a92",
    "verifier()": "2b7ac3f3"
  },
  "id": 117
}