{
  "abi": [
    {
      "inputs": [
        {
          "internalType": "contract IRollupProcessor",
          "name": "_rollupProcessor",
          "type": "address"
        }
      ],
      "stateMutability": "nonpayable",
      "type": "constructor"
    },
    {
      "anonymous": false,
      "inputs": [
        {
          "indexed": true,
          "internalType": "address",
          "name": "previousOwner",
          "type": "address"
        },
        {
          "indexed": true,
          "internalType": "address",
          "name": "newOwner",
          "type": "address"
        }
      ],
      "name": "OwnershipTransferred",
      "type": "event"
    },
    {
      "inputs": [],
      "name": "ROLLUP_PROCESSOR",
      "outputs": [
        {
          "internalType": "contract IRollupProcessor",
          "name": "",
          "type": "address"
        }
      ],
      "stateMutability": "view",
      "type": "function"
    },
    {
      "inputs": [
        {
          "internalType": "uint256",
          "name": "_assetId",
          "type": "uint256"
        },
        {
          "internalType": "uint256",
          "name": "_amount",
          "type": "uint256"
        },
        {
          "internalType": "address",
          "name": "_owner",
          "type": "address"
        },
        {
          "internalType": "uint256",
          "name": "_deadline",
          "type": "uint256"
        },
        {
          "internalType": "uint8",
          "name": "_v",
          "type": "uint8"
        },
        {
          "internalType": "bytes32",
          "name": "_r",
          "type": "bytes32"
        },
        {
          "internalType": "bytes32",
          "name": "_s",
          "type": "bytes32"
        }
      ],
      "name": "depositPendingFundsPermit",
      "outputs": [],
      "stateMutability": "nonpayable",
      "type": "function"
    },
    {
      "inputs": [
        {
          "internalType": "uint256",
          "name": "_assetId",
          "type": "uint256"
        },
        {
          "internalType": "uint256",
          "name": "_amount",
          "type": "uint256"
        },
        {
          "internalType": "address",
          "name": "_owner",
          "type": "address"
        },
        {
          "internalType": "uint256",
          "name": "_nonce",
          "type": "uint256"
        },
        {
          "internalType": "uint256",
          "name": "_deadline",
          "type": "uint256"
        },
        {
          "internalType": "uint8",
          "name": "_v",
          "type": "uint8"
        },
        {
          "internalType": "bytes32",
          "name": "_r",
          "type": "bytes32"
        },
        {
          "internalType": "bytes32",
          "name": "_s",
          "type": "bytes32"
        }
      ],
      "name": "depositPendingFundsPermitNonStandard",
      "outputs": [],
      "stateMutability": "nonpayable",
      "type": "function"
    },
    {
      "inputs": [],
      "name": "kill",
      "outputs": [],
      "stateMutability": "nonpayable",
      "type": "function"
    },
    {
      "inputs": [],
      "name": "owner",
      "outputs": [
        {
          "internalType": "address",
          "name": "",
          "type": "address"
        }
      ],
      "stateMutability": "view",
      "type": "function"
    },
    {
      "inputs": [
        {
          "internalType": "address",
          "name": "_asset",
          "type": "address"
        }
      ],
      "name": "preApprove",
      "outputs": [],
      "stateMutability": "nonpayable",
      "type": "function"
    },
    {
      "inputs": [],
      "name": "renounceOwnership",
      "outputs": [],
      "stateMutability": "nonpayable",
      "type": "function"
    },
    {
      "inputs": [
        {
          "internalType": "address",
          "name": "newOwner",
          "type": "address"
        }
      ],
      "name": "transferOwnership",
      "outputs": [],
      "stateMutability": "nonpayable",
      "type": "function"
    }
  ],
  "bytecode": {
    "object": "0x60a060405234801561001057600080fd5b50604051610f32380380610f3283398101604081905261002f91610099565b61003833610049565b6001600160a01b03166080526100c9565b600080546001600160a01b038381166001600160a01b0319831681178455604051919092169283917f8be0079c531659141344cd1fd0a4f28419497f9722a3daafe3b4186f6b6457e09190a35050565b6000602082840312156100ab57600080fd5b81516001600160a01b03811681146100c257600080fd5b9392505050565b608051610e2461010e600039600081816101060152818161016d015281816102e50152818161035b015281816103900152818161040a015261058a0152610e246000f3fe608060405234801561001057600080fd5b50600436106100885760003560e01c8063715018a61161005b578063715018a6146100d05780638da5cb5b146100d8578063ae9467b514610101578063f2fde38b1461012857600080fd5b80630e5e327a1461008d5780632fa8cf13146100a25780633db2176f146100b557806341c0e1b5146100c8575b600080fd5b6100a061009b366004610c23565b61013b565b005b6100a06100b0366004610c88565b61034c565b6100a06100c3366004610cac565b6103d8565b6100a06105f2565b6100a06105fd565b6000546001600160a01b03165b6040516001600160a01b03909116815260200160405180910390f35b6100e57f000000000000000000000000000000000000000000000000000000000000000081565b6100a0610136366004610c88565b610611565b6040517f60a8b18a000000000000000000000000000000000000000000000000000000008152600481018890526000907f00000000000000000000000000000000000000000000000000000000000000006001600160a01b0316906360a8b18a90602401602060405180830381865afa1580156101bc573d6000803e3d6000fd5b505050506040513d601f19601f820116820180604052508101906101e09190610d1b565b6040517fd505accf000000000000000000000000000000000000000000000000000000008152336004820152306024820152604481018990526064810187905260ff8616608482015260a4810185905260c4810184905290915081906001600160a01b0382169063d505accf9060e401600060405180830381600087803b15801561026a57600080fd5b505af115801561027e573d6000803e3d6000fd5b50610298925050506001600160a01b03821633308b6106a3565b6040517f7ff48afb000000000000000000000000000000000000000000000000000000008152600481018a9052602481018990526001600160a01b038881166044830152600060648301527f00000000000000000000000000000000000000000000000000000000000000001690637ff48afb90608401600060405180830381600087803b15801561032957600080fd5b505af115801561033d573d6000803e3d6000fd5b50505050505050505050505050565b6103816001600160a01b0382167f0000000000000000000000000000000000000000000000000000000000000000600061075a565b6103d56001600160a01b0382167f00000000000000000000000000000000000000000000000000000000000000007fffffffffffffffffffffffffffffffffffffffffffffffffffffffffffffffff61075a565b50565b6040517f60a8b18a000000000000000000000000000000000000000000000000000000008152600481018990526000907f00000000000000000000000000000000000000000000000000000000000000006001600160a01b0316906360a8b18a90602401602060405180830381865afa158015610459573d6000803e3d6000fd5b505050506040513d601f19601f8201168201806040525081019061047d9190610d1b565b6040517f8fcbaf0c00000000000000000000000000000000000000000000000000000000815233600482015230602482015260448101889052606481018790526001608482015260ff861660a482015260c4810185905260e4810184905290915081906001600160a01b03821690638fcbaf0c9061010401600060405180830381600087803b15801561050f57600080fd5b505af1158015610523573d6000803e3d6000fd5b5061053d925050506001600160a01b03821633308c6106a3565b6040517f7ff48afb000000000000000000000000000000000000000000000000000000008152600481018b9052602481018a90526001600160a01b038981166044830152600060648301527f00000000000000000000000000000000000000000000000000000000000000001690637ff48afb90608401600060405180830381600087803b1580156105ce57600080fd5b505af11580156105e2573d6000803e3d6000fd5b5050505050505050505050505050565b6105fa6108ad565b33ff5b6106056108ad565b61060f6000610907565b565b6106196108ad565b6001600160a01b03811661069a5760405162461bcd60e51b815260206004820152602660248201527f4f776e61626c653a206e6577206f776e657220697320746865207a65726f206160448201527f646472657373000000000000000000000000000000000000000000000000000060648201526084015b60405180910390fd5b6103d581610907565b6040516001600160a01b03808516602483015283166044820152606481018290526107549085907f23b872dd00000000000000000000000000000000000000000000000000000000906084015b60408051601f198184030181529190526020810180517bffffffffffffffffffffffffffffffffffffffffffffffffffffffff167fffffffff000000000000000000000000000000000000000000000000000000009093169290921790915261096f565b50505050565b8015806107ed57506040517fdd62ed3e0000000000000000000000000000000000000000000000000000000081523060048201526001600160a01b03838116602483015284169063dd62ed3e90604401602060405180830381865afa1580156107c7573d6000803e3d6000fd5b505050506040513d601f19601f820116820180604052508101906107eb9190610d38565b155b61085f5760405162461bcd60e51b815260206004820152603660248201527f5361666545524332303a20617070726f76652066726f6d206e6f6e2d7a65726f60448201527f20746f206e6f6e2d7a65726f20616c6c6f77616e6365000000000000000000006064820152608401610691565b6040516001600160a01b0383166024820152604481018290526108a89084907f095ea7b300000000000000000000000000000000000000000000000000000000906064016106f0565b505050565b6000546001600160a01b0316331461060f5760405162461bcd60e51b815260206004820181905260248201527f4f776e61626c653a2063616c6c6572206973206e6f7420746865206f776e65726044820152606401610691565b600080546001600160a01b038381167fffffffffffffffffffffffff0000000000000000000000000000000000000000831681178455604051919092169283917f8be0079c531659141344cd1fd0a4f28419497f9722a3daafe3b4186f6b6457e09190a35050565b60006109c4826040518060400160405280602081526020017f5361666545524332303a206c6f772d6c6576656c2063616c6c206661696c6564815250856001600160a01b0316610a549092919063ffffffff16565b8051909150156108a857808060200190518101906109e29190610d51565b6108a85760405162461bcd60e51b815260206004820152602a60248201527f5361666545524332303a204552433230206f7065726174696f6e20646964206e60448201527f6f742073756363656564000000000000000000000000000000000000000000006064820152608401610691565b6060610a638484600085610a6b565b949350505050565b606082471015610ae35760405162461bcd60e51b815260206004820152602660248201527f416464726573733a20696e73756666696369656e742062616c616e636520666f60448201527f722063616c6c00000000000000000000000000000000000000000000000000006064820152608401610691565b600080866001600160a01b03168587604051610aff9190610d9f565b60006040518083038185875af1925050503d8060008114610b3c576040519150601f19603f3d011682016040523d82523d6000602084013e610b41565b606091505b5091509150610b5287838387610b5d565b979650505050505050565b60608315610bc9578251610bc2576001600160a01b0385163b610bc25760405162461bcd60e51b815260206004820152601d60248201527f416464726573733a2063616c6c20746f206e6f6e2d636f6e74726163740000006044820152606401610691565b5081610a63565b610a638383815115610bde5781518083602001fd5b8060405162461bcd60e51b81526004016106919190610dbb565b6001600160a01b03811681146103d557600080fd5b803560ff81168114610c1e57600080fd5b919050565b600080600080600080600060e0888a031215610c3e57600080fd5b87359650602088013595506040880135610c5781610bf8565b945060608801359350610c6c60808901610c0d565b925060a0880135915060c0880135905092959891949750929550565b600060208284031215610c9a57600080fd5b8135610ca581610bf8565b9392505050565b600080600080600080600080610100898b031215610cc957600080fd5b88359750602089013596506040890135610ce281610bf8565b95506060890135945060808901359350610cfe60a08a01610c0d565b925060c0890135915060e089013590509295985092959890939650565b600060208284031215610d2d57600080fd5b8151610ca581610bf8565b600060208284031215610d4a57600080fd5b5051919050565b600060208284031215610d6357600080fd5b81518015158114610ca557600080fd5b60005b83811015610d8e578181015183820152602001610d76565b838111156107545750506000910152565b60008251610db1818460208701610d73565b9190910192915050565b6020815260008251806020840152610dda816040850160208701610d73565b601f01601f1916919091016040019291505056fea26469706673582212202aa1d8a802dba7e8d414a92e7b655119bba2bd4ac523372069f8398a40485e5d64736f6c634300080a0033",
    "linkReferences": {}
  },
  "methodIdentifiers": {
    "ROLLUP_PROCESSOR()": "ae9467b5",
    "depositPendingFundsPermit(uint256,uint256,address,uint256,uint8,bytes32,bytes32)": "0e5e327a",
    "depositPendingFundsPermitNonStandard(uint256,uint256,address,uint256,uint256,uint8,bytes32,bytes32)": "3db2176f",
    "kill()": "41c0e1b5",
    "owner()": "8da5cb5b",
    "preApprove(address)": "2fa8cf13",
    "renounceOwnership()": "715018a6",
    "transferOwnership(address)": "f2fde38b"
  },
  "id": 127
}