{
  "abi": [
    {
      "inputs": [],
      "stateMutability": "nonpayable",
      "type": "constructor"
    },
    {
      "anonymous": false,
      "inputs": [
        {
          "indexed": true,
          "internalType": "address",
          "name": "recipient",
          "type": "address"
        }
      ],
      "name": "FaucetDrained",
      "type": "event"
    },
    {
      "anonymous": false,
      "inputs": [
        {
          "indexed": true,
          "internalType": "address",
          "name": "recipient",
          "type": "address"
        }
      ],
      "name": "FaucetDripped",
      "type": "event"
    },
    {
      "anonymous": false,
      "inputs": [
        {
          "indexed": true,
          "internalType": "address",
          "name": "operator",
          "type": "address"
        },
        {
          "indexed": false,
          "internalType": "bool",
          "name": "status",
          "type": "bool"
        }
      ],
      "name": "OperatorUpdated",
      "type": "event"
    },
    {
      "anonymous": false,
      "inputs": [
        {
          "indexed": true,
          "internalType": "address",
          "name": "operator",
          "type": "address"
        },
        {
          "indexed": false,
          "internalType": "bool",
          "name": "status",
          "type": "bool"
        }
      ],
      "name": "SuperOperatorUpdated",
      "type": "event"
    },
    {
      "inputs": [],
      "name": "DAI",
      "outputs": [
        {
          "internalType": "contract IERC20",
          "name": "",
          "type": "address"
        }
      ],
      "stateMutability": "view",
      "type": "function"
    },
    {
      "inputs": [],
      "name": "DAI_AMOUNT",
      "outputs": [
        {
          "internalType": "uint256",
          "name": "",
          "type": "uint256"
        }
      ],
      "stateMutability": "view",
      "type": "function"
    },
    {
      "inputs": [],
      "name": "ETH_AMOUNT",
      "outputs": [
        {
          "internalType": "uint256",
          "name": "",
          "type": "uint256"
        }
      ],
      "stateMutability": "view",
      "type": "function"
    },
    {
      "inputs": [
        {
          "internalType": "address",
          "name": "",
          "type": "address"
        }
      ],
      "name": "approvedOperators",
      "outputs": [
        {
          "internalType": "bool",
          "name": "",
          "type": "bool"
        }
      ],
      "stateMutability": "view",
      "type": "function"
    },
    {
      "inputs": [],
      "name": "availableDrips",
      "outputs": [
        {
          "internalType": "uint256",
          "name": "ethDrips",
          "type": "uint256"
        },
        {
          "internalType": "uint256",
          "name": "daiDrips",
          "type": "uint256"
        }
      ],
      "stateMutability": "view",
      "type": "function"
    },
    {
      "inputs": [
        {
          "internalType": "address",
          "name": "_recipient",
          "type": "address"
        }
      ],
      "name": "drain",
      "outputs": [],
      "stateMutability": "nonpayable",
      "type": "function"
    },
    {
      "inputs": [
        {
          "internalType": "address",
          "name": "_recipient",
          "type": "address"
        }
      ],
      "name": "drip",
      "outputs": [],
      "stateMutability": "nonpayable",
      "type": "function"
    },
    {
      "inputs": [
        {
          "internalType": "address",
          "name": "",
          "type": "address"
        }
      ],
      "name": "superOperators",
      "outputs": [
        {
          "internalType": "bool",
          "name": "",
          "type": "bool"
        }
      ],
      "stateMutability": "view",
      "type": "function"
    },
    {
      "inputs": [
        {
          "internalType": "address",
          "name": "_operator",
          "type": "address"
        },
        {
          "internalType": "bool",
          "name": "_status",
          "type": "bool"
        }
      ],
      "name": "updateApprovedOperator",
      "outputs": [],
      "stateMutability": "nonpayable",
      "type": "function"
    },
    {
      "inputs": [
        {
          "internalType": "uint256",
          "name": "_ethAmount",
          "type": "uint256"
        },
        {
          "internalType": "uint256",
          "name": "_daiAmount",
          "type": "uint256"
        }
      ],
      "name": "updateDripAmounts",
      "outputs": [],
      "stateMutability": "nonpayable",
      "type": "function"
    },
    {
      "inputs": [
        {
          "internalType": "address",
          "name": "_operator",
          "type": "address"
        },
        {
          "internalType": "bool",
          "name": "_status",
          "type": "bool"
        }
      ],
      "name": "updateSuperOperator",
      "outputs": [],
      "stateMutability": "nonpayable",
      "type": "function"
    },
    {
      "stateMutability": "payable",
      "type": "receive"
    }
  ],
  "bytecode": {
    "object": "0x60a0604052736b175474e89094c44da98b954eedeac495271d0f608052678ac7230489e80000600055681b1ae4d6e2ef50000060015534801561004157600080fd5b50336000908152600360205260409020805460ff19166001179055608051610bbc610093600039600081816102090152818161035001528181610528015281816108c401526109790152610bbc6000f3fe6080604052600436106100c05760003560e01c80639f40c9a711610074578063e0bab4c41161004e578063e0bab4c4146101f7578063ece5313214610243578063ff721aba1461026357600080fd5b80639f40c9a714610181578063c14033ba146101c1578063d370169d146101d757600080fd5b806367a5cd06116100a557806367a5cd061461011d57806377caec8d1461013d578063929398f51461015d57600080fd5b80631b0bd661146100cc57806324cf0771146100ee57600080fd5b366100c757005b600080fd5b3480156100d857600080fd5b506100ec6100e7366004610a6d565b610293565b005b3480156100fa57600080fd5b50610103610302565b604080519283526020830191909152015b60405180910390f35b34801561012957600080fd5b506100ec610138366004610aab565b6103cb565b34801561014957600080fd5b506100ec610158366004610ade565b61061b565b34801561016957600080fd5b5061017360015481565b604051908152602001610114565b34801561018d57600080fd5b506101b161019c366004610aab565b60036020526000908152604090205460ff1681565b6040519015158152602001610114565b3480156101cd57600080fd5b5061017360005481565b3480156101e357600080fd5b506100ec6101f2366004610ade565b6106da565b34801561020357600080fd5b5061022b7f000000000000000000000000000000000000000000000000000000000000000081565b6040516001600160a01b039091168152602001610114565b34801561024f57600080fd5b506100ec61025e366004610aab565b610791565b34801561026f57600080fd5b506101b161027e366004610aab565b60026020526000908152604090205460ff1681565b3360009081526003602052604090205460ff166102f75760405162461bcd60e51b815260206004820152601260248201527f4e6f74207375706572206f70657261746f72000000000000000000000000000060448201526064015b60405180910390fd5b600091909155600155565b600080600054476103139190610b15565b6001546040517f70a08231000000000000000000000000000000000000000000000000000000008152306004820152919350906001600160a01b037f000000000000000000000000000000000000000000000000000000000000000016906370a0823190602401602060405180830381865afa158015610397573d6000803e3d6000fd5b505050506040513d601f19601f820116820180604052508101906103bb9190610b50565b6103c59190610b15565b90509091565b3360009081526002602052604090205460ff16806103f857503360009081526003602052604090205460ff165b6104445760405162461bcd60e51b815260206004820152601560248201527f4e6f7420617070726f766564206f70657261746f72000000000000000000000060448201526064016102ee565b600080546040516001600160a01b03841691908381818185875af1925050503d806000811461048f576040519150601f19603f3d011682016040523d82523d6000602084013e610494565b606091505b50509050806104e55760405162461bcd60e51b815260206004820152601360248201527f4661696c6564206472697070696e67204554480000000000000000000000000060448201526064016102ee565b6001546040517fa9059cbb0000000000000000000000000000000000000000000000000000000081526001600160a01b03848116600483015260248201929092527f00000000000000000000000000000000000000000000000000000000000000009091169063a9059cbb906044016020604051808303816000875af1158015610573573d6000803e3d6000fd5b505050506040513d601f19601f820116820180604052508101906105979190610b69565b6105e35760405162461bcd60e51b815260206004820152601360248201527f4661696c6564206472697070696e67204441490000000000000000000000000060448201526064016102ee565b6040516001600160a01b038316907f15b77122e87b6c2a7a9afcd86d718fe489828e6fd4d686aef3b823179ab04dbf90600090a25050565b3360009081526003602052604090205460ff1661067a5760405162461bcd60e51b815260206004820152601260248201527f4e6f74207375706572206f70657261746f72000000000000000000000000000060448201526064016102ee565b6001600160a01b038216600081815260026020908152604091829020805460ff191685151590811790915591519182527f966c160e1c4dbc7df8d69af4ace01e9297c3cf016397b7914971f2fbfa32672d91015b60405180910390a25050565b3360009081526003602052604090205460ff166107395760405162461bcd60e51b815260206004820152601260248201527f4e6f74207375706572206f70657261746f72000000000000000000000000000060448201526064016102ee565b6001600160a01b038216600081815260036020908152604091829020805460ff191685151590811790915591519182527f16b3641b846fa469157c01910687996a0318a9c2159e882502ed4d838d593c4291016106ce565b3360009081526003602052604090205460ff166107f05760405162461bcd60e51b815260206004820152601260248201527f4e6f74207375706572206f70657261746f72000000000000000000000000000060448201526064016102ee565b6000816001600160a01b03164760405160006040518083038185875af1925050503d806000811461083d576040519150601f19603f3d011682016040523d82523d6000602084013e610842565b606091505b50509050806108935760405162461bcd60e51b815260206004820152601360248201527f4661696c656420647261696e696e67204554480000000000000000000000000060448201526064016102ee565b6040517f70a082310000000000000000000000000000000000000000000000000000000081523060048201526000907f00000000000000000000000000000000000000000000000000000000000000006001600160a01b0316906370a0823190602401602060405180830381865afa158015610913573d6000803e3d6000fd5b505050506040513d601f19601f820116820180604052508101906109379190610b50565b6040517fa9059cbb0000000000000000000000000000000000000000000000000000000081526001600160a01b038581166004830152602482018390529192507f00000000000000000000000000000000000000000000000000000000000000009091169063a9059cbb906044016020604051808303816000875af11580156109c4573d6000803e3d6000fd5b505050506040513d601f19601f820116820180604052508101906109e89190610b69565b610a345760405162461bcd60e51b815260206004820152601360248201527f4661696c656420647261696e696e67204441490000000000000000000000000060448201526064016102ee565b6040516001600160a01b038416907f7c8fc2d32492ea30dc289f81f32ebd6e1bcb12644f56039a3a274a924decc4a190600090a2505050565b60008060408385031215610a8057600080fd5b50508035926020909101359150565b80356001600160a01b0381168114610aa657600080fd5b919050565b600060208284031215610abd57600080fd5b610ac682610a8f565b9392505050565b8015158114610adb57600080fd5b50565b60008060408385031215610af157600080fd5b610afa83610a8f565b91506020830135610b0a81610acd565b809150509250929050565b600082610b4b577f4e487b7100000000000000000000000000000000000000000000000000000000600052601260045260246000fd5b500490565b600060208284031215610b6257600080fd5b5051919050565b600060208284031215610b7b57600080fd5b8151610ac681610acd56fea2646970667358221220c2d4e208592bca8f2b5ee50361ed542f6d1b79d1e6a07c88915b0a438c11197b64736f6c634300080a0033",
    "linkReferences": {}
  },
  "methodIdentifiers": {
    "DAI()": "e0bab4c4",
    "DAI_AMOUNT()": "929398f5",
    "ETH_AMOUNT()": "c14033ba",
    "approvedOperators(address)": "ff721aba",
    "availableDrips()": "24cf0771",
    "drain(address)": "ece53132",
    "drip(address)": "67a5cd06",
    "superOperators(address)": "9f40c9a7",
    "updateApprovedOperator(address,bool)": "77caec8d",
    "updateDripAmounts(uint256,uint256)": "1b0bd661",
    "updateSuperOperator(address,bool)": "d370169d"
  },
  "id": 125
}