{
  "abi": [
    {
      "inputs": [
        {
          "internalType": "address",
          "name": "_rollupProcessor",
          "type": "address"
        }
      ],
      "stateMutability": "nonpayable",
      "type": "constructor"
    },
    {
      "anonymous": false,
      "inputs": [
        {
          "indexed": true,
          "internalType": "address",
          "name": "previousOwner",
          "type": "address"
        },
        {
          "indexed": true,
          "internalType": "address",
          "name": "newOwner",
          "type": "address"
        }
      ],
      "name": "OwnershipTransferred",
      "type": "event"
    },
    {
      "inputs": [],
      "name": "ROLLUP_PROCESSOR",
      "outputs": [
        {
          "internalType": "contract IRollupProcessor",
          "name": "",
          "type": "address"
        }
      ],
      "stateMutability": "view",
      "type": "function"
    },
    {
      "inputs": [],
      "name": "SUBSIDY",
      "outputs": [
        {
          "internalType": "contract ISubsidy",
          "name": "",
          "type": "address"
        }
      ],
      "stateMutability": "view",
      "type": "function"
    },
    {
      "inputs": [
        {
          "internalType": "uint256",
          "name": "_assetId",
          "type": "uint256"
        },
        {
          "internalType": "string",
          "name": "_tag",
          "type": "string"
        }
      ],
      "name": "addAsset",
      "outputs": [],
      "stateMutability": "nonpayable",
      "type": "function"
    },
    {
      "inputs": [
        {
          "internalType": "uint256[]",
          "name": "_assetIds",
          "type": "uint256[]"
        },
        {
          "internalType": "string[]",
          "name": "_assetTags",
          "type": "string[]"
        },
        {
          "internalType": "uint256[]",
          "name": "_bridgeAddressIds",
          "type": "uint256[]"
        },
        {
          "internalType": "string[]",
          "name": "_bridgeTags",
          "type": "string[]"
        }
      ],
      "name": "addAssetsAndBridges",
      "outputs": [],
      "stateMutability": "nonpayable",
      "type": "function"
    },
    {
      "inputs": [
        {
          "internalType": "uint256",
          "name": "_bridgeAddressId",
          "type": "uint256"
        },
        {
          "internalType": "string",
          "name": "_tag",
          "type": "string"
        }
      ],
      "name": "addBridge",
      "outputs": [],
      "stateMutability": "nonpayable",
      "type": "function"
    },
    {
      "inputs": [
        {
          "internalType": "uint256",
          "name": "_bridgeCallData",
          "type": "uint256"
        }
      ],
      "name": "getAccumulatedSubsidyAmount",
      "outputs": [
        {
          "internalType": "uint256",
          "name": "",
          "type": "uint256"
        },
        {
          "internalType": "uint256",
          "name": "",
          "type": "uint256"
        },
        {
          "internalType": "uint256",
          "name": "",
          "type": "uint256"
        }
      ],
      "stateMutability": "view",
      "type": "function"
    },
    {
      "inputs": [
        {
          "internalType": "string",
          "name": "_tag",
          "type": "string"
        }
      ],
      "name": "getAsset",
      "outputs": [
        {
          "components": [
            {
              "internalType": "address",
              "name": "assetAddress",
              "type": "address"
            },
            {
              "internalType": "uint256",
              "name": "assetId",
              "type": "uint256"
            },
            {
              "internalType": "string",
              "name": "label",
              "type": "string"
            }
          ],
          "internalType": "struct DataProvider.AssetData",
          "name": "",
          "type": "tuple"
        }
      ],
      "stateMutability": "view",
      "type": "function"
    },
    {
      "inputs": [
        {
          "internalType": "uint256",
          "name": "_assetId",
          "type": "uint256"
        }
      ],
      "name": "getAsset",
      "outputs": [
        {
          "components": [
            {
              "internalType": "address",
              "name": "assetAddress",
              "type": "address"
            },
            {
              "internalType": "uint256",
              "name": "assetId",
              "type": "uint256"
            },
            {
              "internalType": "string",
              "name": "label",
              "type": "string"
            }
          ],
          "internalType": "struct DataProvider.AssetData",
          "name": "",
          "type": "tuple"
        }
      ],
      "stateMutability": "view",
      "type": "function"
    },
    {
      "inputs": [],
      "name": "getAssets",
      "outputs": [
        {
          "components": [
            {
              "internalType": "address",
              "name": "assetAddress",
              "type": "address"
            },
            {
              "internalType": "uint256",
              "name": "assetId",
              "type": "uint256"
            },
            {
              "internalType": "string",
              "name": "label",
              "type": "string"
            }
          ],
          "internalType": "struct DataProvider.AssetData[]",
          "name": "",
          "type": "tuple[]"
        }
      ],
      "stateMutability": "view",
      "type": "function"
    },
    {
      "inputs": [
        {
          "internalType": "uint256",
          "name": "_bridgeAddressId",
          "type": "uint256"
        }
      ],
      "name": "getBridge",
      "outputs": [
        {
          "components": [
            {
              "internalType": "address",
              "name": "bridgeAddress",
              "type": "address"
            },
            {
              "internalType": "uint256",
              "name": "bridgeAddressId",
              "type": "uint256"
            },
            {
              "internalType": "string",
              "name": "label",
              "type": "string"
            }
          ],
          "internalType": "struct DataProvider.BridgeData",
          "name": "",
          "type": "tuple"
        }
      ],
      "stateMutability": "view",
      "type": "function"
    },
    {
      "inputs": [
        {
          "internalType": "string",
          "name": "_tag",
          "type": "string"
        }
      ],
      "name": "getBridge",
      "outputs": [
        {
          "components": [
            {
              "internalType": "address",
              "name": "bridgeAddress",
              "type": "address"
            },
            {
              "internalType": "uint256",
              "name": "bridgeAddressId",
              "type": "uint256"
            },
            {
              "internalType": "string",
              "name": "label",
              "type": "string"
            }
          ],
          "internalType": "struct DataProvider.BridgeData",
          "name": "",
          "type": "tuple"
        }
      ],
      "stateMutability": "view",
      "type": "function"
    },
    {
      "inputs": [],
      "name": "getBridges",
      "outputs": [
        {
          "components": [
            {
              "internalType": "address",
              "name": "bridgeAddress",
              "type": "address"
            },
            {
              "internalType": "uint256",
              "name": "bridgeAddressId",
              "type": "uint256"
            },
            {
              "internalType": "string",
              "name": "label",
              "type": "string"
            }
          ],
          "internalType": "struct DataProvider.BridgeData[]",
          "name": "",
          "type": "tuple[]"
        }
      ],
      "stateMutability": "view",
      "type": "function"
    },
    {
      "inputs": [],
      "name": "owner",
      "outputs": [
        {
          "internalType": "address",
          "name": "",
          "type": "address"
        }
      ],
      "stateMutability": "view",
      "type": "function"
    },
    {
      "inputs": [],
      "name": "renounceOwnership",
      "outputs": [],
      "stateMutability": "nonpayable",
      "type": "function"
    },
    {
      "inputs": [
        {
          "internalType": "address",
          "name": "newOwner",
          "type": "address"
        }
      ],
      "name": "transferOwnership",
      "outputs": [],
      "stateMutability": "nonpayable",
      "type": "function"
    }
  ],
  "bytecode": {
    "object": "0x60a060405234801561001057600080fd5b506040516119f93803806119f983398101604081905261002f91610099565b61003833610049565b6001600160a01b03166080526100c9565b600080546001600160a01b038381166001600160a01b0319831681178455604051919092169283917f8be0079c531659141344cd1fd0a4f28419497f9722a3daafe3b4186f6b6457e09190a35050565b6000602082840312156100ab57600080fd5b81516001600160a01b03811681146100c257600080fd5b9392505050565b6080516118eb61010e600039600081816101f0015281816102f20152818161064e015281816107c901528181610a1401528181610c83015261103901526118eb6000f3fe608060405234801561001057600080fd5b50600436106100f55760003560e01c806379a7453911610097578063cd5286d011610066578063cd5286d014610225578063eac8f5b814610238578063f2fde38b1461024b578063f3c475fb1461025e57600080fd5b806379a74539146101ba5780638da5cb5b146101da578063ae9467b5146101eb578063b5ba64a21461021257600080fd5b80635a548336116100d35780635a548336146101575780636508156e1461016a57806367e4ac2c1461019d578063715018a6146101b257600080fd5b806312db9b58146100fa5780632dce0a6b1461012d578063427391c214610142575b600080fd5b61010d610108366004611227565b610271565b604080519384526020840192909252908201526060015b60405180910390f35b610135610648565b60405161012491906112d6565b6101556101503660046113ef565b61078f565b005b610155610165366004611545565b6108ed565b61018573abc30e831b5cc173a9ed5941714a7845c909e7fa81565b6040516001600160a01b039091168152602001610124565b6101a5610a0e565b60405161012491906115f2565b610155610b4e565b6101cd6101c8366004611227565b610b62565b6040516101249190611647565b6000546001600160a01b0316610185565b6101857f000000000000000000000000000000000000000000000000000000000000000081565b6101556102203660046113ef565b610c49565b6101cd610233366004611661565b610da0565b6101cd610246366004611227565b610e62565b6101556102593660046116ab565b610ec3565b6101cd61026c366004611661565b610f53565b60008060006102b86040518060c001604052806000815260200160006001600160a01b03168152602001600081526020016000815260200160008152602001600081525090565b63ffffffff85168082526040517fe0d16c3200000000000000000000000000000000000000000000000000000000815260048101919091527f00000000000000000000000000000000000000000000000000000000000000006001600160a01b03169063e0d16c3290602401602060405180830381865afa158015610341573d6000803e3d6000fd5b505050506040513d601f19601f8201168201806040525081019061036591906116c8565b6001600160a01b031660208083019190915285901c633fffffff90811660408301819052603e87901c82166060840152605c87901c82166080840152607a87901c90911660a0830152609886901c63ffffffff169060b887901c67ffffffffffffffff16906000906103d690610f8d565b90506103f960408051606081018252600080825260208201819052909182015290565b8360011660011415610415576104128560600151610f8d565b90505b60006104248660800151610f8d565b905061044760408051606081018252600080825260208201819052909182015290565b8560021660021415610463576104608760a00151610f8d565b90505b60008088602001516001600160a01b031663dbeacd5460e01b878787878c60405160240161049595949392919061172a565b60408051601f198184030181529181526020820180517bffffffffffffffffffffffffffffffffffffffffffffffffffffffff167fffffffff00000000000000000000000000000000000000000000000000000000909416939093179092529051610500919061177c565b600060405180830381855afa9150503d806000811461053b576040519150601f19603f3d011682016040523d82523d6000602084013e610540565b606091505b5091509150816105635760008060009b509b509b50505050505050505050610641565b6000818060200190518101906105799190611798565b60208b01516040517f73be8bbe0000000000000000000000000000000000000000000000000000000081526001600160a01b0390911660048201526024810182905290915060009073abc30e831b5cc173a9ed5941714a7845c909e7fa906373be8bbe90604401602060405180830381865afa1580156105fd573d6000803e3d6000fd5b505050506040513d601f19601f820116820180604052508101906106219190611798565b9050818161062f48826117c7565b9d509d509d5050505050505050505050505b9193909250565b606060007f00000000000000000000000000000000000000000000000000000000000000006001600160a01b031663a8d1eae76040518163ffffffff1660e01b8152600401602060405180830381865afa1580156106aa573d6000803e3d6000fd5b505050506040513d601f19601f820116820180604052508101906106ce9190611798565b905060008167ffffffffffffffff8111156106eb576106eb611338565b60405190808252806020026020018201604052801561073857816020015b604080516060808201835260008083526020830152918101919091528152602001906001900390816107095790505b50905060015b8281116107885761074e81610b62565b8261075a6001846117e9565b8151811061076a5761076a611800565b6020026020010181905250808061078090611816565b91505061073e565b5092915050565b6107976110d7565b6040517f60a8b18a000000000000000000000000000000000000000000000000000000008152600481018390526000907f00000000000000000000000000000000000000000000000000000000000000006001600160a01b0316906360a8b18a90602401602060405180830381865afa158015610818573d6000803e3d6000fd5b505050506040513d601f19601f8201168201806040525081019061083c91906116c8565b9050600082604051602001610851919061184f565b60408051808303601f1901815282825280516020918201206000818152600483528381208990556060850184526001600160a01b0387811686528386018a81528686018a81528b845260038652959092208651815473ffffffffffffffffffffffffffffffffffffffff1916921691909117815590516001820155925180519195506108e492600285019291019061118e565b50505050505050565b8251845114158061090057508051825114155b156109525760405162461bcd60e51b815260206004820152601560248201527f496e76616c696420696e707574206c656e67746873000000000000000000000060448201526064015b60405180910390fd5b60005b83518110156109ac5761099a85828151811061097357610973611800565b602002602001015185838151811061098d5761098d611800565b602002602001015161078f565b806109a481611816565b915050610955565b5060005b8151811015610a07576109f58382815181106109ce576109ce611800565b60200260200101518383815181106109e8576109e8611800565b6020026020010151610c49565b806109ff81611816565b9150506109b0565b5050505050565b606060007f00000000000000000000000000000000000000000000000000000000000000006001600160a01b031663c0fd22b76040518163ffffffff1660e01b8152600401602060405180830381865afa158015610a70573d6000803e3d6000fd5b505050506040513d601f19601f82011682018060405250810190610a949190611798565b90506000610aa3826001611862565b67ffffffffffffffff811115610abb57610abb611338565b604051908082528060200260200182016040528015610b0857816020015b60408051606080820183526000808352602083015291810191909152815260200190600190039081610ad95790505b50905060005b82811161078857610b1e81610e62565b828281518110610b3057610b30611800565b60200260200101819052508080610b4690611816565b915050610b0e565b610b566110d7565b610b606000611131565b565b6040805160608082018352600080835260208084018290528385018390528582526001808252918590208551938401865280546001600160a01b031684529182015490830152600281018054939492939192840191610bc09061187a565b80601f0160208091040260200160405190810160405280929190818152602001828054610bec9061187a565b8015610c395780601f10610c0e57610100808354040283529160200191610c39565b820191906000526020600020905b815481529060010190602001808311610c1c57829003601f168201915b5050505050815250509050919050565b610c516110d7565b6040517fe0d16c32000000000000000000000000000000000000000000000000000000008152600481018390526000907f00000000000000000000000000000000000000000000000000000000000000006001600160a01b03169063e0d16c3290602401602060405180830381865afa158015610cd2573d6000803e3d6000fd5b505050506040513d601f19601f82011682018060405250810190610cf691906116c8565b9050600082604051602001610d0b919061184f565b60408051808303601f190181528282528051602091820120600081815260028084528482208a90556060860185526001600160a01b0388811687528487018b81528787018b81528c85526001808852979094208851815473ffffffffffffffffffffffffffffffffffffffff191693169290921782555195810195909555905180519296506108e4939185019291019061118e565b60408051606080820183526000808352602083015291810191909152600360000160006003600101600085604051602001610ddb919061184f565b6040516020818303038152906040528051906020012081526020019081526020016000205481526020019081526020016000206040518060600160405290816000820160009054906101000a90046001600160a01b03166001600160a01b03166001600160a01b0316815260200160018201548152602001600282018054610bc09061187a565b60408051606080820183526000808352602080840182905283850183905285825260038152908490208451928301855280546001600160a01b03168352600181015491830191909152600281018054939492939192840191610bc09061187a565b610ecb6110d7565b6001600160a01b038116610f475760405162461bcd60e51b815260206004820152602660248201527f4f776e61626c653a206e6577206f776e657220697320746865207a65726f206160448201527f64647265737300000000000000000000000000000000000000000000000000006064820152608401610949565b610f5081611131565b50565b604080516060808201835260008083526020830152918101919091526001600001600060018001600085604051602001610ddb919061184f565b610fae60408051606081018252600080825260208201819052909182015290565b63200000008210610feb576040518060600160405280632000000084610fd491906117e9565b81526000602082015260400160035b905292915050565b81156110b9576040805160608101825283815290517f60a8b18a0000000000000000000000000000000000000000000000000000000081526004810184905260208201906001600160a01b037f000000000000000000000000000000000000000000000000000000000000000016906360a8b18a90602401602060405180830381865afa158015611080573d6000803e3d6000fd5b505050506040513d601f19601f820116820180604052508101906110a491906116c8565b6001600160a01b031681526020016002610fe3565b60408051606081018252600080825260208201529081016001610fe3565b6000546001600160a01b03163314610b605760405162461bcd60e51b815260206004820181905260248201527f4f776e61626c653a2063616c6c6572206973206e6f7420746865206f776e65726044820152606401610949565b600080546001600160a01b0383811673ffffffffffffffffffffffffffffffffffffffff19831681178455604051919092169283917f8be0079c531659141344cd1fd0a4f28419497f9722a3daafe3b4186f6b6457e09190a35050565b82805461119a9061187a565b90600052602060002090601f0160209004810192826111bc5760008555611202565b82601f106111d557805160ff1916838001178555611202565b82800160010185558215611202579182015b828111156112025782518255916020019190600101906111e7565b5061120e929150611212565b5090565b5b8082111561120e5760008155600101611213565b60006020828403121561123957600080fd5b5035919050565b60005b8381101561125b578181015183820152602001611243565b8381111561126a576000848401525b50505050565b60008151808452611288816020860160208601611240565b601f01601f19169290920160200192915050565b6001600160a01b0381511682526020810151602083015260006040820151606060408501526112ce6060850182611270565b949350505050565b6000602080830181845280855180835260408601915060408160051b870101925083870160005b8281101561132b57603f1988860301845261131985835161129c565b945092850192908501906001016112fd565b5092979650505050505050565b634e487b7160e01b600052604160045260246000fd5b604051601f8201601f1916810167ffffffffffffffff8111828210171561137757611377611338565b604052919050565b600082601f83011261139057600080fd5b813567ffffffffffffffff8111156113aa576113aa611338565b6113bd6020601f19601f8401160161134e565b8181528460208386010111156113d257600080fd5b816020850160208301376000918101602001919091529392505050565b6000806040838503121561140257600080fd5b82359150602083013567ffffffffffffffff81111561142057600080fd5b61142c8582860161137f565b9150509250929050565b600067ffffffffffffffff82111561145057611450611338565b5060051b60200190565b600082601f83011261146b57600080fd5b8135602061148061147b83611436565b61134e565b82815260059290921b8401810191818101908684111561149f57600080fd5b8286015b848110156114ba57803583529183019183016114a3565b509695505050505050565b600082601f8301126114d657600080fd5b813560206114e661147b83611436565b82815260059290921b8401810191818101908684111561150557600080fd5b8286015b848110156114ba57803567ffffffffffffffff8111156115295760008081fd5b6115378986838b010161137f565b845250918301918301611509565b6000806000806080858703121561155b57600080fd5b843567ffffffffffffffff8082111561157357600080fd5b61157f8883890161145a565b9550602087013591508082111561159557600080fd5b6115a1888389016114c5565b945060408701359150808211156115b757600080fd5b6115c38883890161145a565b935060608701359150808211156115d957600080fd5b506115e6878288016114c5565b91505092959194509250565b6000602080830181845280855180835260408601915060408160051b870101925083870160005b8281101561132b57603f1988860301845261163585835161129c565b94509285019290850190600101611619565b60208152600061165a602083018461129c565b9392505050565b60006020828403121561167357600080fd5b813567ffffffffffffffff81111561168a57600080fd5b6112ce8482850161137f565b6001600160a01b0381168114610f5057600080fd5b6000602082840312156116bd57600080fd5b813561165a81611696565b6000602082840312156116da57600080fd5b815161165a81611696565b805182526001600160a01b03602082015116602083015260408101516004811061171f57634e487b7160e01b600052602160045260246000fd5b806040840152505050565b6101a0810161173982886116e5565b61174660608301876116e5565b61175360c08301866116e5565b6117616101208301856116e5565b67ffffffffffffffff83166101808301529695505050505050565b6000825161178e818460208701611240565b9190910192915050565b6000602082840312156117aa57600080fd5b5051919050565b634e487b7160e01b600052601160045260246000fd5b6000826117e457634e487b7160e01b600052601260045260246000fd5b500490565b6000828210156117fb576117fb6117b1565b500390565b634e487b7160e01b600052603260045260246000fd5b60007fffffffffffffffffffffffffffffffffffffffffffffffffffffffffffffffff821415611848576118486117b1565b5060010190565b60208152600061165a6020830184611270565b60008219821115611875576118756117b1565b500190565b600181811c9082168061188e57607f821691505b602082108114156118af57634e487b7160e01b600052602260045260246000fd5b5091905056fea26469706673582212204a0db65a9c40c57029f63b831bddaaed9cb005aeabc30dde26d356583335d6d764736f6c634300080a0033",
    "linkReferences": {}
  },
  "methodIdentifiers": {
    "ROLLUP_PROCESSOR()": "ae9467b5",
    "SUBSIDY()": "6508156e",
    "addAsset(uint256,string)": "427391c2",
    "addAssetsAndBridges(uint256[],string[],uint256[],string[])": "5a548336",
    "addBridge(uint256,string)": "b5ba64a2",
    "getAccumulatedSubsidyAmount(uint256)": "12db9b58",
    "getAsset(string)": "cd5286d0",
    "getAsset(uint256)": "eac8f5b8",
    "getAssets()": "67e4ac2c",
    "getBridge(string)": "f3c475fb",
    "getBridge(uint256)": "79a74539",
    "getBridges()": "2dce0a6b",
    "owner()": "8da5cb5b",
    "renounceOwnership()": "715018a6",
    "transferOwnership(address)": "f2fde38b"
  },
  "id": 0
}