{
  "abi": [
    {
      "inputs": [],
      "stateMutability": "nonpayable",
      "type": "constructor"
    },
    {
      "anonymous": false,
      "inputs": [
        {
          "indexed": false,
          "internalType": "address",
          "name": "logic",
          "type": "address"
        },
        {
          "indexed": false,
          "internalType": "address",
          "name": "admin",
          "type": "address"
        },
        {
          "indexed": false,
          "internalType": "bytes32",
          "name": "salt",
          "type": "bytes32"
        },
        {
          "indexed": false,
          "internalType": "address",
          "name": "proxy",
          "type": "address"
        }
      ],
      "name": "ProxyDeployed",
      "type": "event"
    },
    {
      "inputs": [
        {
          "internalType": "address",
          "name": "_logic",
          "type": "address"
        },
        {
          "internalType": "address",
          "name": "_admin",
          "type": "address"
        },
        {
          "internalType": "bytes",
          "name": "_data",
          "type": "bytes"
        },
        {
          "internalType": "bytes32",
          "name": "_salt",
          "type": "bytes32"
        }
      ],
      "name": "deployProxy",
      "outputs": [
        {
          "internalType": "address",
          "name": "",
          "type": "address"
        }
      ],
      "stateMutability": "nonpayable",
      "type": "function"
    }
  ],
  "bytecode": {
    "object": "0x608060405234801561001057600080fd5b5061122d806100206000396000f3fe608060405234801561001057600080fd5b506004361061002b5760003560e01c806377c4643114610030575b600080fd5b61004361003e36600461017e565b61006c565b60405173ffffffffffffffffffffffffffffffffffffffff909116815260200160405180910390f35b6000808286868660405161007f90610119565b61008b93929190610258565b8190604051809103906000f59050801580156100ab573d6000803e3d6000fd5b506040805173ffffffffffffffffffffffffffffffffffffffff808a168252808916602083015291810186905290821660608201529091507f995bda57c76168448281ac1eee5871a72ec3f8001d83170fe47d084edca3ad409060800160405180910390a195945050505050565b610f20806102d883390190565b803573ffffffffffffffffffffffffffffffffffffffff8116811461014a57600080fd5b919050565b7f4e487b7100000000000000000000000000000000000000000000000000000000600052604160045260246000fd5b6000806000806080858703121561019457600080fd5b61019d85610126565b93506101ab60208601610126565b9250604085013567ffffffffffffffff808211156101c857600080fd5b818701915087601f8301126101dc57600080fd5b8135818111156101ee576101ee61014f565b604051601f8201601f19908116603f011681019083821181831017156102165761021661014f565b816040528281528a602084870101111561022f57600080fd5b826020860160208301376000928101602001929092525095989497509495606001359450505050565b600073ffffffffffffffffffffffffffffffffffffffff8086168352602081861681850152606060408501528451915081606085015260005b828110156102ad57858101820151858201608001528101610291565b828111156102bf576000608084870101525b5050601f01601f19169190910160800194935050505056fe608060405260405162000f2038038062000f2083398101604081905262000026916200049d565b828162000036828260006200004d565b50620000449050826200008a565b505050620005d0565b6200005883620000e5565b600082511180620000665750805b1562000085576200008383836200012760201b620002701760201c565b505b505050565b7f7e644d79422f17c01e4894b5f4f588d331ebfa28653d42ae832dc59e38c9798f620000b562000156565b604080516001600160a01b03928316815291841660208301520160405180910390a1620000e2816200018f565b50565b620000f08162000244565b6040516001600160a01b038216907fbc7cd75a20ee27fd9adebab32041f755214dbc6bffa90cc0225b39da2e5c2d3b90600090a250565b60606200014f838360405180606001604052806027815260200162000ef960279139620002f8565b9392505050565b60006200018060008051602062000ed983398151915260001b6200037760201b620002181760201c565b546001600160a01b0316919050565b6001600160a01b038116620001fa5760405162461bcd60e51b815260206004820152602660248201527f455243313936373a206e65772061646d696e20697320746865207a65726f206160448201526564647265737360d01b60648201526084015b60405180910390fd5b806200022360008051602062000ed983398151915260001b6200037760201b620002181760201c565b80546001600160a01b0319166001600160a01b039290921691909117905550565b6200025a816200037a60201b6200029c1760201c565b620002be5760405162461bcd60e51b815260206004820152602d60248201527f455243313936373a206e657720696d706c656d656e746174696f6e206973206e60448201526c1bdd08184818dbdb9d1c9858dd609a1b6064820152608401620001f1565b80620002237f360894a13ba1a3210667c828492db98dca3e2076cc3735a920a3ca505d382bbc60001b6200037760201b620002181760201c565b6060600080856001600160a01b0316856040516200031791906200057d565b600060405180830381855af49150503d806000811462000354576040519150601f19603f3d011682016040523d82523d6000602084013e62000359565b606091505b5090925090506200036d8683838762000389565b9695505050505050565b90565b6001600160a01b03163b151590565b60608315620003fa578251620003f2576001600160a01b0385163b620003f25760405162461bcd60e51b815260206004820152601d60248201527f416464726573733a2063616c6c20746f206e6f6e2d636f6e74726163740000006044820152606401620001f1565b508162000406565b6200040683836200040e565b949350505050565b8151156200041f5781518083602001fd5b8060405162461bcd60e51b8152600401620001f191906200059b565b80516001600160a01b03811681146200045357600080fd5b919050565b634e487b7160e01b600052604160045260246000fd5b60005b838110156200048b57818101518382015260200162000471565b83811115620000835750506000910152565b600080600060608486031215620004b357600080fd5b620004be846200043b565b9250620004ce602085016200043b565b60408501519092506001600160401b0380821115620004ec57600080fd5b818601915086601f8301126200050157600080fd5b81518181111562000516576200051662000458565b604051601f8201601f19908116603f0116810190838211818310171562000541576200054162000458565b816040528281528960208487010111156200055b57600080fd5b6200056e8360208301602088016200046e565b80955050505050509250925092565b60008251620005918184602087016200046e565b9190910192915050565b6020815260008251806020840152620005bc8160408501602087016200046e565b601f01601f19169190910160400192915050565b6108f980620005e06000396000f3fe60806040526004361061005e5760003560e01c80635c60da1b116100435780635c60da1b146100a85780638f283970146100d9578063f851a440146100f95761006d565b80633659cfe6146100755780634f1ef286146100955761006d565b3661006d5761006b61010e565b005b61006b61010e565b34801561008157600080fd5b5061006b610090366004610765565b610128565b61006b6100a3366004610780565b61016f565b3480156100b457600080fd5b506100bd6101e0565b6040516001600160a01b03909116815260200160405180910390f35b3480156100e557600080fd5b5061006b6100f4366004610765565b61021b565b34801561010557600080fd5b506100bd610245565b6101166102ab565b610126610121610365565b61036f565b565b610130610393565b6001600160a01b0316336001600160a01b0316141561016757610164816040518060200160405280600081525060006103c6565b50565b61016461010e565b610177610393565b6001600160a01b0316336001600160a01b031614156101d8576101d38383838080601f016020809104026020016040519081016040528093929190818152602001838380828437600092019190915250600192506103c6915050565b505050565b6101d361010e565b60006101ea610393565b6001600160a01b0316336001600160a01b031614156102105761020b610365565b905090565b61021861010e565b90565b610223610393565b6001600160a01b0316336001600160a01b0316141561016757610164816103f1565b600061024f610393565b6001600160a01b0316336001600160a01b031614156102105761020b610393565b6060610295838360405180606001604052806027815260200161089d60279139610445565b9392505050565b6001600160a01b03163b151590565b6102b3610393565b6001600160a01b0316336001600160a01b031614156101265760405162461bcd60e51b815260206004820152604260248201527f5472616e73706172656e745570677261646561626c6550726f78793a2061646d60448201527f696e2063616e6e6f742066616c6c6261636b20746f2070726f7879207461726760648201527f6574000000000000000000000000000000000000000000000000000000000000608482015260a4015b60405180910390fd5b600061020b6104bd565b3660008037600080366000845af43d6000803e80801561038e573d6000f35b3d6000fd5b60007fb53127684a568b3173ae13b9f8a6016e243e63b6e8ee1178d6a717850b5d61035b546001600160a01b0316919050565b6103cf836104e5565b6000825111806103dc5750805b156101d3576103eb8383610270565b50505050565b7f7e644d79422f17c01e4894b5f4f588d331ebfa28653d42ae832dc59e38c9798f61041a610393565b604080516001600160a01b03928316815291841660208301520160405180910390a161016481610525565b6060600080856001600160a01b031685604051610462919061082f565b600060405180830381855af49150503d806000811461049d576040519150601f19603f3d011682016040523d82523d6000602084013e6104a2565b606091505b50915091506104b3868383876105fd565b9695505050505050565b60007f360894a13ba1a3210667c828492db98dca3e2076cc3735a920a3ca505d382bbc6103b7565b6104ee8161067b565b6040516001600160a01b038216907fbc7cd75a20ee27fd9adebab32041f755214dbc6bffa90cc0225b39da2e5c2d3b90600090a250565b6001600160a01b0381166105a15760405162461bcd60e51b815260206004820152602660248201527f455243313936373a206e65772061646d696e20697320746865207a65726f206160448201527f6464726573730000000000000000000000000000000000000000000000000000606482015260840161035c565b807fb53127684a568b3173ae13b9f8a6016e243e63b6e8ee1178d6a717850b5d61035b80547fffffffffffffffffffffffff0000000000000000000000000000000000000000166001600160a01b039290921691909117905550565b60608315610669578251610662576001600160a01b0385163b6106625760405162461bcd60e51b815260206004820152601d60248201527f416464726573733a2063616c6c20746f206e6f6e2d636f6e7472616374000000604482015260640161035c565b5081610673565b610673838361071f565b949350505050565b6001600160a01b0381163b6106f85760405162461bcd60e51b815260206004820152602d60248201527f455243313936373a206e657720696d706c656d656e746174696f6e206973206e60448201527f6f74206120636f6e747261637400000000000000000000000000000000000000606482015260840161035c565b807f360894a13ba1a3210667c828492db98dca3e2076cc3735a920a3ca505d382bbc6105c4565b81511561072f5781518083602001fd5b8060405162461bcd60e51b815260040161035c919061084b565b80356001600160a01b038116811461076057600080fd5b919050565b60006020828403121561077757600080fd5b61029582610749565b60008060006040848603121561079557600080fd5b61079e84610749565b9250602084013567ffffffffffffffff808211156107bb57600080fd5b818601915086601f8301126107cf57600080fd5b8135818111156107de57600080fd5b8760208285010111156107f057600080fd5b6020830194508093505050509250925092565b60005b8381101561081e578181015183820152602001610806565b838111156103eb5750506000910152565b60008251610841818460208701610803565b9190910192915050565b602081526000825180602084015261086a816040850160208701610803565b601f017fffffffffffffffffffffffffffffffffffffffffffffffffffffffffffffffe016919091016040019291505056fe416464726573733a206c6f772d6c6576656c2064656c65676174652063616c6c206661696c6564a2646970667358221220e75bef50a328039c6844ce57fdb081dcb763dcfdb25bb48eccf8d99c486f447c64736f6c634300080a0033b53127684a568b3173ae13b9f8a6016e243e63b6e8ee1178d6a717850b5d6103416464726573733a206c6f772d6c6576656c2064656c65676174652063616c6c206661696c6564a26469706673582212207a4fc0aa94a41a0736a8f6d4d32f9442b3f2c79486baba29a56d776a8d510bd664736f6c634300080a0033",
    "linkReferences": {}
  },
  "methodIdentifiers": {
    "deployProxy(address,address,bytes,bytes32)": "77c46431"
  },
  "id": 128
}