{
  "abi": [
    {
      "inputs": [
        {
          "internalType": "uint256",
          "name": "outputValueA",
          "type": "uint256"
        },
        {
          "internalType": "uint256",
          "name": "outputValueB",
          "type": "uint256"
        }
      ],
      "name": "ASYNC_NONZERO_OUTPUT_VALUES",
      "type": "error"
    },
    {
      "inputs": [],
      "name": "INSUFFICIENT_ETH_PAYMENT",
      "type": "error"
    },
    {
      "inputs": [
        {
          "internalType": "uint256",
          "name": "outputValue",
          "type": "uint256"
        }
      ],
      "name": "OUTPUT_A_EXCEEDS_252_BITS",
      "type": "error"
    },
    {
      "inputs": [
        {
          "internalType": "uint256",
          "name": "outputValue",
          "type": "uint256"
        }
      ],
      "name": "OUTPUT_B_EXCEEDS_252_BITS",
      "type": "error"
    },
    {
      "inputs": [
        {
          "internalType": "address",
          "name": "bridgeAddress",
          "type": "address"
        },
        {
          "components": [
            {
              "internalType": "uint256",
              "name": "id",
              "type": "uint256"
            },
            {
              "internalType": "address",
              "name": "erc20Address",
              "type": "address"
            },
            {
              "internalType": "enum AztecTypes.AztecAssetType",
              "name": "assetType",
              "type": "uint8"
            }
          ],
          "internalType": "struct AztecTypes.AztecAsset",
          "name": "inputAssetA",
          "type": "tuple"
        },
        {
          "components": [
            {
              "internalType": "uint256",
              "name": "id",
              "type": "uint256"
            },
            {
              "internalType": "address",
              "name": "erc20Address",
              "type": "address"
            },
            {
              "internalType": "enum AztecTypes.AztecAssetType",
              "name": "assetType",
              "type": "uint8"
            }
          ],
          "internalType": "struct AztecTypes.AztecAsset",
          "name": "inputAssetB",
          "type": "tuple"
        },
        {
          "components": [
            {
              "internalType": "uint256",
              "name": "id",
              "type": "uint256"
            },
            {
              "internalType": "address",
              "name": "erc20Address",
              "type": "address"
            },
            {
              "internalType": "enum AztecTypes.AztecAssetType",
              "name": "assetType",
              "type": "uint8"
            }
          ],
          "internalType": "struct AztecTypes.AztecAsset",
          "name": "outputAssetA",
          "type": "tuple"
        },
        {
          "components": [
            {
              "internalType": "uint256",
              "name": "id",
              "type": "uint256"
            },
            {
              "internalType": "address",
              "name": "erc20Address",
              "type": "address"
            },
            {
              "internalType": "enum AztecTypes.AztecAssetType",
              "name": "assetType",
              "type": "uint8"
            }
          ],
          "internalType": "struct AztecTypes.AztecAsset",
          "name": "outputAssetB",
          "type": "tuple"
        },
        {
          "internalType": "uint256",
          "name": "totalInputValue",
          "type": "uint256"
        },
        {
          "internalType": "uint256",
          "name": "interactionNonce",
          "type": "uint256"
        },
        {
          "internalType": "uint256",
          "name": "auxInputData",
          "type": "uint256"
        },
        {
          "internalType": "uint256",
          "name": "ethPaymentsSlot",
          "type": "uint256"
        },
        {
          "internalType": "address",
          "name": "rollupBeneficiary",
          "type": "address"
        }
      ],
      "name": "convert",
      "outputs": [
        {
          "internalType": "uint256",
          "name": "outputValueA",
          "type": "uint256"
        },
        {
          "internalType": "uint256",
          "name": "outputValueB",
          "type": "uint256"
        },
        {
          "internalType": "bool",
          "name": "isAsync",
          "type": "bool"
        }
      ],
      "stateMutability": "nonpayable",
      "type": "function"
    }
  ],
  "bytecode": {
    "object": "0x608060405234801561001057600080fd5b5061075b806100206000396000f3fe608060405234801561001057600080fd5b506004361061002b5760003560e01c80634bd947a814610030575b600080fd5b61004361003e366004610559565b610064565b60408051938452602084019290925215159082015260600160405180910390f35b6000808060028c604001516003811115610080576100806105ff565b1415610095576100958c602001518e8a6102e4565b60028b6040015160038111156100ad576100ad6105ff565b14156100c2576100c28b602001518e8a6102e4565b600060018d6040015160038111156100dc576100dc6105ff565b14806100fd575060018c6040015160038111156100fb576100fb6105ff565b145b61010857600061010a565b885b90508d73ffffffffffffffffffffffffffffffffffffffff166326c3b515828f8f8f8f8f8f8f8e6040518a63ffffffff1660e01b8152600401610154989796959493929190610667565b60606040518083038185885af1158015610172573d6000803e3d6000fd5b50505050506040513d601f19601f8201168201806040525081019061019791906106e7565b9195509350915081156101fe5760008411806101b35750600083115b156101f9576040517f15d98b9000000000000000000000000000000000000000000000000000000000815260048101859052602481018490526044015b60405180910390fd5b6102d3565b8d7f1000000000000000000000000000000000000000000000000000000000000000851061025b576040517f0b3bfdc5000000000000000000000000000000000000000000000000000000008152600481018690526024016101f0565b7f100000000000000000000000000000000000000000000000000000000000000084106102b7576040517f6bfa50d3000000000000000000000000000000000000000000000000000000008152600481018590526024016101f0565b6102c48c868b848b610375565b6102d18b858b848b610375565b505b509a509a509a975050505050505050565b6040517fa9059cbb000000000000000000000000000000000000000000000000000000008152826004820152816024820152833b610346577f214092720000000000000000000000000000000000000000000000000000000060005260046000fd5b602060006044836000885af190506001600051163d151780821661036e573d6000803e3d6000fd5b5050505050565b8361037f5761036e565b600185604001516003811115610397576103976105ff565b14156103f2576000838152602082905260409020805490818611156103e8576040517fcbbf6eca00000000000000000000000000000000000000000000000000000000815260040160405180910390fd5b600090555061036e565b60028560400151600381111561040a5761040a6105ff565b141561036e5761036e85602001518330876040517f23b872dd000000000000000000000000000000000000000000000000000000008152836004820152826024820152816044820152843b610483577f214092720000000000000000000000000000000000000000000000000000000060005260046000fd5b602060006064836000895af190506001600051163d15178082166104ab573d6000803e3d6000fd5b505050505050565b803573ffffffffffffffffffffffffffffffffffffffff811681146104d757600080fd5b919050565b6000606082840312156104ee57600080fd5b6040516060810181811067ffffffffffffffff8211171561051f57634e487b7160e01b600052604160045260246000fd5b60405282358152905080610535602084016104b3565b602082015260408301356004811061054c57600080fd5b6040919091015292915050565b6000806000806000806000806000806102408b8d03121561057957600080fd5b6105828b6104b3565b99506105918c60208d016104dc565b98506105a08c60808d016104dc565b97506105af8c60e08d016104dc565b96506105bf8c6101408d016104dc565b95506101a08b013594506101c08b013593506101e08b013592506102008b013591506105ee6102208c016104b3565b90509295989b9194979a5092959850565b634e487b7160e01b600052602160045260246000fd5b8051825273ffffffffffffffffffffffffffffffffffffffff602082015116602083015260408101516004811061065c57634e487b7160e01b600052602160045260246000fd5b806040840152505050565b6102008101610676828b610615565b610683606083018a610615565b61069060c0830189610615565b61069e610120830188610615565b85610180830152846101a083015267ffffffffffffffff84166101c083015273ffffffffffffffffffffffffffffffffffffffff83166101e08301529998505050505050505050565b6000806000606084860312156106fc57600080fd5b83519250602084015191506040840151801515811461071a57600080fd5b80915050925092509256fea2646970667358221220d1600d15c2a41c83f2598c0db5ba8d3d7d76940489ce1f15540bd905b6e3254764736f6c634300080a0033",
    "linkReferences": {}
  },
  "methodIdentifiers": {
    "convert(address,(uint256,address,uint8),(uint256,address,uint8),(uint256,address,uint8),(uint256,address,uint8),uint256,uint256,uint256,uint256,address)": "4bd947a8"
  },
  "id": 110
}